:100000000C942E070C9475070C9475070C947507C7
:100010000C9475070C9475070C9475070C94750770
:100020000C9475070C9475070C942A2B0C94FC2BDC
:100030000C94D51C0C9475070C9475070C947507DB
:100040000C9475070C9475070C9475070C94750740
:100050000C9475070C94491D0C9475070C94750746
:100060000C9475070C9475070C9475070C94750720
:100070000C9475070C9475070C9475070C94750710
:100080000C9475070C9475070C9475070C94750700
:100090000C9475070C9475070C9475070C947507F0
:1000A0000C9475070C9475070C947507661266120C
:1000B00098129812E51203134E144E144513DE13D2
:1000C000EF13EF13D414D414E614E614DD14E6147D
:1000D000E614E614D414D414E214E614E614E2147C
:1000E000AC239A23BE23382297249724972397245E
:1000F0009724EB239724FF2377249724972497248E
:1001000097243324972497241C249724D7239724B7
:100110009724912491249124912491249124912431
:100120009124912493249724AC238F2397249724FC
:1001300097249724972497249724972497249724E7
:10014000932497249724972397248F248F248F24F4
:100150008F248F248F248F248F248F249324692C21
:10016000902C882D902C882DDC2CFF2C882D562D42
:10017000652D68747470733A2F2F716D6B2E666DD8
:100180002F0A00514D4B2069732074686520626509
:100190007374207468696E67206576657221004B00
:1001A0000001003A003B003C003D003E004100469B
:1001B00000470044004500010001002F024E0029C5
:1001C000001E001F002000210022004000480043C4
:1001D0000027002D004C00010024024A002B0014CF
:1001E000001A000800150017003F00420026001208
:1001F0000013002A0034022D024D00E10004001615
:1002000000070009000A00230025000C000E000F63
:10021000003300360037004900E0001D001B0006D7
:100220000019000500240018000D0010008B008A42
:1002300000250226020100E200E30001000100386F
:100240000087001C000B00110001002C00E500E0FD
:1002500000280044454255473A2064697361626C46
:1002600065642E0A0044454255473A20656E616236
:100270006C65642E0A0000000000000000002A2BBC
:100280002800000000000000000000000000000046
:100290000029000000002C1E3420212224342627AF
:1002A000252E362D3738271E1F20212223242526D0
:1002B0003333362E37381F0405060708090A0B0C9E
:1002C0000D0E0F101112131415161718191A1B1CE6
:1002D0001D2F3130232D350405060708090A0B0CA4
:1002E0000D0E0F101112131415161718191A1B1CC6
:1002F0001D2F3130354C00000000000000000000D0
:10030000000000000000000000007E0F00D4FFFF8E
:10031000FFC7000000780A002530313662003A201D
:100320000025303258000A722F63203031323334C6
:1003300035363738394142434445460A000A0025DC
:1003400030325820006B6579626F6172645F72654C
:10035000706F72743A20000A0025303258006B65C5
:1003600079626F6172645F7365745F6C65643A2073
:100370000064656C5F6B65795F6269743A206361E4
:100380006E27742064656C3A20253032580A00616B
:1003900064645F6B65795F6269743A2063616E279C
:1003A00074206164643A20253032580A00290A001A
:1003B0002575002F002575005D28002564002000AC
:1003C000256400200025640020002564007C0025B1
:1003D000303258006D6F7573656B6579205B6274A0
:1003E0006E7C782079207620685D287265702F6198
:1003F000636C293A205B006D6B5F776865656C5FA5
:1004000074696D655F746F5F6D6178203D20256450
:100410000A006D6B5F776865656C5F6D61785F730F
:1004200070656564203D2025640A006D6B5F74690A
:100430006D655F746F5F6D6178203D2025640A00F3
:100440006D6B5F6D61785F7370656564203D20251D
:10045000640A006D6B5F696E74657276616C203D35
:100460002025640A006D6B5F64656C6179203D2016
:1004700025640A006D6B5F776865656C5F74696DF4
:10048000655F746F5F6D6178203D2025640A006DA3
:100490006B5F776865656C5F6D61785F73706565CC
:1004A00064203D2025640A006D6B5F74696D655F93
:1004B000746F5F6D6178203D2025640A006D6B5F6D
:1004C0006D61785F7370656564203D2025640A0066
:1004D0006D6B5F696E74657276616C203D2025647A
:1004E0000A006D6B5F64656C6179203D2025640AAC
:1004F000000A00257500363A20776865656C5F74E0
:10050000696D655F746F5F6D61783A20000A002540
:100510007500353A20776865656C5F6D61785F734B
:10052000706565643A20000A00257500343A20742D
:10053000696D655F746F5F6D61783A20000A002510
:100540007500333A206D61785F73706565643A2099
:10055000000A00257500323A20696E746572766172
:100560006C286D73293A20000A00257500313A2065
:1005700064656C6179282A31306D73293A20000A4C
:10058000092D2056616C756573202D0A004D3E00C3
:100590004D25643E20003F007365742064656661EC
:1005A000756C740A00433E200077686572652064AC
:1005B000656C74613A20637572736F723D25642CAB
:1005C00020776865656C3D25640A5365652068740D
:1005D00074703A2F2F656E2E77696B697065646948
:1005E000612E6F72672F77696B692F4D6F75736519
:1005F0005F6B6579730A000A092D204D6F7573656D
:100600006B6579202D0A4553432F713A097175693D
:10061000740A313A0964656C6179282A31306D7346
:10062000290A323A09696E74657276616C286D73B5
:10063000290A333A096D61785F73706565640A341D
:100640003A0974696D655F746F5F6D61780A353A58
:1006500009776865656C5F6D61785F737065656467
:100660000A363A09776865656C5F74696D655F7411
:100670006F5F6D61780A0A703A097072696E742052
:1006800076616C7565730A643A09736574206465F4
:100690006661756C74730A75703A092B310A646F60
:1006A000776E3A092D310A706775703A092B31302F
:1006B0000A7067646F776E3A092D31300A0A7370D9
:1006C000656564203D2064656C7461202A206D613D
:1006D000785F7370656564202A2028726570656193
:1006E00074202F2074696D655F746F5F6D61782968
:1006F0000A003F004D3E2000433E20004C25640A86
:100700000074696D65725F72656164333228293ADD
:10071000202530346C580A006B65796D61705F6319
:100720006F6E6669672E6E6B726F3A2025580A00ED
:100730006B6579626F6172645F69646C653A2025EC
:10074000580A006B6579626F6172645F70726F74D2
:100750006F636F6C3A2025580A00686F73745F6B83
:100760006579626F6172645F6C65647328293A20F1
:1007700025580A000A092D20537461747573202DC1
:100780000A004743433A20352E342E30204156523A
:100790002D4C4942433A20322E302E3020415652C1
:1007A0005F415243483A20617672350A004F5054F7
:1007B000494F4E533A204C554641204D4F555345D5
:1007C0004B45592045585452414B455920434F4EB3
:1007D000534F4C4520434F4D4D414E44204E4B52BC
:1007E0004F20343039360A004255494C443A2022D1
:1007F000302E382E35372D312D676632333538326D
:10080000322D646972747922202830323A30363AB7
:100810003538204D61722032332032303230290A8F
:10082000005649443A203078464545442878636468
:100830003029205049443A20307830303030286612
:10084000616E393029205645523A203078303030A8
:10085000310A00444553433A204120637573746F55
:100860006D206B6579626F6172640A000A092D2040
:1008700056657273696F6E202D0A000A092D204398
:100880006F6E736F6C65202D0A4553432F713A09C3
:10089000717569740A6D3A096D6F7573656B657969
:1008A0000A000A092D204D61676963202D0A443A28
:1008B000094465627567204D6573736167652054EF
:1008C0006F67676C650A583A094D617472697820E0
:1008D0004465627567204D6F646520546F67676C6F
:1008E00065202D2053686F77206B65797072657372
:1008F00073657320696E206D617472697820677208
:1009000069640A4B3A094B6579626F6172642044ED
:100910006562756720546F67676C65202D2053688A
:100920006F77206B65797072657373207265706F75
:1009300072740A4D3A094465627567204D6F75738C
:100940006520546F67676C650A563A09566572737D
:10095000696F6E0A533A095374617475730A433AA6
:1009600009416374697661746520436F6E736F6CBF
:1009700065204D6F64650A46312D4631303A095382
:10098000776974636820746F204C617965722030D8
:100990002D392028463130203D204C30290A302D79
:1009A000393A0953776974636820746F204C617910
:1009B000657220302D390A47524156453A0953771E
:1009C0006974636820746F204C61796572203020EF
:1009D00028616C7465726E617465290A423A094A2D
:1009E000756D7020746F20426F6F746C6F616465F9
:1009F000720A4553433A094A756D7020746F20425C
:100A00006F6F746C6F616465722028616C746572BD
:100A10006E617465290A453A095072696E74204501
:100A20004550524F4D2053657474696E67730A4286
:100A300053504143453A09436C6561722045455026
:100A4000524F4D0A4E3A094E4B524F20546F676732
:100A50006C650A000A002575002E6E6B726F3A20D5
:100A6000000A002575002E737761705F6261636B09
:100A7000736C6173685F6261636B73706163653A25
:100A800020000A002575002E737761705F67726120
:100A900076655F6573633A20000A002575002E6E47
:100AA0006F5F6775693A20000A002575002E73771D
:100AB00061705F72616C745F726775693A20000AD9
:100AC000002575002E737761705F6C616C745F6CCC
:100AD0006775693A20000A002575002E73776170EA
:100AE0005F7263746C5F726775693A20000A002553
:100AF00075002E737761705F6C63746C5F6C6775E3
:100B0000693A20000A002575002E636170736C6FCE
:100B1000636B5F746F5F636F6E74726F6C3A20000B
:100B20000A002575002E737761705F636F6E7472B3
:100B30006F6C5F636170736C6F636B3A20000A00C7
:100B400025303258006B65796D61705F636F6E663A
:100B500069672E7261773A20000A002575002E6DB4
:100B60006F7573653A20000A002575002E6B657954
:100B7000626F6172643A20000A002575002E6D6173
:100B8000747269783A20000A002575002E656E613E
:100B9000626C653A20000A002530325800646562B4
:100BA00075675F636F6E6669672E7261773A2000C2
:100BB0000A0025750064656661756C745F6C617907
:100BC00065723A20003F004E4B524F3A206F6666E6
:100BD0000A004E4B524F3A206F6E0A000A6D6F7535
:100BE00073653A206F66660A000A6D6F7573653A21
:100BF000206F6E0A000A6B6579626F6172643A2039
:100C00006F66660A000A6B6579626F6172643A20EA
:100C10006F6E0A000A6D61747269783A206F6666B9
:100C20000A000A6D61747269783A206F6E0A000AD0
:100C300064656275673A206F66660A000A646562D9
:100C400075673A206F6E0A000A0A4A756D70696E00
:100C50006720746F20626F6F746C6F616465722EB1
:100C60002E2E2000433E2000436C656172696E6742
:100C700020454550524F4D0A006565636F6E6669A9
:100C8000673A0A005B735D004B6579626F6172645D
:100C90002073746172742E0A005B575D005B535DB4
:100CA000005B525D005B445D005B435D000403300C
:100CB0000000000C03660061006E00390030000087
:100CC000000A037800630064003000000004030998
:100CD0000409025B00030100A0FA090400000103FB
:100CE00001010009211101000122400007058103D3
:100CF00008000A0904010001030000000921110194
:100D0000000122BC000705820320000A090402003A
:100D10000203000000092111010001222200070541
:100D200083032000010705030320000112011001C5
:100D300000000008EDFE0000010001020301063181
:100D4000FF0974A1010975150026FF00952075089B
:100D500081020976150026FF00952075089102C0D2
:100D600005010902A10185020901A1000509190176
:100D70002905150025019505750181029501750369
:100D800081010501093009311581257F950275081A
:100D9000810609381581257F950175088106050CA6
:100DA0000A38021581257F950175088106C0C005A6
:100DB000010980A101850319012AB700150126B791
:100DC00000950175108100C0050C0901A101850481
:100DD00019012AA002150126A002950175108100B3
:100DE000C005010906A1018505050719E029E715D8
:100DF0000025019508750181020507190029EF15E5
:100E000000250195F0750181020508190129059554
:100E10000575019102950175039101C0050109064F
:100E2000A101050719E029E71500250195087501BD
:100E300081029501750881010507190029FF150038
:100E400026FF0095067508810005081901290595FA
:100E50000575019102950175039101C011241FBE12
:100E6000CFEFDAE0DEBFCDBF04B603FE27C080912E
:100E7000B3029091B402A091B502B091B60287304E
:100E8000904BA740B04BD1F41092B3021092B40231
:100E90001092B5021092B60214BE84B7877F84BF49
:100EA0000FB6F894A89580916000886180936000E7
:100EB000109260000FBEE0E0F8E3099511E0A0E0B9
:100EC000B1E0E2E7FCE502C005900D92A039B10760
:100ED000D9F722E0A0E9B1E001C01D92A33BB2071F
:100EE000E1F70E9450280C94372E0C940000FF93D9
:100EF000EF93E0919001F0919101309709F00995FD
:100F0000EF91FF910895FC018591803011F0EFDFA2
:100F1000FBCF0895FF27E0E230E247FF0CC0419588
:100F200097FF09C0EDE26095709580959095611DE1
:100F3000711D811D911D27FF02C0219530E350E2F4
:100F4000AA27660F771F881F991FAA1FA41710F0E2
:100F5000A41B63955A95A9F7AA3008F0A95FA05D74
:100F6000AF93F395611571058105910541F7ED3258
:100F700011F4EF93F395F21718F43F93F395FBCF29
:100F80008F91B5DFFA95E1F70895E991F99185918F
:100F9000803021F0853219F0AADFF9CF089520E0E2
:100FA000E89455915532C1F3503311F4689455913A
:100FB0005A3348F4505390F3220F022E220F220F7F
:100FC000200D250FF4CF0EF4219589919991533678
:100FD00019F3533729F1533559F1BC018827992763
:100FE000E8945C3621F4899199916894559154362E
:100FF00039F446EF7EF077FF0DC08FEF9FEF0AC008
:1010000055374AE039F0583540E121F0523642E098
:1010100009F00895FF93EF937DDFEF91FF91B7CF34
:10102000FF93EF93FC0181918030B9F360DFFBCF38
:10103000FF93EF9368DFF1CFDF93CF93CDB7DEB7A8
:101040002596A3DFCF91DF9108952C982C9A0895CF
:1010500054985C9886988E9887988F9821982998AC
:1010600023982B9822982A9826982E983E9A579A39
:101070006E9A249A259A7698769A0E9425082D9839
:1010800008959F92AF92BF92CF92DF92EF92FF921C
:101090000F931F93CF93DF93B82EA92E0E94A20C1B
:1010A000C0E0D0E010E05EE0C52ED12CEE24E39449
:1010B000F12CC6018C1B9D0B970102C0220F331F20
:1010C0008A95E2F78FE090E020FF02C0469A01C0C7
:1010D0004698369527955F985F9A0197A9F70E94E1
:1010E000250897010C2E02C0220F331F0A94E2F745
:1010F000A90140955095EB2DFA2D00E0DF0180818C
:1011000091810330A9F028F4013049F0023061F0F8
:1011100004C0043091F00530A9F06FB114C06FB174
:10112000661F6627661F12C063B1669561700EC0A8
:1011300063B163FB662760F909C063B162FB662790
:1011400060F904C063B166FB662760F9662321F08D
:10115000BC01622B732B03C0BC0164237523718314
:1011600060833296992493946D917C9168177907E6
:1011700009F4912C19290F5F063009F0BFCF219691
:10118000CF30D10509F095CF812FDF91CF911F91FD
:101190000F91FF90EF90DF90CF90BF90AF909F9016
:1011A000089588302DE5920721F089309D4541F062
:1011B0000FC0FB018281882359F083E891E006C0CB
:1011C000FB018281882321F082E791E00E94E209FD
:1011D00081E0089581E008950C94D1081F93CF9386
:1011E000DF9300D000D01F92CDB7DEB749835A837A
:1011F0006B832091AC0189819A81211112C06623F1
:1012000049F00E94A719182F682F89819A810E949E
:10121000501903C00E947B19182F69817A81812F90
:1012200004C00E94A71969817A810F900F900F90D6
:101230000F900F90DF91CF911F910C94660AFC01E3
:10124000408151816281738184810C94EE08FF9208
:101250000F931F93CF93DF93E82FF0E0EA58FD4FF1
:10126000F490C82FC695C695C695D0E0FE01EA5FFA
:10127000FC4F0491877010E0082E02C01595079569
:101280000A94E2F701701127FE01EA50FD4FC49164
:10129000D0E002C0D595C7958A95E2F7C170DD27E9
:1012A0000115110519F081EE0E94F810209719F030
:1012B00086EE0E94F8108F2D0E940F12CD2B19F090
:1012C00086EE0E94A711012B41F081EEDF91CF91B4
:1012D0001F910F91FF900C94A711DF91CF911F9157
:1012E0000F91FF900895EF92FF920F931F93CF936A
:1012F000DF938C01F62E8AE0E82EF8018491882392
:1013000009F459C0813009F044C0E8012196FE017A
:101310008491813041F42196FE011491812F0E9425
:10132000F810812F0FC0823039F4E8012296FE01B7
:1013300084910E94F81030C0833039F4E80122967D
:10134000FE0184910E94A71127C0843029F5E8018D
:101350002296FE01249180E090E030E02053310994
:101360002A30310560F4E89EA001E99E500D112459
:10137000C901840F951F2196FE012491EECF00979D
:1013800059F0EFE9FFE03197F1F700C00000019755
:10139000F6CF0E942709E8018E010F5F1F4F8F2DA6
:1013A000882309F4AACFEFE9FFE03197F1F700C0F5
:1013B00000008150F5CFDF91CF911F910F91FF90E9
:1013C000EF90089560E00C9473090E94F61A811161
:1013D00002C00E94961B0C94AD0C0C94A90C0895AD
:1013E0000C94EF0981E008950C94F209CF93C82F73
:1013F0000E94F0098C2F0E94F409CF91089508955E
:101400000E94C2140E94FF092FEF84E39CE0215048
:1014100080409040E1F700C000000C946F1D0F93D6
:101420001F93CF93DF93EC010E941F098C01BE0133
:101430000E94EC08882309F442C0BE01C8010E9442
:10144000840D8823E1F1BE01C8010E94C50D8823E7
:10145000B1F1BE01C8010E94F00E882381F18A819A
:10146000882331F101308CE5180751F00E3D8CE5F1
:101470001807D9F001151C45D9F40E94000A1FC0B5
:1014800080914E02C82FC095C170C0FB80F9809337
:101490004E02CC2329F085E692E00E9483070FC01C
:1014A00083E592E00E9483070BC00E94961B07C051
:1014B000CE01DF91CF911F910F910C94EA08C0E00B
:1014C0008C2FDF91CF911F910F9108952AE5829F74
:1014D000C0011124FC012FE0729FE00DF11D1124C9
:1014E000E60FF11DEE0FFF1FE156FE4F859194911F
:1014F0000895CF93DF930E94660A0E947B0BEC0154
:10150000811521E5920708F043C0811540E5940755
:1015100008F08AC0883E910520F5803E910508F0CC
:10152000E6C0883A910570F4853A910508F074C0D8
:101530008130910509F4DBC008F4D7C0049708F0A6
:10154000D6C0D3C08F3B910508F0CFC0C85AD0E0B9
:10155000CC0FDD1FCB5EDE4F0990D881C02DD46447
:10156000C6C0C11580E2D80758F4C11521E0D207E2
:1015700008F0BDC0C03FD10508F4B7C0D065B7C002
:10158000C11540E4D40708F4B0C0DF70D06AAFC022
:10159000C11585E5D807A0F4C11524E5D20708F0E8
:1015A0008AC0C11543E5D40708F06FC0C11582E5B4
:1015B000D80708F054C0DC2FCC27C16FD06A97C081
:1015C000C11529E5D207A0F4C11548E5D40708F0F4
:1015D00077C0C11586E5D80708F087C08C2F0E9418
:1015E0000F0C8F71C82FD0E0DC2FCC27D0627FC0CA
:1015F000C1152AE5D20708F468C0CE0190568115BE
:10160000904208F072C08D2F8F710E940F0CDD2761
:10161000D0628F71D82B6BC0C55AD0E0CD5BDE4F46
:10162000C881D0E0D06463C074E0969587957A95C0
:10163000E1F783709C2F937021E030E002C0220F0D
:10164000331F9A95E2F73C68382BCF70C695C69544
:1016500080E2C89FE0011124C22BD32B48C0CE01E9
:101660008370992721E030E002C0220F331F8A9552
:10167000E2F78C2F8695869540E2849FC001112465
:10168000E901C82BD92BDC6832C0CE0183709927C1
:1016900021E030E002C0220F331F8A95E2F78C2F41
:1016A0008695869540E2849FC0011124E901C82BEC
:1016B000D92BDA681CC0DC2FCC27C46FD06A17C0C6
:1016C000DC2FCC27C06FD06A12C08C2F8F700E9485
:1016D0000F0C94E0D695C7959A95E1F7CF70D0E0BE
:1016E000DC2FCC27D069C82B02C0C0E0D0E0CE01EF
:1016F000DF91CF9108958238910569F1B0F481337B
:10170000910509F46DC048F48932910509F463C06C
:101710008A32910509F469C008958533910509F469
:1017200055C089339105B9F00895833E910569F15B
:1017300038F4803E9105B1F0823E910509F108959B
:10174000863E9105A9F1873E9105B9F1843E910548
:1017500009F064C023C02091A40220FD4FC021FDE8
:101760004DC008958091A40280FD44C08091A502DF
:1017700080FF44C08091A40284FD42C083EE4DC02E
:101780008091A40282FF38C0F5CF8091A40282FD2F
:1017900033C08091A50280FD31C0ECCF8091A502BD
:1017A00081FF32C08091A40284FD2AC087EE35C03B
:1017B0008091A40283FF26C0F5CF8091A40283FD0F
:1017C00021C08091A50281FD1FC0ECCF8091A402B1
:1017D00085FD1CC01DC08091A40285FD19C016C0E6
:1017E0008091A40286FD16C017C08091A40286FDD8
:1017F00013C010C089E311C082EE0FC080EE0DC08F
:1018000080E00BC086EE09C084EE07C089E205C007
:1018100085E303C08AE201C081E390E008959091DE
:10182000A40292FF0DC0282F2871283019F4877F59
:10183000846006C0282F2471243011F48B7F8860C7
:1018400093FF0DC0282F2871283119F4877E8461F9
:1018500006C0282F2471243111F48B7E88612091D9
:10186000A50220FF0DC0382F3871383019F4877F5A
:10187000816006C0382F3171313011F48E7F88605D
:1018800021FF0DC0282F2871283119F4877E81612E
:1018900006C0282F2171213111F48E7E886194FDBC
:1018A000877E0895E82FF0E0EE0FFF1FEE56FD4F04
:1018B000808191810895CF92DF92EF92FF920F93F2
:1018C0001F93CF93DF9386E293E00E94830782E920
:1018D000E82E82E0F82EC0E0D0E091E2C92E93E03D
:1018E000D92E08E113E0DF93CF93DF92CF920E94CD
:1018F0001C088EE193E00E948307F701819191918A
:101900007F010E94E31A9F938F931F930F930E946E
:101910001C0886E193E00E94830721968DB79EB74D
:1019200008960FB6F8949EBF0FBE8DBFC630D10586
:10193000D1F6DF91CF911F910F91FF90EF90DF9043
:10194000CF90089580EA8A95F1F7089508950C9450
:10195000A60C0C94A70C0C94A60C0C94AB0C0E9437
:101960002808E6E8F2E0A2E9B2E0119211921D9295
:101970001D9282E0E239F807C1F786E00E94D50C9B
:101980000C94E509CF9386E892E00E944108C82FA5
:10199000282F46E062E972E086E892E00E94D60CC9
:1019A0000E94ED098C2FCF9108950895FF920F9317
:1019B0001F93CF93DF93F82E092F162FD72FC42F05
:1019C000222349F081E0809394010E94071D9093A7
:1019D000930180939201809194018823D9F08091A2
:1019E0009201909193010E941F1D069798F0EF2D90
:1019F000F02FA12FBD2F80E090E04C2F50E08417F6
:101A0000950734F4219131912D933D930196F7CFB1
:101A100010929401DF91CF911F910F91FF90089543
:101A20000F931F93CF93DF93C62FD42F122FFC0158
:101A300082818823C9F0609397010E94071D9093CB
:101A400096018093950180E28C0F883008F057C092
:101A5000C77081E001C0880FCA95EAF7DF91CF9186
:101A60001F910F910C94221280919701681330C03E
:101A700080919501909196010E941F1D883C9105CF
:101A800038F500E20D0FCD17B9F080E28C0F8830E9
:101A900040F4C77081E001C0880FCA95EAF70E9440
:101AA0002912083028F581E09D2F977001C0880F1A
:101AB0009A95EAF70E942212812F0E940F12083095
:101AC000F0F4D77081E001C0880FDA95EAF70AC018
:101AD00080E28C0F883098F4C77081E001C0880FD5
:101AE000CA95EAF7DF91CF911F910F910C942912BB
:101AF000812FDF91CF911F910F910C940F12DF91E5
:101B0000CF911F910F9108959C01CB01233F4CE58C
:101B10003407F9F078F4283DFCE53F07B9F0293D9A
:101B20004CE5340711F1273D3C4531F526E241EE05
:101B300061EE1EC0253FFCE53F0799F070F0263F9F
:101B40003C45D1F427E245EE66EE12C027E245EEB1
:101B50000EC026E241EE60EE0BC027E245EE64EED9
:101B600007C026E241EE62EE03C028E241E065EEE6
:101B70000E94100D80E00895FC018281882319F0F5
:101B800010929701089581E00895CF93DF93EC01BF
:101B9000FB018281882309F41FC1C230FCE5DF0705
:101BA00008F41BC1C6319CE5D90738F09E012A5FB5
:101BB0003C452930310508F010C10E94091B909363
:101BC000A5028093A402C031ECE5DE0709F4C3C08E
:101BD00008F041C0C8308CE5D80709F49AC0F0F489
:101BE000C430ECE5DE0709F487C068F4C2308CE548
:101BF000D80709F477C0C330DC4509F0E3C0809111
:101C0000A402826076C0C630ECE5DE0709F46EC03F
:101C100008F07BC08091A40288606BC0CC308CE55A
:101C2000D80709F485C068F4CA30ECE5DE0709F48A
:101C300074C008F079C00E94C2148091A402806828
:101C400058C0CE308CE5D80709F476C008F07FC0C4
:101C50008091A4028BC0CB3FECE5DE0709F44FC0B6
:101C600018F5C3318CE5D80709F47DC078F4C1318B
:101C7000ECE5DE0709F473C0C231DC4509F0A2C00F
:101C80000E94C2148091A4028F7733C0C5318CE5C5
:101C9000D80709F472C008F486C0CA3FDC4509F0D1
:101CA00091C08091A5023EC0CF3FFCE5DF0709F45B
:101CB0005FC058F4CD3F9CE5D90709F444C008F44F
:101CC0003FC08091A50282602DC0C130FDE5DF07D5
:101CD00009F475C008F45DC0C230DD4509F072C07A
:101CE00080E06EC08091A402816003C08091A40254
:101CF00080618093A40266C08091A40211C080918B
:101D0000A50282608093A5025DC08091A4028062DA
:101D1000F0CF8091A4028064ECCF8091A40288600F
:101D20008460E7CF8160EECF8091A4028E7FE1CF07
:101D30008091A4028D7FDDCF8091A402877FD9CFCF
:101D40008091A50218C08091A5028D7FDBCF809184
:101D5000A4028F7ECECF8091A4028F7DCACF8091C6
:101D6000A4028F7BC6CF8091A402877F8B7FC1CFD7
:101D70008091A5028D7F8E7FC5CF8091A40282FBCA
:101D8000222720F991E0922790FB82F990FB83F9BA
:101D9000B0CF8091A502982F909591708E7F892B5E
:101DA00090FB81F9AFCF0E94C2148091A40287FBFF
:101DB000222720F991E0922790FB87F99ACF81E0C2
:101DC0000E94981B8091A4029091A5020E941A1B68
:101DD0000E94C21480E001C081E0DF91CF9108959C
:101DE000CF93DF9386319C4541F5EB010E94281A81
:101DF000982F8A812091000130910101882379F088
:101E00009A7A81E009F480E080939801911102C0F0
:101E100069E201C065E3C9010E94551C0AC08091B6
:101E20009801811102C069E201C065E3C9010E9405
:101E3000601C0E94691A80E001C081E0DF91CF91AF
:101E4000089590939E0180939D010895E0919D01D6
:101E5000F0919E01309721F00190F081E02D0994DE
:101E600080E00895EF92FF921F93CF93DF93FC01E0
:101E7000A0919D01B0919E01109709F442C08091FC
:101E80001401882341F08091A40287FF04C080815F
:101E9000818385E08083EF011296ED91FC91139789
:101EA000CE01099580914E0282FF2BC080FF04C0B5
:101EB00085E493E00E94830718E08FE3E82E83E037
:101EC000F82E80914E0280FF0BC088811F928F9365
:101ED000FF92EF920E941C080F900F900F900F90AE
:101EE000115021961111EDCF80914E0280FF09C053
:101EF0008DE393E0DF91CF911F91FF90EF900C94D1
:101F00008307DF91CF911F91FF90EF900895E091AB
:101F10009D01F0919E01309739F022E0DC012C9375
:101F20000480F581E02D0994089520919B01309162
:101F30009C012817390771F090939C0180939B01B5
:101F4000E0919D01F0919E01309721F00680F7818C
:101F5000E02D099408952091990130919A01281754
:101F6000390771F090939A0180939901E0919D0156
:101F7000F0919E01309721F00084F185E02D0994C5
:101F8000089585B7806885BF85B7806885BF089547
:101F900008950C94C80F0C94C90F0C94C80F0C949E
:101FA000C80F0E94C10F0E94CD0F0C94CB0F81E08F
:101FB00008950E94FE1C0E94AF0C0E94931DE4EA4B
:101FC000F2E08081806880838091A4029091A502D4
:101FD0000E941A1B0C94CF0FCF93C82F80914E02F2
:101FE00082FF1EC080FF04C08EE593E00E9483073D
:101FF00080914E0280FF0CC01F92CF9389E593E041
:102000009F938F930E941C080F900F900F900F903A
:1020100080914E0280FF04C087E593E00E94830711
:102020008C2FCF910C94F6097F928F929F92AF9252
:10203000BF92CF92DF92EF92FF920F931F93CF93B5
:10204000DF93CDB7DEB72A970FB6F894DEBF0FBE89
:10205000CDBF0E94C20C0E94D70F811111C08FEF1B
:1020600089838A831B820E94071D8160782F9D834C
:102070008C8349815A816B818D810E94C4104FC02D
:1020800040EAA42E41E0B42E00E010E0702E802F34
:102090000E94520C6C01F501819091905F0188269D
:1020A00099268114910431F40F5F1F4F06301105FA
:1020B00069F7D5CF80914E0281FD0E945B0C80E0D4
:1020C000EE24E394F12C94012E213F21232B09F1DE
:1020D0008E837F82CE20DF2081E0CD2809F480E04E
:1020E00088870E94071D8160782F9A8789874E8193
:1020F0005F8168858A850E94C410000F111FF80156
:10210000E056FE4F80819181E826F926F182E08237
:1021100006C08F5FEE0CFF1C8F30A9F6C5CF0E9462
:10212000A71F0E94260F90919F018917C9F00E9456
:10213000260F80939F012A960FB6F894DEBF0FBE3C
:10214000CDBFDF91CF911F910F91FF90EF90DF9066
:10215000CF90BF90AF909F908F907F900C94EC0F9A
:102160002A960FB6F894DEBF0FBECDBFDF91CF9198
:102170001F910F91FF90EF90DF90CF90BF90AF90A5
:102180009F908F907F900895CF93DF93CDB7DEB768
:102190002B970FB6F894DEBF0FBECDBF4F83588785
:1021A00069877A878B87DE01119686E0FD0111929F
:1021B0008A95E9F785E0FE01379601900D928A95A0
:1021C000E1F749815A816B817C818D819E810E94DA
:1021D00092172B960FB6F894DEBF0FBECDBFDF91DE
:1021E000CF910895FC01808191810E94E9190895A1
:1021F000CF93882309F4A9C0C82F8238C1F40E9464
:10220000260F81FDA2C069E3809100019091010138
:102210000E94551C0E94691A2FEF81EE94E0215014
:1022200080409040E1F700C0000069E319C08338A6
:1022300001F50E94260F80FD88C063E580910001B2
:10224000909101010E94551C0E94691A2FEF81EEA6
:1022500094E0215080409040E1F700C0000063E529
:1022600080910001909101010E94601CCF910C941B
:10227000691A8438C1F40E94260F82FD66C067E4A3
:1022800080910001909101010E94551C0E94691AE1
:102290002FEF81EE94E0215080409040E1F700C0A4
:1022A000000067E4DDCF8CEF8C0F813AF8F48C2FBF
:1022B0000E94AF24811149C06C2F80910001909140
:1022C00001010E94B31B882349F06C2F809100010B
:1022D000909101010E94601C0E94691A6C2F8091EC
:1022E0000001909101010E94551CC0CF80E28C0F2B
:1022F000883048F4C77081E001C0880FCA95EAF7BA
:102300000E942B1AB3CFEBE5EC0FE33040F4F0E082
:10231000EC58FE4F808190E0CF910C94950FE8E54A
:10232000EC0FE73150F4F0E0EE0FFF1FEA5BFE4FD9
:1023300080819181CF910C94AB0FC03F30F08C2FF6
:102340000E942D1ECF910C941A1FCF9108958823BF
:1023500009F464C0823879F40E94260F81FF5EC0C0
:1023600069E380910001909101010E94551C0E9437
:10237000691A69E310C08338B1F40E94260F80FF08
:102380004DC063E580910001909101010E94551CB0
:102390000E94691A63E580910001909101010E94F9
:1023A000601C0C94691A843879F40E94260F82FF0D
:1023B00035C067E480910001909101010E94551C95
:1023C0000E94691A67E4E7CF9CEF980F913A10F4E6
:1023D000682FE1CF90E2980F983050F4877091E029
:1023E00001C0990F8A95EAF7892F0E94311AD9CF37
:1023F0009BE5980F933020F480E090E00C94950FCB
:1024000098E5980F973120F480E090E00C94AB0FA2
:10241000803F20F00E94951E0C941A1F0895CF93C0
:10242000C82F0E94F810C93349F42FEF87EE93E0CC
:10243000215080409040E1F700C000008C2FCF91E8
:102440000C94A711882321F00E942B1A0C94691A6E
:102450000895882321F00E94311A0C94691A089576
:10246000CF92DF92EF92FF920F931F93CF93DF9360
:102470007C01D62FC72FFC01058102950F701281B8
:1024800011110E94481A0E94211A882379F0112301
:1024900069F080E28D0F883048F082E00E94B31A24
:1024A0000E94211A91E0D82ED92601C0D12CCC2E21
:1024B000C2948FE0C8228C2D90E08C30910508F0FA
:1024C000EDC1FC01EA5AFF4F0C94DB2D8C2F807F6D
:1024D000CF70882311F0C295C07F112399F0CC23CF
:1024E00009F4C8C180E28D0F883010F0D11104C00A
:1024F0008C2F0E942B1A03C08C2F0E943B1A0E9423
:10250000691AB8C18D2F0E94A711CC2309F4C6C146
:1025100080E28D0F883010F0D11104C08C2F0E9402
:10252000311A03C08C2F0E94411A0E94691AB6C149
:102530008C2F807FCF70803211F0C295C07FDD2359
:1025400019F0D130C9F022C0112371F0002341F0FD
:10255000013031F40E944E1A8C2B0E94561A9EC1F3
:102560000E944E1A8C2B1DC0002319F0013009F473
:1025700095C10E945F1A25C0112321F0063008F092
:102580008DC10EC0053008F089C11BC0112361F058
:10259000002331F0F701858180FF6CC18F70858346
:1025A0008C2F0E9422127AC1002359F0D93309F0EE
:1025B00072C1FFEF07EE13E0F15000401040E1F769
:1025C00068C18C2F0E94291269C18C2F869586952F
:1025D000837019F0813061F061C1112321F08D2FDA
:1025E0009C2F937002C080E090E00E94950F5EC126
:1025F000112321F08D2F9C2F937002C080E090E07A
:102600000E94AB0F53C11123F9F0D53F51F0D63FD3
:1026100071F0D43FA9F480919E0290919F02816055
:102620000BC080919E0290919F02826005C08091B4
:102630009E0290919F02846090939F0280939E02DD
:102640008D2F0E942D1E1EC0D53F51F0D63F71F038
:10265000D43FA9F480919E0290919F028E7F0BC07F
:1026600080919E0290919F028D7F05C080919E0275
:1026700090919F028B7F90939F0280939E028D2F5B
:102680000E94951E0E941A1F11C18C2F837009F0A1
:1026900047C0111107C12D2F229526952770220FB3
:1026A000220F6D2F6F70862F90E0A0E0B0E0022E19
:1026B00004C0880F991FAA1FBB1F0A94D2F7D4FF2A
:1026C00010C04FE050E060E070E004C0440F551FC0
:1026D000661F771F2A95D2F74095509560957095A3
:1026E00003C040E050E0BA01C695C695C3708A01A8
:1026F0009B01082B192B2A2B3B2BC901B801C23097
:1027000049F058F4C13019F00E946618CBC00E94FD
:102710005418C8C00E947818C5C00E945218C2C080
:10272000112319F08C2F817001C08695882309F43C
:10273000B9C02D2F229526952770220F220F6D2FBD
:102740006F70862F90E0A0E0B0E0022E04C0880FEA
:10275000991FAA1FBB1F0A94D2F7D4FF10C04FE0E5
:1027600050E060E070E004C0440F551F661F771F03
:102770002A95D2F7409550956095709503C040E03A
:1027800050E0BA01C695C695C3708A019B01082B1B
:10279000192B2A2B3B2BC901B801C23049F058F440
:1027A000C13019F00E942B197DC00E9419197AC0FE
:1027B0000E943D1977C00E948C1874C0CF701123FD
:1027C00039F08C2F0E94B2188D2F0E9422126AC0FD
:1027D0008D2F0E9429128C2F0E94D31863C0D23FE4
:1027E00001F128F4D03F41F0D13FA1F03FC0D33FE9
:1027F000F9F0D43F39F13AC0112341F0053008F027
:102800004DC08C2F8F710E94F81848C0063008F018
:1028100045C0F7CF112339F08C2F8F710E94B21869
:102820003DC01123C9F38C2F8F710E94D31836C07D
:10283000112329F08C2F8F710E949D182FC00E94A8
:1028400098182CC0112349F0CF718C2F0E94B21818
:1028500063E08C2F0E949E1A21C081E00E94B31A6F
:102860000230E0F082E00E94B31A18C0112331F068
:10287000002391F28D2F0E94F81010C0002399F2CE
:10288000D93349F41FEF27EE33E011502040304098
:10289000E1F700C000008D2F0E94A71188EF8C0D7A
:1028A000843020F40E94260F0E94F609DD20C9F032
:1028B0000E941D1A80FD15C0F70112820E94171A8E
:1028C0000E94B218C7010E947A140E94171ADF9161
:1028D000CF911F910F91FF90EF90DF90CF900C94CC
:1028E000D318DF91CF911F910F91FF90EF90DF9060
:1028F000CF9008950F931F93CF93DF93EC019881AE
:1029000089812B813C81232B31F08F3F31F481E091
:102910009F3F19F403C081E001C080E080FD13C037
:10292000CE010E940F0A882371F0688179818A8123
:102930000E94F4198C010E944F190E944018B8019E
:10294000CE010E943012DF91CF911F910F91089517
:102950000E94481A0E944B1A0E94691A0E94C620BF
:102960000E941A1F80E090E00E94950F80E090E0A6
:102970000C94AB0F80910001909101010E946B1C9F
:102980000C94A8140E94381A0C94BA14E92FE295FA
:10299000EF704E2F50E0FA013297EE30F105B0F4AF
:1029A000EE59FF4F0C94DB2D803F91F018F4883ED8
:1029B00068F40EC0843F51F40BC0883E48F0813F5C
:1029C00029F406C093FB882780F9089580E00895D4
:1029D00081E008950E94E9190E94C6140895CF93DA
:1029E000DF9300D000D01F92CDB7DEB70F900F90CD
:1029F0000F900F900F90DF91CF910895CF93DF93B9
:102A000000D000D000D0CDB7DEB726960FB6F89430
:102A1000DEBF0FBECDBFDF91CF9108951F93CF933F
:102A2000DF93C091AD0116E08091AE01C81799F017
:102A3000D0E01C9FF0011D9FF00D1124E155FE4FC9
:102A40004081518162817381848195810E94FE144D
:102A50002196C770E9CFDF91CF911F9108954091E2
:102A6000DF015091E0016091E1017091E2018091FC
:102A7000E3019091E4010C94FE14CF938091E40162
:102A800082958F7009F05FC08091E101882309F47D
:102A90005AC08091AD01B091AE017091DF01A0915B
:102AA000E0014091E2015091E30191E07F3F09F0A4
:102AB00090E0692FC6E08B1709F445C04115510518
:102AC00021F0AF3F21F020E003C021E001C0262F1C
:102AD00090E020FD35C0C89FF001C99FF00D112482
:102AE000E155FE4F21812A132BC02081271328C0D6
:102AF0002281211125C0238134812417350710F448
:102B000021503109241B350B283C3105C8F4209194
:102B1000E4012F7020612093E40126E0289FF0015A
:102B2000299FF00D1124EC54FE4F80818F7080613D
:102B300080838FED91E00E947A14CF910C940E1552
:102B400001968770B8CFCF910895AF92BF92CF9280
:102B5000DF92EF92FF920F931F93CF93DF93CDB746
:102B6000DEB761970FB6F894DEBF0FBECDBF8C0104
:102B700085E0F801DE011D9601900D928A95E1F73E
:102B8000D8014C9111965C9111971296EC9030916E
:102B9000DF016091E0018091E2019091E3010097F3
:102BA00031F06F3F31F421E03F3F19F403C021E0E1
:102BB00001C020E0B22FB170BB2E20FD60C1F80132
:102BC000C380D480A090E101AA2009F4EEC0209136
:102BD000E401C816D90628F0D601A81BB90BCD010F
:102BE00004C0809590958C0D9D1DFF24F394883C26
:102BF000910580F0F12C207F09F09CC07C2DD98AB2
:102C0000C88A6E2D89890E94EF148FED91E00E9491
:102C10007A142DC1822F807F09F054C0561314C03E
:102C2000431312C0FE2CE1100FC02F7020612093BF
:102C3000E4010E942F158FED91E00E947A1480919B
:102C4000E401F80185835CC1CD2831F05F3F31F4A8
:102C500081E04F3F19F403C081E001C080E080FDB6
:102C600003C081E08E2502C080E090E0F82FF17073
:102C7000FF2E80FF1CC08091AD012091AE0136E097
:102C8000821709F41AC190E0389FF001399FF00DC6
:102C90001124E155FE4F6181561306C06081461331
:102CA00003C06281E61203C001968770E9CFFE2C53
:102CB000EE2009F425C18091E40181608093E40154
:102CC000F12C1EC1561309C0431307C0E11005C003
:102CD0008091E401F8018583A4C04D875E878D85CE
:102CE0009E850E94EA14882379F1EE2069F12091F3
:102CF000E401822F82958F7090E0029774F08091AA
:102D0000DF019091E00198878F831986DB86CA8660
:102D10002C87CE0107960E947A1486E0F801AFED69
:102D2000B1E001900D928A95E1F70E943D150E9455
:102D30002F150DC0561771F04D875E878D859E85C6
:102D40000E94EA1481111AC0C8010E947A14FF245B
:102D5000F394D6C04313F0CFE110EECF8091E4019D
:102D6000F8018583C8010E947A1486E0EFEDF1E056
:102D7000DF011D928A95E9F7FA2CC2C0EE2021F3FB
:102D80002091E401822F82958F7090E002972CF2BF
:102D90008091DF019091E0019A8389831B82DD821B
:102DA000CC822E83CE010196B6CFC816D90628F064
:102DB000F601E81BF90BCF0104C0809590958C0DAE
:102DC0009D1D883C910548F0F12C7C2DD98AC88A3C
:102DD0006E2D89890E94EF144AC0FE2CEE2009F462
:102DE000B3CF561333C0431331C02091E40120FD0B
:102DF00024C0822F82958F70482F50E041155105D5
:102E0000E1F0D80115962C9315974F30510549F0F4
:102E10008F5F982F9295907F822F8F70892B1596B8
:102E20008C93C8010E947A1486E0F801AFEDB1E0FE
:102E300001900D928A95E1F73DC086E0F801AFED73
:102E4000B1E001900D928A95E1F75AC04D875E87F7
:102E50008D859E850E94EA1481115FCF8091E401E7
:102E600081608093E401C8010E947A1449C0EFEDAB
:102E7000F1E086E0DF011D928A95E9F71BC0EE20A4
:102E800009F462CF4D875E878D859E850E94EA1486
:102E9000F82E882309F458CF86E0F801AFEDB1E0B1
:102EA00001900D928A95E1F78FED91E00E94F2106A
:102EB0000E943D150E942F1523C04D875E878D858A
:102EC0009E850E94E919292F22952F70223028F41F
:102ED0009F7039F0811105C00BC0243028F49F7019
:102EE00049F4805E883020F0C8010E947A14BF2C1B
:102EF000FB2C06C0D80115969C91907F91F7F8CFD6
:102F00008F2D61960FB6F894DEBF0FBECDBFDF9157
:102F1000CF911F910F91FF90EF90DF90CF90BF90D6
:102F2000AF9008951F93CF93DF93CDB7DEB72C9763
:102F30000FB6F894DEBF0FBECDBF4F8358876987A9
:102F40007A878B879C87CE0107960E94A5158823D8
:102F5000D1F09F8188852A853B85232B31F08F3FD7
:102F600031F481E09F3F19F403C081E001C080E0AB
:102F700080FD47C04F81588569857A858B859C8502
:102F80000E94FE143EC086E0FE013796DE011196D7
:102F900001900D928A95E1F7FF81E8856A857B852E
:102FA0006115710531F0EF3F31F481E0FF3F19F415
:102FB00003C081E001C080E080FD23C02091AE010C
:102FC00030E0C9010196877099274091AD0150E02A
:102FD00084179507F1F1F983EA837D836C8396E08A
:102FE000929FD001939FB00D1124A155BE4FFE01B9
:102FF000319601900D929A95E1F78093AE010E946F
:103000000E1516E08091AD019091AE01891771F116
:10301000189FC001112481559E4F0E94A515882339
:1030200029F1E091AD011E9FF0011124E155FE4F01
:103030004081518162817381848195810E94FE1457
:103040008091AD0190E00196877099278093AD0142
:10305000D9CF0E94C2141092AE011092AD01EFEDD3
:10306000F1E086E0DF011D928A95E9F72C960FB614
:10307000F894DEBF0FBECDBFDF91CF911F910895B1
:10308000089508950C9441180C9442180E94441815
:103090006093250270932602809327029093280262
:1030A0000C94A8140C9446180F931F9300912502BA
:1030B000109126022091270230912802602B712B5B
:1030C000822B932B1F910F910C9446180F931F93F3
:1030D00000912502109126022091270230912802AA
:1030E00060237123822393231F910F910C94461820
:1030F0000F931F9300912502109126022091270221
:103100003091280260277127822793271F910F9102
:103110000C9446180C9441180E948A18609321025E
:103120007093220280932302909324020C94A8149B
:1031300060E070E0CB010C948C180F931F9341E07A
:1031400050E060E070E08A019B0104C0000F111F95
:10315000221F331F8A95D2F7C901B8011F910F9121
:103160000C948C180F931F9341E050E060E070E0E6
:1031700004C0440F551F661F771F8A95D2F78091B0
:10318000210290912202A0912302B09124028A018F
:103190009B01082B192B2A2B3B2BC901B8011F912E
:1031A0000F910C948C180F931F9341E050E060E056
:1031B00070E004C0440F551F661F771F8A95D2F731
:1031C00040955095609570958091210290912202D2
:1031D000A0912302B09124028A019B0108231923A4
:1031E0002A233B23C901B8011F910F910C948C181D
:1031F0000F931F9341E050E060E070E004C0440F83
:10320000551F661F771F8A95D2F7809121029091F2
:103210002202A0912302B09124028A019B01082777
:1032200019272A273B27C901B8011F910F910C9438
:103230008C180F931F93009121021091220220916C
:10324000230230912402602B712B822B932B1F9130
:103250000F910C948C180F931F93009121021091E1
:1032600022022091230230912402602371238223C1
:1032700093231F910F910C948C180F931F9300911F
:103280002102109122022091230230912402602712
:103290007127822793271F910F910C948C18089502
:1032A0002FE0929F800D1124E82FE695E695E69594
:1032B000877051E001C0550F8A95EAF785E0E89FD5
:1032C000F0011124EB51FE4F20E030E070E040812E
:1032D000CB01022E02C0969587950A94E2F7817081
:1032E000819584278523842781932F5F3F4F253045
:1032F000310569F708952FE0929F800D1124682F02
:10330000669566956695982F977085E0689FB001E1
:10331000112440E050E080E0FB01E40FF51FEB5189
:10332000FE4F208130E0092E02C0369527950A9481
:10333000E2F721703327042E01C0220F0A94EAF726
:10334000822B4F5F5F4F4530510531F70895BF9293
:10335000CF92DF92EF92FF920F931F93CF93DF9361
:103360008C01C0902102D0902202E0902302F090C4
:1033700024028091250290912602A0912702B0910B
:103380002802C82AD92AEA2AFB2ACFE1D0E0D701AD
:10339000C6010C2E04C0B695A795979587950A94FB
:1033A000D2F780FD04C0219790F7B12C07C0BC2E46
:1033B000B8018C2F0E94790A0197A9F38B2DDF9118
:1033C000CF911F910F91FF90EF90DF90CF90BF9022
:1033D0000895CF93DF93EC010E94A719BE010E94CC
:1033E000790ADF91CF9108951F93CF93DF93EB017B
:1033F0009091AC01992321F0CB010E94E91913C0EF
:10340000882349F0CB010E94A719182F682FCE01FD
:103410000E94501904C0CB010E947B19182FBE01D5
:10342000812F0E94790ADF91CF911F910895809199
:103430002902859585958595089580912902877043
:10344000089590912902977081E009F480E0089531
:1034500080914D02089590914D02892B80934D02E9
:103460000895809590914D02892380934D0208958F
:1034700010924D02089590914C02892B80934C023A
:103480000895809590914C02892380934C02089571
:1034900010924C02089510924B02089580912A02D6
:1034A000089508950C94511A0C94521A90912A027E
:1034B000981721F080932A020C94541A0895809151
:1034C0002A02882329F010922A0280E00C94541AD0
:1034D0000895E0910001F091010180914D028083F7
:1034E000E0910001F0910101908180914C02892BC3
:1034F0008083E0910001F0910101908180914B0265
:10350000892B808380912A02882381F0E091000139
:10351000F09101019081892B80838091000190912D
:1035200001010E949D1B81110E945F1A8091000180
:10353000909101010C94320F0C94511A98E0899FDC
:1035400090011124262B209329020E94B218809109
:1035500029028595859585950C949C1A10922902CF
:1035600080E00C949C1A20912902809582238093FC
:103570002902982F977079F430E0482F082E000C1C
:10358000550B2417350739F08595859585950E944B
:10359000D3180C94AE1A08959093910180939001E2
:1035A00008958295982F937344E0949F900111247D
:1035B0008C7C86958695282B822F8575880F2A7A94
:1035C0002695822B0895CF93DF93D92F0E94D11A8D
:1035D000C82F8D2F0E94D11A2C2F30E0322F222796
:1035E000A901482BCA01DF91CF91089580E090E0B6
:1035F0000E94FD2D21E08C3E9E4F09F020E0822F9D
:10360000089582E090E00C94F52D83E090E00C9416
:10361000F52DCF9384E090E00E94F52DC82F81E234
:1036200090E00E94F52D2C2F30E0A901582BCA0103
:10363000CF910895CF93C92F682F84E090E00E9426
:10364000032E6C2F81E290E0CF910C94032EAB01FE
:10365000BC018FE090E00C94152EAB01BC0183E11E
:1036600090E00C94152E60E070E0CB010C942D1BC3
:1036700060E070E0CB010E94271B0C94331B6CEEC2
:103680007EEF80E090E00E94212E60E082E090E0FA
:103690000E94032E60E083E090E00E94032E1092CF
:1036A000250210922602109227021092280260E052
:1036B00084E090E00E94032E60E081E290E00E94AE
:1036C000032E60E085E090E00E94032E60E086E03B
:1036D00090E00E94032E6FEF87E090E00E94032E9F
:1036E00040E050E0BA0188E090E00E94152E60E0D2
:1036F0008DE090E00E94032E40E050E0BA0188E1A6
:1037000090E00E94152E60E087E190E00E94032E79
:1037100040E050E0BA018CE190E00E94152E60E09C
:1037200080E290E00E94032E0C94381B0C943F1B07
:10373000682F8EE090E00C94032EFC01329680916D
:103740001401882331F08091A40287FF02C09EE11A
:1037500001C096E080E0915028F021912223D9F316
:103760008F5FF9CF0895662351F120911401222330
:10377000E9F02091A40227FF19C0462F46954695EF
:1037800046954E31E0F4677021E030E002C0220F30
:10379000331F6A95E2F7FC01E40FF11D828190E08E
:1037A0002823392381E0232B69F409C0FC013296D8
:1037B00008962191621729F0E817F907D1F780E000
:1037C000089581E008959C01FC0132969FEF80E00E
:1037D0004191461789F09F3F19F4411101C0982F7C
:1037E0008F5F8630A9F79F3F39F0F901E90FF11D8E
:1037F00097FDFA956283089508959C012A5F3F4FD3
:10380000FC014281461301C0128201968217930780
:10381000B9F70895262F2695269526952E3170F412
:10382000FC01E20FF11D677021E030E001C0220FC2
:103830006A95EAF78281282B2283089580914E02AF
:1038400080FF0CC01F926F938FE893E09F938F933C
:103850000E941C080F900F900F900F900895262F34
:103860002695269526952E3178F4FC01E20FF11D60
:10387000677021E030E001C0220F6A95EAF72095D9
:10388000828128232283089580914E0280FF0CC0FC
:103890001F926F9381E793E09F938F930E941C0880
:1038A0000F900F900F900F900895209114012223F4
:1038B00029F02091A40227FD0C940A1C0C94E31B10
:1038C00020911401222329F02091A40227FD0C94B9
:1038D0002F1C0C94FD1B20911401FC013296222315
:1038E00031F08091A40287FF02C08EE101C086E022
:1038F000DF011D928A95E9F7089508950C947D1CC7
:103900000C947D1CCF930E94801C0E94C20C0E94CC
:103910007E1CC0E08C2F0E94520C892B29F4CF5FB3
:10392000C630C1F780E001C081E0CF9108950C94CA
:103930007D1C0C94971C0E94991C8091AA028430D3
:1039400049F110924F0220E488E190E00FB6F8941C
:10395000A895809360000FBE2093600080E00E94D5
:10396000F6090E94991C83B7817F846083BF83B767
:10397000816083BF7894889583B78E7F83BF0FB6AD
:10398000F894A895809160008861809360001092FF
:1039900060000FBE08950C947D1C0E94C2140E940A
:1039A000260F0E94F6090C94CB1C1F920F920FB6A3
:1039B0000F9211248F939F93AF93BF9380914F02E7
:1039C000811113C08091A0029091A102A091A20246
:1039D000B091A3024196A11DB11D8093A0029093C6
:1039E000A102A093A202B093A302BF91AF919F91B5
:1039F0008F910F900FBE0F901F90189582E084BD9D
:103A000093E095BD9AEF97BD80936E0008952FB710
:103A1000F8948091A0029091A102A091A202B0918D
:103A2000A3022FBF08952FB7F8946091A002709160
:103A3000A1028091A2029091A3022FBF0895CF927C
:103A4000DF92EF92FF920F931F932FB7F89440915C
:103A5000A0025091A1026091A2027091A3022FBF17
:103A60006A017B01EE24FF248C0120E030E0C016C7
:103A7000D106E206F30610F4415051099A01281BC1
:103A8000390BC9011F910F91FF90EF90DF90CF90FC
:103A9000089578941F920F920FB60F9211248F936E
:103AA0009F93AF93BF938091A0029091A102A091A8
:103AB000A202B091A3020196A11DB11D8093A002A4
:103AC0009093A102A093A202B093A302BF91AF91E1
:103AD0009F918F910F900FBE0F901F90189581E0CE
:103AE0008093E00080E28093D8001092C9008FE1BB
:103AF0009EE40197F1F700C0000087E090EBDC0145
:103B00008093B3029093B402A093B502B093B6022F
:103B10009CE088E10FB6F894A895809360000FBEF2
:103B200090936000FFCF0E94F61A811102C00E949C
:103B3000961B0E94011B80934E020E94091B9093CA
:103B4000A5028093A4020E94051B682F70E080E00C
:103B500090E00C9452188091570280FF0BC0609146
:103B6000070185E0689FB0011124759567957595EB
:103B700067952BC081FF09C06091070185E0689FB0
:103B8000B00111247595679520C082FF07C0609130
:103B9000070185E0689FB001112417C0909156027B
:103BA0009923D1F060910601961788F720910701BB
:103BB00085E0289F90011124929FA001939F500DB2
:103BC000112470E0CA010E94C72D6038710540F4CD
:103BD0006115710519F406C065E070E0862F08953F
:103BE0008FE7089581E008958091570280FF08C013
:103BF0006091030170E0759567957595679521C093
:103C000081FF06C06091030170E07595679519C04A
:103C100082FF04C06091030170E010C090915602D1
:103C2000992399F0609102019617A0F78091030102
:103C3000899FC001112470E00E94C72D6038710572
:103C400040F46115710519F406C061E070E0862F3B
:103C500008958FE7089581E00895803F21F40E9440
:103C6000AB1D819504C0813F29F40E94AB1D809358
:103C70005B020895823F21F40E94AB1D819504C030
:103C8000833F29F40E94AB1D80935A020895893F17
:103C900019F40E94F41D05C08A3F31F40E94F41DFE
:103CA000819580935C0208958B3F21F40E94F41D5E
:103CB000819504C08C3F29F40E94F41D80935D021D
:103CC0000895843F21F480915902816017C0853F97
:103CD00021F480915902826011C0863F21F48091C5
:103CE000590284600BC0873F21F48091590288609B
:103CF00005C0883F31F48091590280618093590258
:103D000008958D3F21F48091570281600BC08E3F52
:103D100021F480915702826005C08F3F29F4809181
:103D200057028460809357020895803F39F4809150
:103D30005B0287FF6CC010925B0269C0813F29F46F
:103D400080915B021816BCF362C090915A02823FC8
:103D500029F497FF5CC010925A0259C0833F19F4AE
:103D60001916CCF354C0893F41F480915C021816B7
:103D70000CF04DC010925C024AC08A3F29F4809139
:103D80005C0287FF44C0F6CF8B3F39F480915D021F
:103D900087FF3DC010925D023AC08C3F29F48091AC
:103DA0005D021816BCF333C0843F21F480915902A0
:103DB0008E7F17C0853F21F4809159028D7F11C0FD
:103DC000863F21F4809159028B7F0BC0873F21F4FD
:103DD00080915902877F05C0883F31F48091590254
:103DE0008F7E8093590213C08D3F21F4809157023A
:103DF0008E7F0BC08E3F21F4809157028D7F05C0CE
:103E00008F3F29F4809157028B7F809357028091D6
:103E10005A0281110EC080915B0281110AC080910B
:103E20005C02811106C080915D02811102C0109276
:103E30005602089580914E0283FF7EC084ED93E088
:103E40000E948307809159021F928F938FEC93E019
:103E50009F938F930E941C088DEC93E00E94830730
:103E600080915A02282F082E000C330B3F938F931A
:103E70008AEC93E09F938F930E941C0888EC93E058
:103E80000E94830780915B02282F082E000C330BC1
:103E90003F938F9385EC93E09F938F930E941C0830
:103EA00083EC93E00E94830780915C02282F082E08
:103EB000000C330B3F938F9380EC93E09F938F9391
:103EC0000E941C088EEB93E00E94830780915D02A4
:103ED000282F082E000C330B3F938F938BEB93E02E
:103EE0009F938F930E941C0888EB93E00E948307A6
:103EF000809156021F928F9385EB93E09F938F934F
:103F00000E941C0883EB93E00E9483078091570274
:103F10001F928F9380EB93E09F938F930E941C08D6
:103F20008DEA93E00E9483078DB79EB74C960FB63B
:103F3000F8949EBF0FBE8DBF88E592E00E94870F68
:103F40000E94071D90935502809354020895CF93C9
:103F5000DF9300D000D000D0CDB7DEB786E0E8E533
:103F6000F2E0DE01119601900D928A95E1F78091C1
:103F70005A02811105C080915B02882309F47AC03E
:103F800080915202909153020E941F1DAC019091AA
:103F90005602992339F02091080130E024173507A3
:103FA00058F068C0209109018AE0289F90011124EF
:103FB0002417350718F05EC09F3F19F09F5F90935C
:103FC000560210925C0210925D0280915A021816FD
:103FD00024F40E94AB1D80935A0280915A0287FFFD
:103FE00005C00E94AB1D819580935A0280915B02AF
:103FF000181624F40E94AB1D80935B0280915B0233
:1040000087FF05C00E94AB1D819580935B023091B4
:104010005A023323E1F020915B022223C1F045EBE9
:104020003403C0011124992319F090935A0203C05C
:1040300081E080935A0235EB2303C00111249923B8
:1040400019F090935B0203C081E080935B020E94B1
:104050001A1F8091540290915502909353028093BD
:10406000520286E0FE013196A8E5B2E001900D9281
:104070008A95E1F780915C02811105C080915D0213
:10408000882309F47AC080915002909151020E94D5
:104090001F1DAC0190915602992339F02091040123
:1040A00030E02417350758F068C0209105018AE0F8
:1040B000289F900111242417350718F05EC09F3FF8
:1040C00019F09F5F9093560210925A0210925B0271
:1040D00080915C02181624F40E94F41D80935C0207
:1040E00080915C0287FF05C00E94F41D819580933A
:1040F0005C0280915D02181624F40E94F41D8093E6
:104100005D0280915D0287FF05C00E94F41D8195CC
:1041100080935D0230915C023323E1F020915D02D7
:104120002223C1F045EB3403C0011124992319F077
:1041300090935C0203C081E080935C0235EB230323
:10414000C0011124992319F090935D0203C081E00E
:1041500080935D020E941A1F809154029091550233
:10416000909351028093500286E0FE013196A8E5BB
:10417000B2E001900D928A95E1F726960FB6F89479
:10418000DEBF0FBECDBFDF91CF910895E8E5F2E02D
:1041900086E0DF011D928A95E9F71092560210928F
:1041A0005702089587EF95E00E9483071F9281E0F0
:1041B0008F931F9285E08F9389EA95E09F938F9369
:1041C0000E941C080F900F900F900F900F900F906F
:1041D00008958330E9F128F4813061F0823009F1EB
:1041E0000895853009F462C008F449C0863009F4A6
:1041F00074C0089580910901262F30E0280F311DE9
:104200002F3F310524F4680F6093090103C08FEF3D
:1042100080930901809109011F928F9382EE94E0AF
:1042200072C080910801262F30E0280F311D2F3FEA
:10423000310524F4680F6093080103C08FEF809369
:104240000801809108011F928F9380ED94E05BC07C
:1042500080910701262F30E0280F311D2F3F3105B7
:1042600024F4680F6093070103C08FEF8093070168
:10427000809107011F928F938DEB94E044C0809151
:104280000601262F30E0280F311D2F3F310524F481
:10429000680F6093060103C08FEF80930601809141
:1042A00006011F928F9388EA94E02DC0809103014C
:1042B000262F30E0280F311D2F3F310524F4680FE1
:1042C0006093030103C08FEF80930301809103018A
:1042D0001F928F938FE894E016C080910201262FE1
:1042E00030E0280F311D2F3F310524F4680F609313
:1042F000020103C08FEF80930201809102011F929F
:104300008F9384E794E09F938F930E941C080F90F3
:104310000F900F900F900895833081F128F4813031
:1043200059F08230D1F00895853009F449C0B8F1D0
:10433000863009F456C0089580910901681720F469
:10434000861B8093090102C0109209018091090126
:104350001F928F9385E694E054C0809108016817FE
:1043600020F4861B8093080102C0109208018091FE
:1043700008011F928F9383E594E043C08091070169
:10438000681720F4861B8093070102C01092070172
:10439000809107011F928F9380E494E032C0809156
:1043A0000601681720F4861B8093060102C0109254
:1043B0000601809106011F928F938BE294E021C049
:1043C00080910301681720F4861B8093030102C0CB
:1043D00010920301809103011F928F9382E194E078
:1043E00010C080910201681720F4861B809302019F
:1043F00002C010920201809102011F928F9387EFF9
:1044000093E09F938F930E941C080F900F900F9042
:104410000F900895CF93C82F1F928F938CEF96E043
:104420009F938F930E941C0881E090E0A0E0B0E091
:10443000BC01CD0104C0660F771F881F991FCA9564
:10444000D2F70E9452180F900F900F900F90CF91BB
:104450000C94C214CF93DF93482F50E0FA013597A4
:10446000EF33F10508F063C2E059FF4F0C94DB2DE8
:1044700089E79CE00E94830785EB9BE00E9483070D
:104480000E94051B1F928F9382EB9BE09F938F935B
:104490000E941C0880EB9BE00E9483070E94011B86
:1044A000C82F8DE99BE00E9483071F92CF9388E974
:1044B0009BE09F938F930E941C0886E99BE00E94DB
:1044C00083078CE89BE00E9483078C2F81701F92EA
:1044D0008F9389E89BE09F938F930E941C0887E845
:1044E0009BE00E9483078DE79BE00E948307C1FB4E
:1044F000882780F91F928F938AE79BE09F938F9381
:104500000E941C0888E79BE00E9483078CE69BE0E2
:104510000E948307C2FB882780F91F928F9389E648
:104520009BE09F938F930E941C0887E69BE00E946C
:1045300083078EE59BE00E948307C3FBCC27C0F96D
:104540001F92CF938BE59BE09F938F930E941C0853
:1045500089E59BE00E9483070E94091BEC0185E42A
:104560009BE00E948307DF93CF9380E49BE09F93BF
:104570008F930E941C088EE39BE00E94830785E2D4
:104580009BE00E9483078C2F81701F928F9382E2A1
:104590009BE09F938F930E941C088DB79EB78096D7
:1045A0000FB6F8949EBF0FBE8DBF80E29BE00E94C5
:1045B000830789E09BE00E948307C1FB882780F97D
:1045C0001F928F9386E09BE09F938F930E941C081D
:1045D00084E09BE00E94830782EF9AE00E948307B9
:1045E0008D2F81701F928F938FEE9AE09F938F9300
:1045F0000E941C088DEE9AE00E9483078BED9AE0E2
:104600000E948307D695D1701F92DF9388ED9AE0C0
:104610009F938F930E941C0886ED9AE00E94830767
:1046200084EC9AE00E948307C2FB882780F91F92DE
:104630008F9381EC9AE09F938F930E941C088FEBDD
:104640009AE00E9483078DEA9AE00E948307C3FBE9
:10465000882780F91F928F938AEA9AE09F938F931D
:104660000E941C0888EA9AE00E9483078EE99AE07B
:104670000E948307C4FB882780F91F928F938BE9E0
:104680009AE09F938F930E941C0889E99AE00E9408
:10469000830787E89AE00E948307C5FB882780F993
:1046A0001F928F9384E89AE09F938F930E941C0837
:1046B00082E89AE00E94830786E69AE00E948307D8
:1046C000C6FB882780F91F928F9383E69AE09F9319
:1046D0008F930E941C088DB79EB780960FB6F894F2
:1046E0009EBF0FBE8DBF81E69AE00E94830789E5D9
:1046F0009AE00E948307C7FBCC27C0F91F92CF9393
:1047000086E59AE09F938F930E941C0884E59AE0C7
:104710000E9483070F900F900F900F9006C088E6BD
:104720009CE00E9483070E94961BC1E005C182EABB
:1047300098E07FC080914E02817F8E7F80934E02F1
:104740008BE798E00E94830784E69CE00E94830741
:1047500081E080935F02E9CF0E94C21488E49CE06C
:104760000E9483079FEF23ED80E39150204080401B
:10477000E1F700C000000E946F1DD7CF80914E026C
:10478000C82FC095C170C0FB80F980934E02CC2326
:1047900019F08CE39CE0BDC08FE29CE00E9483078F
:1047A00080914E02897F877F80934E02BECF909189
:1047B0004E0291FBCC27C0F981E0C827892FC0FBAE
:1047C00081F980934E02CC2319F082E29CE027C04D
:1047D00084E19CE02EC090914E0292FBCC27C0F960
:1047E00081E0C827892FC0FB82F980934E02CC2339
:1047F00019F085E09CE013C085EF9BE01AC0909112
:104800004E0293FBCC27C0F981E0C827892FC0FB5B
:1048100083F980934E02CC2351F089EE9BE00E94F5
:10482000830780914E02816080934E0285C08CED9B
:104830009BE00E94830779CF8CE698E00E94830773
:1048400083E598E00E94830781E298E00E94830755
:1048500088EE97E00E9483078DEA97E00E94830725
:1048600082E897E0E6CF84E797E00E9483070E9402
:10487000260F1F928F938AE597E09F938F930E9454
:104880001C08809114011F928F9383E497E09F93FB
:104890008F930E941C08809184021F928F9380E363
:1048A00097E09F938F930E941C088091A40287FB3E
:1048B000882780F91F928F9388E197E09F938F93C9
:1048C0000E941C080E94131D9F938F937F936F93E8
:1048D00081E097E09F938F930E941C088DB79EB74D
:1048E00046960FB6F8949EBF0FBE8DBF1ECF0E9496
:1048F000C2149091A40297FBCC27C0F981E0C8278D
:10490000892FC0FB87F98093A402CC2329F082ED84
:104910009BE00E94830710C087EC9BE08ACF8953FD
:1049200003C08D5101C080E00E940A22FECE85ECBA
:104930009BE00E948307C0E08C2FDF91CF91089508
:1049400080E008950C94A0248E518A3030F4E82F32
:10495000F0E0E958FE4F8081089580E00895CF93FC
:10496000C82F80915F02813059F020F0823009F425
:1049700045C039C10E94281A823209F036C104C0EC
:104980000E94281A823261F48C2F0E94A224811185
:1049900004C08C2F0E942A222FC081E090E02CC0FE
:1049A0008C2F0E94A024811126C0C431E1F070F444
:1049B000CB3081F0C031D1F40E94D22084EF96E058
:1049C0000E94830782E080935F0215C0C93259F0CC
:1049D000C83361F48BE798E00E94830788EF96E084
:1049E0000E94830708C010925F0201C182EF96E027
:1049F0000E948307FCC081E08170FBC0C43228F5AF
:104A0000CE3108F0C1C0CB30A1F1D0F4C73009F0ED
:104A1000D0C08EE18093090182E3809308018AE08F
:104A20008093070184E18093060188E0809303016D
:104A300088E28093020188E995E00E948307BCC068
:104A4000C33149F1C431C1F0B4C0CB3409F4A6C0BC
:104A500028F4C93289F0C83361F0ABC0C13509F41C
:104A60009BC0C23509F496C0CE3409F0A2C06AE0FA
:104A70009BC00E94D220A0C080915E02882319F0C2
:104A800010925E0299C085EA95E00E94830781E05A
:104A900080935F02AEC08FE795E00E9483078DE6AA
:104AA00095E00E948307809109011F928F938AE607
:104AB00095E09F938F930E941C0888E695E00E94E2
:104AC000830786E595E00E948307809108011F9285
:104AD0008F9383E595E09F938F930E941C0881E557
:104AE00095E00E94830782E495E00E94830780910D
:104AF00007011F928F938FE395E09F938F930E94FE
:104B00001C088DE395E00E9483078CE295E00E94EB
:104B10008307809106011F928F9389E295E09F930E
:104B20008F930E941C0887E295E00E94830782E130
:104B300095E00E948307809103011F928F938FE07D
:104B400095E09F938F930E941C088DE095E00E9452
:104B5000830786EF94E00E948307809102011F92F1
:104B60008F9383EF94E09F938F930E941C0881EFB3
:104B700094E00E9483078DB79EB748960FB6F894CD
:104B80009EBF0FBE8DBF18C08C2F0E94A42480939F
:104B90005E0212C061E003C061E006C06AE080917D
:104BA0005E020E94E92008C080915E020E948C2172
:104BB00003C086E995E013C080915E02882369F006
:104BC0001F928F9380E995E09F938F930E941C081A
:104BD0000F900F900F900F9004C08DE895E00E9409
:104BE000830781E006C010925F0280E002C080E08F
:104BF00003CFCF9108958091830208959FB7F894D1
:104C0000109262029FBF9091AA02943009F057C09F
:104C10009091E9009F703091EC00232F217030FDBE
:104C200020E8922B23E02093E9002091EB0020FF65
:104C300043C02091EE0027FF3FC020916002222355
:104C400021F02091E80025FF37C01092600226E095
:104C50003091E80035FD15C03091AA02343061F57D
:104C60003091EB0035FD28C0215021F481E0809384
:104C7000600222C0EFE9FFE03197F1F700C00000C9
:104C8000E7CF8093F1008091E80085FD0AC0809114
:104C9000E80080FFFCCF8091E8008E778093E800E9
:104CA00006C08FB7F89421E0209362028FBF9F70F7
:104CB0009093E90080E008959F709093E9008FEF52
:104CC0000895CF93DF9300D01F92CDB7DEB79091B8
:104CD000AA02943019F589837B836A8382E08093EA
:104CE000E9008FEF9091E800815095FD06C095EDA9
:104CF0009A95F1F700008111F5CF8091E80085FFCA
:104D00000DC040E050E063E070E0CE0101960E94EB
:104D10001E298091E8008E778093E8000F900F9015
:104D20000F90DF91CF910895CF93DF93EC010E9414
:104D30000129823011F0843031F4BE0184E0DF912A
:104D4000CF910C946126DF91CF910895BC0183E04F
:104D50000C946126CF93DF93EC010E9401298230ED
:104D600011F08430F9F482E08093E9008FEF9091A4
:104D7000E800815095FD06C095ED9A95F1F7000089
:104D80008111F5CF8091E80085FF0CC040E050E034
:104D900066E070E0CE010E941E298091E8008E77C7
:104DA0008093E800DF91CF910895CF93DF93EC01DA
:104DB0000E940129823011F08430D9F580911401CC
:104DC000882339F08091A40287FF03C060E282E06B
:104DD00002C068E081E08093E9008FEF9091E800E5
:104DE000815095FD06C095ED9A95F1F7000081116F
:104DF000F5CF8091E80085FF1CC0809114018111DE
:104E000005C040E050E068E070E003C070E040E0C2
:104E100050E0CE010E941E298091E8008E77809399
:104E2000E80080E2FE01A3E6B2E001900D928A95CF
:104E3000E1F7DF91CF91089589EA9CE00E94830712
:104E40008091A902811109C00E94AF2A0E940C2BF7
:104E50008091E20084608093E200089585EA9CE0FE
:104E60000E9483071092A902089581EA9CE00C94A5
:104E700083078DE99CE00C94830789E99CE00E94FC
:104E800083070C94CD1C209161022F5F822F62E377
:104E90000E94BB2D992319F020936102089510926E
:104EA000610280916202882371F18091AA028430AC
:104EB00041F58091E9008F702091EC00922F917064
:104EC00020FD90E8892B93E09093E9009091EB000E
:104ED00090FF14C09091EE0097FF10C09091E800F1
:104EE00095FF03C01092F100F9CF9091E80090FF78
:104EF00005C09091E8009E779093E8008F708093B2
:104F0000E90010926202089542E061EC81E00E94A3
:104F1000282A42E261EC82E00E94282A42E261EC07
:104F200083E00C94282A8091AC02833009F460C09D
:104F300030F4813071F0823009F499C008958A30DC
:104F400009F485C08B3009F46BC0893009F0A7C023
:104F500020C08091AB02813A09F0A1C08091E800A5
:104F6000877F8093E8008091AF029091B002892BF7
:104F700021F460E283E692E003C060E080E090E02C
:104F800070E00E9469298091E8008B778093E800A7
:104F900008958091AB02813209F081C08091AF0207
:104FA0009091B002029708F07AC08091E800877F64
:104FB0008093E8008091E80082FD05C08091AA02FC
:104FC0008111F8CF6CC02091F3008091F20090E045
:104FD000922B029729F48091F1008B7F813021F48C
:104FE0008091F100809383028091E8008B7753C019
:104FF0008091AB02813A09F052C08091AF0290914A
:10500000B002892B09F04BC08091E800877F809324
:10501000E8008091E80080FFFCCF8091140136C049
:105020008091AB028132D9F58091AF029091B002AC
:10503000892BA9F58091E800877F8093E8000E9482
:105040005D2A8091AD02809314010C94C21480916A
:10505000AB02813221F58091E800877F8093E800E0
:105060000E945D2A8091AE0280938402089580910F
:10507000AB02813AA1F48091E800877F8093E80039
:105080008091E80080FFFCCF809184028093F10042
:105090008091E8008E778093E8000C945D2A089553
:1050A00084B7877F84BF0FB6F894A895809160007D
:1050B000886180936000109260000FBE90E080E8ED
:1050C0000FB6F89480936100909361000FBE0E9428
:1050D000D10F0E94AF2A0E940C2B8091E2008460C5
:1050E0008093E2008EEF95E20E94CC1A78940E94A1
:1050F000A02D0E94D90F8AE091E00E94210F88E83C
:105100009CE00E9483078091AA02853089F484E89C
:105110009CE00E9483070E949B1C8091A802882328
:1051200091F30E94821C882371F30E940829EBCF1F
:105130000E941410E8CF0C949D28292F3327233088
:105140003105C9F060F42130310581F0223031059C
:1051500009F047C08BE590E021ED3CE046C02132EC
:10516000310511F12232310561F13BC082E190E05D
:105170002CE23DE03AC099278130910561F040F082
:105180008230910559F0039761F5EDEAFCE008C023
:10519000EDECFCE005C0E1ECFCE002C0E3EBFCE080
:1051A000849190E09F0121C063307105D0F4660FB7
:1051B000771FFB01E657FE4F2081318189E090E0A7
:1051C00014C06330710568F4FB01EE0FFF1FEC574C
:1051D000FE4F20813181FB01EF57FE4F808190E02F
:1051E00004C080E090E020E030E0FA0131832083C9
:1051F00008958091AA02843011F081E0089582E040
:10520000089580918502811102C00C94F9280895B7
:1052100080E189BD82E189BD09B400FEFDCF8091A6
:10522000D8008F7D8093D8008091E00082608093C9
:10523000E0008091E00081FDFCCF0895CF92DF92E5
:10524000EF92FF920F931F93CF93DF93EC018B01AB
:105250007A010E947C2A811133C0E114F10439F0F3
:10526000F70180819181081B190BC80FD91FC12C30
:10527000D12C0115110519F18091E80085FD16C0AA
:105280008091E8008E778093E800E114F10449F002
:10529000F70180819181C80ED91ED182C08285E03C
:1052A0000FC00E947C2A882321F30AC08991809331
:1052B000F10001501109FFEFCF1ADF0ADACF80E0C9
:1052C000DF91CF911F910F91FF90EF90DF90CF90E2
:1052D00008952091B1023091B2022617370748F0A5
:1052E0006115710539F42091E8002E772093E800CC
:1052F00001C0B901FC0120E06115710579F18091CF
:10530000AA028823F1F18530F1F18091E80083FD54
:105310003CC08091E80082FD2EC08091E80080FFB3
:10532000EBCF2091F3008091F20090E0922B611579
:10533000710551F08830910538F421912093F100E6
:10534000615071090196F3CF21E0089709F020E040
:105350008091E8008E778093E800CECF2111CFCFE7
:105360000AC08091AA02882361F0853061F08091A3
:10537000E80083FD0AC08091E80082FFF2CF80E060
:10538000089582E0089583E0089581E008952091D2
:10539000B1023091B2022617370748F06115710546
:1053A00039F42091E8002E772093E80001C0B9017C
:1053B000FC0120E06115710591F18091AA0288231A
:1053C00009F440C0853009F43FC08091E80083FDB6
:1053D0003DC08091E80082FD2FC08091E80080FFF1
:1053E000E9CF2091F3008091F20090E0922B6115BB
:1053F000710559F08830910540F424912093F10013
:105400003196615071090196F2CF21E0089709F0B9
:1054100020E08091E8008E778093E800CBCF2111C7
:10542000CCCF0AC08091AA02882361F0853061F058
:105430008091E80083FD0AC08091E80082FFF2CFEE
:1054400080E0089582E0089583E0089581E0089562
:10545000982F973068F59093E900981739F070917C
:10546000EC002091ED005091F00003C0242F762F26
:1054700050E021FD02C09F5FECCF3091EB003E7FFA
:105480003093EB003091ED003D7F3093ED00309193
:10549000EB0031603093EB007093EC002093ED0053
:1054A0005093F0002091EE0027FDE5CF80E00895B5
:1054B0008F708093E90081E008958091AB0287FFAF
:1054C00011C08091E80082FD05C08091AA0281117F
:1054D000F8CF11C08091E8008B770BC08091AA02B1
:1054E000882349F08091E80080FFF8CF8091E800A0
:1054F0008E778093E80008952091E4003091E500D4
:1055000095E64091EC00842F817040FF23C080918C
:10551000E80080FD1DC08091AA02882399F08530A3
:1055200099F08091EB0085FD11C04091E40050910D
:10553000E5002417350729F3915011F09A01E1CFC6
:1055400084E0089582E0089583E0089581E008955D
:1055500080E008954091E80042FFDDCF08950E9469
:105560001D2B0E94252BE0EEF0E08081816080837E
:10557000E8EDF0E080818F77808319BCA7EDB0E083
:105580008C918E7F8C9380818F7E80831092A90274
:1055900008950F931F93CF93DF930E941D2B0E94BA
:1055A000252BC8EDD0E088818F778883888180683B
:1055B000888388818F7D888319BC1092AA021092FB
:1055C000A6021092A8021092A70200EE10E0F801C5
:1055D00080818B7F808388818160888342E060E066
:1055E00080E00E94282AE1EEF0E080818E7F8083B7
:1055F000E2EEF0E08081816080838081886080833A
:10560000F80180818E7F8083888180618883DF912B
:10561000CF911F910F910895E8EDF0E080818F7E8A
:105620008083E7EDF0E080818160808384E082BF49
:1056300081E08093A9020C94C92AE8EDF0E0808112
:105640008E7F80831092E20008951092DA0010920B
:10565000E10008951F920F920FB60F9211242F931D
:105660003F934F935F936F937F938F939F93AF93EA
:10567000BF93EF93FF938091E10082FF0BC0809175
:10568000E20082FF07C08091E1008B7F8093E10000
:105690000E9443278091DA0080FF1FC08091D800CC
:1056A00080FF1BC08091DA008E7F8093DA008091AA
:1056B000D90080FF0DC080E189BD82E189BD09B4B8
:1056C00000FEFDCF81E08093AA020E941C2705C046
:1056D00019BC1092AA020E942E278091E10080FF3F
:1056E00019C08091E20080FF15C08091E2008E7F9A
:1056F0008093E2008091E20080618093E2008091DB
:10570000D80080628093D80019BC85E08093AA02FB
:105710000E9439278091E10084FF30C08091E2002F
:1057200084FF2CC080E189BD82E189BD09B400FEFF
:10573000FDCF8091D8008F7D8093D8008091E100CB
:105740008F7E8093E1008091E2008F7E8093E20063
:105750008091E20081608093E2008091A60288231C
:1057600011F084E007C08091E30087FD02C081E072
:1057700001C083E08093AA020E943D278091E1004E
:1057800083FF29C08091E20083FF25C08091E10062
:10579000877F8093E10082E08093AA021092A602A4
:1057A0008091E1008E7F8093E1008091E2008E7F06
:1057B0008093E2008091E20080618093E20042E009
:1057C00060E080E00E94282A8091F0008860809349
:1057D000F0000E943527FF91EF91BF91AF919F910B
:1057E0008F917F916F915F914F913F912F910F908A
:1057F0000FBE0F901F9018951F920F920FB60F9229
:1058000011242F933F934F935F936F937F938F93C5
:105810009F93AF93BF93CF93DF93EF93FF93C09189
:10582000E900CF708091EC00D82FD17080FDD0E8D6
:105830001092E9008091F000877F8093F0007894C7
:105840000E94402C1092E9008091F00088608093C3
:10585000F000CD2BCF70C093E900FF91EF91DF9165
:10586000CF91BF91AF919F918F917F916F915F91F8
:105870004F913F912F910F900FBE0F901F90189551
:105880001F93CF93DF93CDB7DEB7AA970FB6F894E7
:10589000DEBF0FBECDBFEBEAF2E08091F100819355
:1058A00022E0E33BF207C9F70E9493278091E800CA
:1058B00083FF2EC18091AB029091AC02492F50E042
:1058C0004A30510508F024C1FA01E155FF4F0C940C
:1058D000DB2D803821F0823809F01AC108C0809190
:1058E000A7029091A802992389F082600FC080914D
:1058F000AF028F70873008F00BC18093E900809170
:10590000EB0085FB882780F91092E9009091E80070
:10591000977F9093E8008093F1001092F100D1C03E
:10592000282F2D7F09F0F4C0882319F0823061F010
:10593000EFC08091AD02813009F0EAC0933009F0E8
:1059400080E08093A8022EC08091AD0281112AC010
:105950008091AF028F702FEF280F263008F0D8C04B
:105960008093E9002091EB0020FF1CC0933021F4CC
:105970008091EB00806214C09091EB009061909355
:10598000EB0021E030E0A90102C0440F551F8A95C9
:10599000E2F74093EA001092EA008091EB00886001
:1059A0008093EB001092E9008091E800877F80935C
:1059B000E8000E945D2AACC08111AAC01091AD021E
:1059C0001F778091E3008078812B8093E3008091A2
:1059D000E800877F8093E8000E945D2A8091E800BC
:1059E00080FFFCCF8091E30080688093E300111179
:1059F00002C082E001C083E08093AA0289C080587F
:105A0000823008F085C08091AD029091AE028C3D4D
:105A100053E0950779F583E08A838AE289834FB75B
:105A2000F894DE01139620E03EE051E2E32FF0E02F
:105A300050935700E49120FF03C0E295EF703F5F61
:105A4000EF708E2F90E0EA3010F0C79601C0C0963C
:105A50008D939D932F5F243149F74FBF8091E800CC
:105A6000877F8093E8006AE270E0CE0101960E9491
:105A7000692916C06091AF027091B002AE014F5F0C
:105A80005F4F0E949B28BC01892B09F441C0909173
:105A9000E800977F9093E80089819A810E94C72946
:105AA0008091E8008B778093E80032C0803881F5E0
:105AB0008091E800877F8093E8008091A602809320
:105AC000F1008091E8008E7772CF811121C0809122
:105AD000AD029091AE0299270297D4F48091E8002C
