:100000000C94D4030C941B040C941B040C94CF0488
:100010000C941B040C941B040C941B040C941B04E4
:100020000C941B040C941B040C94C9200C941B040A
:100030000C94E4190C941B040C941B040C941B04E6
:100040000C941B040C941B040C941B040C941B04B4
:100050000C941B040C944C1A0C941B040C941B045D
:100060000C941B040C941B040C941B040C941B0494
:100070000C941B040C941B040C941B040C941B0484
:100080000C941B040C941B040C941B040C941B0474
:100090000C941B040C941B040C941B040C941B0464
:1000A0000C941B040C941B040C941B045108590859
:1000B00063087608CB089508A008B2082B0A2D0A19
:1000C000380A2F0A310A330A350A370A3A0A3C0A33
:1000D0003E0A490A400A420A440A460A480A4B0AAA
:1000E0000D100D103F103F10E3117D10E311E311CF
:1000F000BF10E31162116211D311E311E311DC119E
:100100006F116F116F116F116F116F116F116F11EF
:100110006F116F116F116F116F116F116F116F11DF
:1001200080118E1195119C11A6116C126C127E1209
:100130007E1275127E127E127E126C126C127A1270
:100140007E127E127A12BF21E621DE22E621DE2215
:1001500032225522DE22AC22BB2202E26003E20000
:1001600002E26003E200010029001E001F002000DF
:10017000210022003602E2002B0014001A000800C1
:100180001500170025024900F45C04001600070062
:1001900009000A0030004A00E3001D001B000600B1
:1001A0001900050030020000000000008B00E00094
:1001B000E1002C00F25C3702230024002500260019
:1001C00027002D004C0026021C0018000C00120015
:1001D00013002F002A0032000B000D000E000F004C
:1001E00033003400280032021100100036003700BE
:1001F000380087004D00F35C2A0028004C008A007C
:10020000000000000000010029001E001F00200067
:10021000210022003602E2002B0014001A00070021
:1002200009000A0025024900F45C040012000800DD
:1002300018000C0030004A00E3001D001B000600FF
:100240001900050030020000000000008B00E000F3
:10025000E1002C00F25C3702230024002500260078
:1002600027002D004C0026021C0016001700150068
:1002700013002F002A0032000B000D000E000F00AB
:10028000330034002800320211001000360037001D
:10029000380087004D00F35C2A0028004C008A00DB
:1002A000000000000000010001003A003B003C009B
:1002B0003D003E00010001000100010001000100BD
:1002C0000100010001000100010001000100010026
:1002D0000100F05CDE5C0100010001000100010092
:1002E0000100F15C005C0000000000000100E00083
:1002F0002C00E100010001003F00400041004200ED
:10030000430044004500010001000100010001001C
:1003100001000100010001005000510052004F0097
:1003200001000100010001000100010001000100C5
:1003300001000100010001000100010001000100B5
:10034000000000000000010001003A003B003C00FA
:100350003D003E000100010001000100010001001C
:100360000100010001000100010001000100010085
:100370000100F05CDE5C01000100010001000100F1
:100380000100F15C005C0000000000000100E000E2
:100390002C00E100010001003F004000410042004C
:1003A00043004400450001000100F400F600F500A0
:1003B000F900010001000100F200F100F000F3007B
:1003C000FA000100010001005000510052004F00EE
:1003D0000100010001000100010001000100010015
:1003E0000000000000000100010001000100010008
:1003F00001000100010001000100010001000100F5
:1004000001000100010001000100010001000100E4
:1004100001000100010001000100010001000100D4
:1004200001000100010000000000000001000100C7
:1004300001000100010001000100010001000100B4
:1004400001000100010001000100010001000100A4
:100450000100010001000100010001000100010094
:100460000100010001000100010001000100010084
:100470000100010001000100010001000100010074
:10048000000000000000E30029001E001F00200003
:10049000210022000100E2002B002E0287021F0231
:1004A00024022F0201004900E00033022D00340233
:1004B0002D02340001004A0001001E023802200211
:1004C000210222020100000000000000F65CE000B2
:1004D0002C00E100F25C010023002400250026002E
:1004E000270001000100010023022502360230022C
:1004F00030002A0001000100890226023702320280
:10050000320028000100010001002F002E003600FB
:10051000010001004D00F35C2A0028004C00F75C4C
:1005200000000000000000000000000000002A2B76
:100530002800000000000000000000000000000093
:100540000029000000002C1E3420212224342627FC
:10055000252E362D3738271E1F202122232425261D
:100560003333362E37381F0405060708090A0B0CEB
:100570000D0E0F101112131415161718191A1B1C33
:100580001D2F3130232D350405060708090A0B0CF1
:100590000D0E0F101112131415161718191A1B1C13
:1005A0001D2F3130354C000000000000000000001D
:1005B000000000000000000000000000000000003B
:1005C000000000000000000000000000000000002B
:1005D000000000000000000000000000000000001B
:1005E000000000000000000000000000000000000B
:1005F00000000000000000000000000000000000FB
:1006000000000000000000000000000000000000EA
:1006100000000000000000000000000000000000DA
:1006200000000000000000000000000000000000CA
:1006300000000000000000000000000000000000BA
:1006400000000000000000010101010101000101A2
:100650000101000000000000000000000000000098
:10066000010001000101010101010101010101017C
:10067000010101010101010101010101010101016A
:100680000100000001010000000000000000000067
:10069000000000000000000000000000000000005A
:1006A0000001010101000403300000000E03660098
:1006B0006C00610067003700340000000A03780016
:1006C00063006400300000000403090409023B00D9
:1006D000020100A032090400000103010100092108
:1006E000110100012240000705810308000A0904E6
:1006F00001000103000000092111010001224F0047
:100700000705820320000A1201100100000008ED15
:10071000FE000001000102030105010902A101859B
:10072000020901A1000509190129051500250195F6
:1007300005750181029501750381010501093009E3
:10074000311581257F9502750881060938158125A7
:100750007F950175088106050C0A38021581257FF1
:10076000950175088106C0C005010906A1010507AC
:1007700019E029E715002501950875018102950109
:100780007508810105081901290595057501910272
:100790009501750391010507190029FF150026FF32
:1007A00000950675088100C011241FBECFEFDAE066
:1007B000DEBFCDBF04B603FE27C080912F0290910B
:1007C0003002A0913102B09132028730904BA740A5
:1007D000B04BD1F410922F021092300210923102DD
:1007E0001092320214BE84B7877F84BF0FB6F8948C
:1007F000A8958091600088618093600010926000ED
:100800000FBEE0E0F8E3099511E0A0E0B1E0E2E21C
:10081000F7E402C005900D92A234B107D9F722E0A7
:10082000A2E4B1E001C01D92AF32B207E1F70E942D
:10083000EF1D0C948F230C9400008EE14A9B02C0A4
:100840008150E1F74A9BFECF08955A9880E28A953D
:10085000F1F75A9A0895FC012AE02A95F1F790E001
:1008600020E080E031E0261779F040E14A95F1F789
:10087000880F4A9B02C08160932700C0000040E1BE
:100880004A95F1F72F5FEFCF20E12A95F1F729B1D3
:1008900000C0000030E13A95F1F722FB222720F951
:1008A00092272081920F90830895EF92FF920F93E9
:1008B0001F93CF93DF931F92CDB7DEB719828C01C0
:1008C0007C01E60EF11C0E151F0559F00E941D0457
:1008D00068E0CE0101960E942B04F80181938F01FC
:1008E000F2CF81E09981911180E00F90DF91CF915B
:1008F0001F910F91FF90EF90089590934401809382
:10090000430160934201529A5A9A08959093440188
:10091000809343016093420152985A9AEA9AE9E619
:10092000F0E080818F7C80830895615091E001C068
:10093000990F6A95EAF720E031E0992361F0492F99
:10094000482319F05A9A232701C05A9840E24A9541
:10095000F1F79695F2CF222311F05A9A01C05A98D6
:1009600080E28A95F1F75A980895FF920F931F93AA
:10097000CF93DF93EC018C01060F111DC017D10737
:1009800041F0F9900E94250468E08F2D0E949504A3
:10099000F5CFDF91CF911F910F91FF9008951F9296
:1009A0000F920FB60F9211240F931F932F933F9323
:1009B0004F935F936F937F938F939F93AF93BF9367
:1009C000EF93FF93CF93DF931F92CDB7DEB71982DA
:1009D0000E941D0467E0CE0101960E942B04382F6F
:1009E000369536953695932F96959570232F2570CD
:1009F000920F292F2370969596958770920F8913E1
:100A000048C08981811145C080914201831708F453
:100A100040C080E18A95F1F75A9A529AA2E0AA95CD
:100A2000F1F700C00091430110914401B8E03B9FF1
:100A3000000D111D11245A98F8016581662321F0DB
:100A4000868197810E94B5040E942504F0E1FA9501
:100A5000F1F75A9852985A9A80E18A95F1F7D8019D
:100A600012966C911297662369F013968D919C9162
:100A700014970E945504D801ED91FC91811105C095
:100A800082E004C0D801ED91FC9188E080830E944F
:100A90001D040F90DF91CF91FF91EF91BF91AF9126
:100AA0009F918F917F916F915F914F913F912F9186
:100AB0001F910F910F900FBE0F901F9018950F93DD
:100AC0001F93CF93DF932091420130E0281739071D
:100AD0000CF471C09C0193E0220F331F9A95E1F74B
:100AE000C0914301D0914401C20FD31FF894529A90
:100AF0005A9845E04A95F1F70000982F9695957021
:100B00008570890F982F937086958695890F890136
:100B1000082B0E94250484E08A95F1F700C067E065
:100B2000802F0E94950440E14A95F1F752985A9A15
:100B30004A9902C000C0FCCF87E090E04A9B0EC0FB
:100B4000019751F4529A5A9AE881F98181E08083A1
:100B5000789481E090E031C000C0F0CF6D816623D1
:100B600081F08E819F810E94550481110AC0529AA2
:100B70005A9AE881F98182E08083789482E090E05B
:100B80001CC00E941D0480E28A95F1F75A98529A7F
:100B900040E14A95F1F76A81662321F08B819C81BF
:100BA0000E94B5040E942504E881F981108278949E
:100BB00080E090E002C084E090E0DF91CF911F914F
:100BC0000F910895CF93DF93A7E3B1E04CE351E099
:100BD00061E070E08D91E82FE295EF70F0E021A1E7
:100BE0008F70EB0102C0CC0FDD1F8A95E2F7CE01BA
:100BF0009C2F9095922391A392A1892B82A34A17AF
:100C00005B0741F7DF91CF91089508950C94050695
:100C10008091030283608860809303020E94E20552
:100C2000AFE2B1E041E050E08D91E82FE295EF7046
:100C3000F0E021A18F70BA0102C0660F771F8A957C
:100C4000E2F7CB01962F9095922391A392A1892B45
:100C500082A371E0A733B70739F7559A209A5D9AB6
:100C6000289AEFE4F1E0A5E4B1E011921D9281E051
:100C7000E935F807D1F70E948A07809359010C944F
:100C800078099F92AF92BF92CF92DF92EF92FF923C
:100C90000F931F93CF93DF9380910101811103C0C4
:100CA000C5E0D0E002C0C0E0D0E0AE014B5B5E4FDB
:100CB0007A0187E3C82E81E0D82E8A01AA24A39462
:100CC000B12C25E0922EFCE3CF16F1E0DF0609F40B
:100CD0004AC0F60181916F01E82FE295EF70F0E0D4
:100CE00021A18F70A50102C0440F551F8A95E2F71C
:100CF000CA01922F982B91A392A18095892382A358
:100D000050EA5A95F1F7EFE2F1E020E040E050E0E0
:100D10003191A32FA295AF70B0E090968C9190E0A6
:100D20003F7002C0959587953A95E2F780FD07C020
:100D3000C501042E01C0880F0A94EAF702C080E0C2
:100D400090E0282B4F5F5F4F4830510509F7F801BD
:100D50008081821719F02083909200010E94E205A1
:100D60000F5F1F4FB0CF809100018823B1F08150F9
:100D700080930001811103C0C15BDE4F07C08FE982
:100D80009FE00197F1F700C0000007C0F7019191C3
:100D90007F0199938F5F8530C9F781E0DF91CF9113
:100DA0001F910F91FF90EF90DF90CF90BF90AF9089
:100DB0009F900895CF93DF9320910101211103C0EB
:100DC000C0E0D0E002C0C5E0D0E00E94B4070097C8
:100DD00021F0029781F428980EC0289ADE01A15BC9
:100DE000BE4F85E0E5E6F1E001900D928A95E1F7CE
:100DF00080E090E002C081E090E0DF91CF91089523
:100E00000E94410680910101811103C0E5E0F0E0FC
:100E100002C0E0E0F0E0E15BFE4F20E030E080E087
:100E2000D901AB59BE4F4C919191491381E09C93EC
:100E30002F5F3F4F2530310599F790915D01890F64
:100E400080935D010895CF93DF93809159018823AA
:100E500009F43FC00E94410680910101811103C045
:100E6000C5E0D0E002C0C0E0D0E0C15BDE4F45E0AD
:100E700050E0BE0180E691E00E94402325E0FE01A3
:100E8000A0E6B1E001900D922A95E1F70E94DA0602
:100E9000892BD9F05D9880915A018F5F80935A0118
:100EA000863058F180910101811103C0E0E0F0E04B
:100EB00002C0E5E0F0E0E15BFE4F80E090E01192DF
:100EC000019685309105D9F718C05D9A10925A01A4
:100ED00014C00E94000780910101811103C0A0E0AD
:100EE000B0E002C0A5E0B0E0A15BBE4F85E0E0E667
:100EF000F1E001900D928A95E1F70E94800981E06E
:100F0000DF91CF910895E82FF0E0E15BFE4F808103
:100F100008950895E8EDF0E08081806180838AE1A2
:100F20008A95F1F700C08091D900817008950E94E0
:100F30008A07809301010E948A07882319F00E9482
:100F4000A80702C00E94AE07789408950C949707F2
:100F500063E070E082E091E00C947D0463E070E077
:100F600082E091E00C9486040F931F93CF93DF935C
:100F70008C0190911B0180911A01981761F082E019
:100F800090E00E945F05EC01892B39F480911A01F1
:100F900080931B0102C0C0E0D0E0012B49F4809196
:100FA0005B0190915C01892B19F480E090E002C014
:100FB00081E090E00E945F05892B49F480915D01FA
:100FC00080931A0110925C0110925B0106C081E0CF
:100FD00090E090935C0180935B01CE01DF91CF9113
:100FE0001F910F9108950C94CF080C94D20DCF93BC
:100FF000DF93EC010E94E118BE0180E090E0DF91F8
:10100000CF910C944716CF92DF92EF92FF920F93FD
:101010001F9301E010E020E030E06801790104C096
:10102000CC0CDD1CEE1CFF1C6A95D2F704C0000F2F
:10103000111F221F331F8A95D2F70C291D292E2933
:101040003F298091EE019091EF01A091F001B091C4
:10105000F10180239123A223B323081719072A073C
:101060003B0749F4842F1F910F91FF90EF90DF9081
:10107000CF900C94A716842F1F910F91FF90EF90A3
:10108000DF90CF900C94C816CF93805F9C4588303A
:10109000910508F080C0DB018A5A9F4FFC010C9437
:1010A00026231296CC91CC2309F476C081E090E0FF
:1010B00007C01296CC91CC2309F46EC082E090E078
:1010C0000E94F70762C01296CC91CC2349F0809120
:1010D0006A01811103C081E080936A0182E012C03D
:1010E00010926A0182E00E94C81619C01296CC9133
:1010F000CC2381F080916A01811103C081E080934B
:101100006A0183E00E94A71644E063E082E00E9447
:1011100003083BC083E00E94C81610926A0144E0B5
:1011200063E082E00E94030837C01296CC9184E00D
:10113000CC2319F00E94A71628C00E94C8162CC004
:101140001296CC91CC2361F08091200282FBCC27B7
:10115000C0F982FD02C081E911C080E691E013C0B0
:1011600081E916C01296CC91CC2389F0809120029F
:1011700082FBCC27C0F982FD04C080E90E94C40E26
:101180000BC08AE591E00E947509C0E005C080E9C6
:101190000E948E0F01C0C1E08C2FCF910895089559
:1011A00081E008950C9444081F93CF93DF9300D0FF
:1011B00000D01F92CDB7DEB749835A836B8320914D
:1011C000830189819A81211112C0662349F00E940E
:1011D0009C17182F682F89819A810E94451703C098
:1011E0000E947017182F69817A81812F04C00E9494
:1011F0009C1769817A810F900F900F900F900F903C
:10120000DF91CF911F910C94FD0AFC014081518127
:101210006281738184810C94D4081F93CF93DF93F0
:1012200090E0FC01EA5DFA4F1491FC01EA5DF94F90
:10123000D491FC01EA55FA4FC491DD2319F081EEF7
:101240000E94C40ECC2319F086EE0E94C40E812F9A
:101250000E94C20FCC2319F086EE0E948E0FDD2370
:1012600031F081EEDF91CF911F910C948E0FDF91C1
:10127000CF911F9108950F931F93CF93DF93EC01AC
:10128000062FFE018491882359F19E012F5F3F4F65
:10129000813041F4E901F9011491812F0E94C40EBB
:1012A000812F0DC0823031F4E901F90184910E944F
:1012B000C40E0AC0833031F4E901F90184910E941F
:1012C0008E0F02C00E940D092196802F8823C9F23B
:1012D000EFE9FFE03197F1F700C000008150F6CF51
:1012E000DF91CF911F910F91089560E00C943B091D
:1012F0000E94CE18811102C00E944D190C94F30770
:101300000C94060608950C9482090C9483090895A0
:101310000E945A120E9487092FEF84E39CE021501B
:1013200080409040E1F700C0000087E797E7909386
:101330000108809300080C94721A0F931F93CF93A7
:10134000DF938C010E940509EC01B8010E94D208CC
:10135000882309F448C1C73D8CE5D80709F4ABC020
:10136000B0F4C531FCE5DF0768F4C2308CE5D8077E
:1013700008F04FC0C115ECE5DE0701F1C130DC45D6
:1013800029F125C1C631DC4509F4FAC020C1CC3DA4
:10139000ECE5DE0771F150F4C83D8CE5D80709F49F
:1013A000ADC0C93DDC4509F4D0C011C1CD3DFCE55F
:1013B000DF0731F1CE3DDC45A1F009C1F8018281A2
:1013C000882309F410C10E9488090DC1F8018281A7
:1013D000882309F408C1809103028160809303028D
:1013E00002C1F8018281882309F4FDC00E944D19D1
:1013F000FAC0F8018281882309F4F5C080E006C0B4
:10140000F8018281882309F4EEC082E00E948E1EDA
:10141000EAC0F8018281882309F4DEC00E94CE1858
:10142000811102C00E944D190E94E61890E090932D
:10143000210280932002FE01E350FC45E231F105D8
:1014400030F4E25AFF4F809120020C9426238091C1
:101450002002816027C0826025C0846023C0806133
:1014600021C080621FC080641DC080681BC0846072
:10147000886018C08E7F16C08D7F14C08B7F12C00D
:101480008F7E10C08F7D0EC08F7B0CC08F770AC0FF
:101490008B7F877F07C087FB222720F991E0922767
:1014A00090FB87F980932002809120020E94EA1825
:1014B0000E945A1298C0F8018281882351F010923C
:1014C00070010E94161A90936D0180936C0182E066
:1014D00022C08091700181110FC080916C019091A8
:1014E0006D010E94221A8436910530F486E20E9432
:1014F000C40E86E20E948E0F82E024C0F801828131
:10150000882361F0109271010E94161A90936F0166
:1015100080936E0180E20E94CA0F65C080917101C4
:1015200081110FC080916E0190916F010E94221A6B
:101530008436910530F487E20E94C40E87E20E944F
:101540008E0F80E20E94D10F4EC0F801828181117E
:10155000D9CF809171018111F4CF80916E0190916A
:101560006F010E94221A8436910558F780E20E948A
:10157000D10F88E20E94C40E88E20E948E0F33C011
:101580000E941D18982FF801828120911C01309132
:101590001D01882379F09A7A81E009F480E0809334
:1015A0006B01911102C069E201C065E3C9010E94AB
:1015B00082190AC080916B01811102C069E201C0E9
:1015C00065E3C9010E9484190E946B180CC081E078
:1015D0008093700180937101C801DF91CF911F91B9
:1015E0000F910C94D00880E0DF91CF911F910F9163
:1015F000089580E090E008950895E72FF0E09AE0E4
:10160000899FE00DF11D112483E0EE0FFF1F8A95E5
:10161000E1F7E60FF11DEE0FFF1FEA59FE4F85912E
:1016200094910895880F991FFC01EA55F94F85910F
:1016300094910895CF93DF930E94FD0A0E94D60CE7
:10164000EC018115904508F041C0C11580E4D80730
:1016500008F028C1C83ED10510F5C03ED10508F0FC
:10166000A1C1C83AD10578F4C53AD10508F0A2C0A5
:10167000C130D10509F496C108F447C1C430D10581
:1016800008F090C142C1CF3BD10508F49EC0C03CD8
:10169000D10508F43AC1CE01805C9109F5C0C115AD
:1016A00090E2D90758F4C11521E0D20708F07AC1B9
:1016B000C03FD10508F429C1D06574C1C11580E3CC
:1016C000D80708F0E5C0CE019F70DEC0C11595E5D2
:1016D000D90708F043C0C11524E5D20708F0F9C0C6
:1016E000C11582E5D80708F5C11591E5D90708F0BD
:1016F000DCC0CE0174E0969587957A95E1F783700A
:101700009C2F937021E030E002C0220F331F9A9586
:10171000E2F73C68382BCF70C695C69580E2C89F2B
:10172000E0011124C22BD32B3DC19E01237033272E
:101730008C2F86958695C115D34508F0BBC0C1E0B6
:10174000D0E002C0CC0FDD1F2A95E2F720E2829F95
:10175000C0011124C82BD92BDC6824C1C11529E58F
:10176000D207A0F4C11588E5D80708F0B7C0C115A5
:1017700096E5D90708F0C9C08C2F0E94520D8F71D1
:10178000C82FD0E0DC2FCC27D0620CC1C1152AE5D0
:10179000D20708F4A8C0CE0190568115904208F0F7
:1017A000B4C08D2F8F710E94520DDD27D0628F71D2
:1017B000D82BF8C0C53AD10509F4AAC0C63AD1055C
:1017C00009F0A9C0C2E8D0E4EDC0C83AD10509F4D7
:1017D000A5C0C93AD10509F4A4C0CA3AD10509F493
:1017E000A3C0CB3AD10509F4A2C0CC3AD10509F483
:1017F000A1C0CB3BD10509F4A0C0CC3BD10509F475
:101800009FC0CD3AD10509F49EC0C03BD10509F473
:101810009DC0CE3AD10509F49CC0CF3AD10509F458
:101820009BC0C13BD10509F49AC0C23BD10509F464
:1018300099C0C33BD10509F498C0C43BD10509F454
:1018400097C0C53BD10509F496C0C63BD10509F444
:1018500095C0C73BD10509F494C0C83BD10509F434
:1018600093C0C93BD10509F492C0CD3BD10509F421
:1018700091C0CE3BD10509F490C0CA3BD10509F413
:101880008FC0C0E0D4E48EC00E94120BEC018AC06D
:10189000CE019927D3FF03C0EC01D86C83C0EC01C3
:1018A000D06C80C0DF70D06A7DC0DC2FCC27C16FC8
:1018B000D06A78C0C1E0D0E002C0CC0FDD1F2A950D
:1018C000E2F720E2829FC0011124C82BD92BDA68ED
:1018D00069C0DC2FCC27C46FD06A64C0DC2FCC2752
:1018E000C06FD06A5FC08C2F8F700E94520D94E041
:1018F000D695C7959A95E1F7CF70D0E0DC2FCC272D
:10190000D06A8F70806EC82B4DC0C0E0D0E04AC056
:10191000C1E8D0E447C0C3E8D0E444C0C2EED4E498
:1019200041C0C9EED4E43EC0CAEED4E43BC0C5EB2E
:10193000D4E438C0C6EBD4E435C0C3EBD4E432C041
:10194000C4EBD4E42FC0C7EBD4E42CC0CCECD4E47B
:1019500029C0CDECD4E426C0C3E8D5E423C0CAE84E
:10196000D5E420C0C2E9D5E41DC0C4E9D5E41AC05D
:10197000C1E2D6E417C0C3E2D6E414C0C4E2D6E4A0
:1019800011C0C5E2D6E40EC0C6E2D6E40BC0C7E281
:10199000D6E408C0CFE6D4E405C0C0E7D4E402C072
:1019A000CAE2D6E4CE01DF91CF9108958238910545
:1019B00049F1B0F48133910509F459C048F48932F2
:1019C000910509F44FC08A32910509F455C0089574
:1019D0008533910509F441C08933910599F0089543
:1019E000833E910531F138F4803E910591F0823EBD
:1019F0009105A9F00895863E910501F1873E910574
:101A000039F108952091200220FD3BC021FD39C00D
:101A100008958091200280FF34C089E341C0809105
:101A2000200282FF30C08091200284FD2EC083EE10
:101A300037C08091200282FD26C0F5CF8091200220
:101A400083FF25C08091200284FD1FC087EE28C03F
:101A50008091200283FD1BC0F5CF8091200285FD7F
:101A600018C019C08091200285FD15C012C0809158
:101A7000200286FD12C013C08091200286FD0FC097
:101A80000CC080EE0DC082EE0BC080E009C086EE77
:101A900007C089E205C085E303C08AE201C081E393
:101AA00090E008959091200292FF0DC0282F287198
:101AB000283019F4877F846006C0282F24712430D1
:101AC00011F48B7F886093FF0DC0282F2871283177
:101AD00019F4877E846106C0282F2471243111F403
:101AE0008B7E886194FD877E089590937701809323
:101AF00076010895E0917601F0917701309721F019
:101B00000190F081E02D099480E00895E091760144
:101B1000F0917701309721F00280F381E02D099454
:101B20000895E0917601F0917701309739F022E045
:101B3000DC012C930480F581E02D09940895209117
:101B40007401309175012817390771F09093750170
:101B500080937401E0917601F0917701309721F044
:101B60000680F781E02D099408952091720130914B
:101B700073012817390771F09093730180937201F4
:101B8000E0917601F0917701309721F00084F185A2
:101B9000E02D0994089585B7806885BF85B7806872
:101BA00085BF089508950C94D20D0C94D30D0E9416
:101BB000CB0D0E94A6070C94D50D81E008950E94DC
:101BC0000D1A0E9408060E94831A0C94F507BF9212
:101BD000CF92DF92EF92FF920F931F93CF93DF93F9
:101BE000CDB7DEB72A970FB6F894DEBF0FBECDBFD4
:101BF0000E9423070E94DD0D811111C08FEF8983A0
:101C00008A831B820E94161A8160782F9D838C83A1
:101C100049815A816B818D810E94900E54C089E761
:101C2000C82E81E0D82E00E010E0B02E802F0E9458
:101C30008307E82EF60121916F01F82EF22631F488
:101C40000F5F1F4F0A30110581F7D8CF8091030233
:101C500081FD0E94890780E090E02F2D30E0482F21
:101C6000B901082E02C0759567950A94E2F760FFE6
:101C700025C08E83BF8281E090E06C0102C0CC0C55
:101C8000DD1C4A95E2F72E2D30E02C213D21232B3F
:101C900009F480E088870E94161A8160782F9A875D
:101CA00089874E815F8168858A850E94900EF80140
:101CB000E758FE4F80818C25808305C001968830CF
:101CC000910569F6BDCF0E94161C0E947A0D909175
:101CD00078018917A9F00E947A0D809378012A96DD
:101CE0000FB6F894DEBF0FBECDBFDF91CF911F912D
:101CF0000F91FF90EF90DF90CF90BF900C948509EB
:101D00002A960FB6F894DEBF0FBECDBFDF91CF91FC
:101D10001F910F91FF90EF90DF90CF90BF900895AB
:101D2000CF93DF93CDB7DEB72B970FB6F894DEBF16
:101D30000FBECDBF4F83588769877A878B87DE01B7
:101D4000119686E0FD0111928A95E9F785E0FE0182
:101D5000379601900D928A95E1F749815A816B81FE
:101D60007C818D819E810E940A152B960FB6F89476
:101D7000DEBF0FBECDBFDF91CF910895FC01808102
:101D800091810E94DE170895882309F4C6C09CEF54
:101D9000980F913A40F4682F80911C0190911D0199
:101DA0000E9482190DC090E2980F983058F4877005
:101DB00091E001C0990F8A95EAF7892F0E942018B7
:101DC0000C946B189BE5980F933070F4853A29F0CA
:101DD000863A31F083E890E005C081E890E002C0E7
:101DE00082E890E00C949F0D98E5980F973108F0E9
:101DF0008EC0883A09F445C0893A09F445C08A3A48
:101E000009F445C08B3A09F445C08C3A09F445C041
:101E10008B3B09F445C08C3B09F445C08D3A09F46D
:101E200045C0803B09F445C08E3A09F445C08F3A5D
:101E300009F445C0813B09F445C0823B09F445C023
:101E4000833B09F445C0843B09F445C0853B09F454
:101E500045C0863B09F445C0873B09F445C0883B33
:101E600009F445C0893B09F445C08D3B09F445C0E0
:101E70008E3B09F445C08A3B09F445C080E090E000
:101E800044C082EE90E041C089EE90E03EC08AEE10
:101E900090E03BC085EB90E038C086EB90E035C029
:101EA00083EB90E032C084EB90E02FC087EB90E0B2
:101EB0002CC08CEC90E029C08DEC90E026C083E82B
:101EC00091E023C08AE891E020C082E991E01DC042
:101ED00084E991E01AC081E292E017C083E292E0C7
:101EE00014C084E292E011C085E292E00EC086E266
:101EF00092E00BC087E292E008C08FE690E005C058
:101F000080E790E002C08AE292E00C94B50D803F39
:101F100020F00E941E1B0C940B1C0895882389F14D
:101F20009CEF980F913A40F4682F80911C0190919A
:101F30001D010E9484190DC090E2980F983058F44A
:101F4000877091E001C0990F8A95EAF7892F0E9466
:101F500026180C946B189BE5980F933020F480E0C2
:101F600090E00C949F0D98E5980F973120F480E055
:101F700090E00C94B50D803F20F00E94861B0C94DD
:101F80000B1C0895CF93C82F0E94C40E8C2FCF91A5
:101F90000C948E0F882321F00E9420180C946B184B
:101FA0000895882321F00E9426180C946B18089538
:101FB0008F929F92AF92BF92DF92EF92FF920F9318
:101FC0001F93CF93DF937C01D62FC72FFC01058190
:101FD00002950F70128111110E943D180E9416186F
:101FE000882379F0112369F080E28D0F883048F062
:101FF00082E00E94B5180E94161891E0D82ED926CA
:1020000001C0D12CBC2EB2948FE0B8228B2D90E071
:10201000FC01E059FF4F0C9426238C2F807FCF705A
:10202000882311F0C295C07F112399F0CC2309F4C5
:10203000A5C180E28D0F883010F0D11104C08C2F23
:102040000E94201803C08C2F0E9430180E946B1829
:1020500095C18D2F0E948E0FCC2309F4B4C180E26C
:102060008D0F883010F0D11104C08C2F0E942618DB
:1020700003C08C2F0E9436180E946B18A4C18C2FAD
:10208000807FCF70803211F0C295C07FDD2319F0C0
:10209000D130C9F022C0112371F0002341F001308A
:1020A00031F40E9450188C2B0E9458188CC10E9449
:1020B00050188C2B1CC1002319F0013009F483C186
:1020C0000E94611818C0112321F0063008F07BC16E
:1020D0000EC0053008F077C10EC0112351F0002367
:1020E00031F0F701858180FF49C18F7085838C2F86
:1020F000FEC0011154C18C2F00C11123F9F0D53F4E
:1021000051F0D63F71F0D43FA9F480911A0290911A
:102110001B0281600BC080911A0290911B028260A9
:1021200005C080911A0290911B02846090931B025B
:1021300080931A028D2F0E941E1B1EC0D53F51F0A6
:10214000D63F71F0D43FA9F480911A0290911B02FE
:102150008E7F0BC080911A0290911B028D7F05C06B
:1021600080911A0290911B028B7F90931B028093A7
:102170001A028D2F0E94861B0E940B1C31C18C2FCE
:10218000837009F04CC0111127C12D2F229526957F
:102190002770220F220F6D2F6F70862F90E0A0E026
:1021A000B0E04C015D01022E04C0880C991CAA1CF1
:1021B000BB1C0A94D2F7D4FF12C08FE090E0A0E0DD
:1021C000B0E004C0880F991FAA1FBB1F2A95D2F741
:1021D000BC01CD01609570958095909503C060E03D
:1021E00070E0CB01C695C695C370C23051F080F443
:1021F000682979298A299B29C13071F00E945B16D0
:10220000EBC0682979298A299B290E946D16E4C0B0
:102210000E945B16C501B4010E944916DDC011235E
:1022200019F08C2F817001C08695882309F4D4C0E1
:102230002D2F229526952770220F220F6D2F6F705C
:10224000862F90E0A0E0B0E04C015D01022E04C0BA
:10225000880C991CAA1CBB1C0A94D2F7D4FF12C08C
:102260008FE090E0A0E0B0E004C0880F991FAA1FA3
:10227000BB1F2A95D2F7BC01CD0160957095809562
:10228000909503C060E070E0CB01C695C695C37021
:10229000C23051F080F4682979298A299B29C130FC
:1022A00071F00E94201798C0682979298A299B29F2
:1022B0000E94321791C00E942017C501B4010E94EC
:1022C0000E178AC08D2F90E0FC01E05EF109E53128
:1022D000F10508F04FC0E058FF4F0C942623DF7043
:1022E0008C2F8F71112331F00E94A7168D2F0E9421
:1022F000CA0F69C00E94C8168D2F0E94D10F63C0FB
:10230000112341F0053008F05EC08C2F8F710E94C0
:10231000ED1659C0063008F056C0F7CF112339F03A
:102320008C2F8F710E94A7164EC01123C9F38C2FDA
:102330008F710E94C81647C0112329F08C2F8F710E
:102340000E94921640C00E948D163DC0112349F094
:10235000CF718C2F0E94A71663E08C2F0E94A018CB
:1023600032C081E00E94B518023068F182E00E941C
:10237000B51829C0112331F0002391F28D2F0E944E
:10238000C40E21C0002399F2D93349F4FFEF27EEA0
:1023900083E0F15020408040E1F700C000008D2F25
:1023A0000E948E0F10C04C2F4F706D2FC7010E94DE
:1023B000F90A0E94B81514C04C2F4F706D2FC70139
:1023C0000E94FC0A0DC098E0B91631F0B91640F031
:1023D00086EF8B0D823020F40E947A0D0E948509D1
:1023E000DD20E1F00E94121880FD18C0F701128272
:1023F0000E940C180E94A716C7010E941A120E9480
:102400000C18DF91CF911F910F91FF90EF90DF900B
:10241000BF90AF909F908F900C94C816DF91CF9192
:102420001F910F91FF90EF90DF90BF90AF909F9022
:102430008F9008950F931F93CF93DF93EC019881B2
:1024400089812B813C81232B31F08F3F31F481E056
:102450009F3F19F403C081E001C080E080FD13C0FC
:10246000CE010E949D09882371F0688179818A815B
:102470000E94E9178C010E9444170E943516B8018A
:10248000CE010E94D80FDF91CF911F910F91089537
:102490000E943D180E944D180E946B180E94A41CB7
:1024A0000C940B1C80911C0190911D010E948619B7
:1024B0000C9448120E942D180C945212E92FE295A8
:1024C000EF704E2F50E0FA013297EE30F105B0F484
:1024D000EB56FF4F0C942623803F91F018F4803E7A
:1024E00068F40EC0843F51F40BC0803E48F0813F39
:1024F00029F406C093FB882780F9089580E00895A9
:1025000081E008950E94DE170E945E120895CF9325
:10251000DF9300D000D01F92CDB7DEB70F900F90A1
:102520000F900F900F90DF91CF910895CF93DF938D
:1025300000D000D000D0CDB7DEB726960FB6F89405
:10254000DEBF0FBECDBFDF91CF9108951F93CF9314
:10255000DF93C091840116E080918501C81799F03E
:10256000D0E01C9FF0011D9FF00D1124EA57FE4F93
:102570004081518162817381848195810E9496128C
:102580002196C770E9CFDF91CF911F9108954091B7
:10259000B6015091B7016091B8017091B901809175
:1025A000BA019091BB010C949612CF938091BB011C
:1025B00082958F7009F05FC08091B801882309F47B
:1025C0005AC080918401B09185017091B601A091AB
:1025D000B7014091B9015091BA0191E07F3F09F0F4
:1025E00090E0692FC6E08B1709F445C041155105ED
:1025F00021F0AF3F21F020E003C021E001C0262FF1
:1026000090E020FD35C0C89FF001C99FF00D112456
:10261000EA57FE4F21812A132BC02081271328C09F
:102620002281211125C0238134812417350710F41C
:1026300021503109241B350B24363105C8F4209173
:10264000BB012F7020612093BB0126E0289FF00181
:10265000299FF00D1124E557FE4F80818F70806116
:10266000808386EB91E00E941A12CF910C94A612FF
:1026700001968770B8CFCF910895AF92BF92CF9255
:10268000DF92EF92FF920F931F93CF93DF93CDB71B
:10269000DEB761970FB6F894DEBF0FBECDBF7C01E9
:1026A00085E0F701DE011D9601900D928A95E1F714
:1026B000D7014C9111965C91119712960C91309123
:1026C000B6016091B7018091B9019091BA0100976C
:1026D00031F06F3F31F421E03F3F19F403C021E0B6
:1026E00001C020E0B22FB170BB2E20FD40C1F70128
:1026F000C380D480A090B801AA2009F4F6C020912C
:10270000BB01C816D90628F0D601A81BB90BCD010C
:1027100004C0809590958C0D9D1D11E08436910527
:1027200080F010E0207F09F0A6C07C2DD98AC88AED
:10273000602F89890E94871286EB91E00E941A120D
:102740000EC1822F807F09F053C0561314C043136B
:1027500012C0102F01110FC02F7020612093BB01F8
:102760000E94C71286EB91E00E941A128091BB0171
:10277000F70185833DC1CD2831F05F3F31F481E021
:102780004F3F19F403C081E001C080E080FD03C029
:1027900081E0802702C080E090E0182F117080FF58
:1027A0001CC0809184012091850136E0821709F4D4
:1027B000FCC090E0389FF001399FF00D1124EA57DA
:1027C000FE4F6181561306C06081461303C06281CB
:1027D000061303C001968770E9CF102F002309F478
:1027E00007C18091BB0181608093BB0110E000C1F3
:1027F000561314C0431312C0011110C08091BB01C5
:10280000F7018583C7010E941A1286E0F701A6EB43
:10281000B1E001900D928A95E1F7C4C04D875E87C3
:102820008D859E850E948212882379F1002369F1AB
:102830002091BB01822F82958F7090E0029774F0F7
:102840008091B6019091B70198878F831986DB86B6
:10285000CA862C87CE0107960E941A1286E0F701DD
:10286000A6EBB1E001900D928A95E1F70E94D51296
:102870000E94C7120DC0561769F04D875E878D857F
:102880009E850E948212811119C0C7010E941A12EE
:1028900011E0AEC04313F1CF0111EFCF8091BB0126
:1028A000F7018583C7010E941A1286E0E6EBF1E08A
:1028B000DF011D928A95E9F71A2D9AC0002329F3AA
:1028C0002091BB01822F82958F7090E0029734F2A5
:1028D0008091B6019091B7019A8389831B82DD8232
:1028E000CC822E83CE010196B7CFC816D90628F028
:1028F000F601E81BF90BCF0104C0809590958C0D73
:102900009D1D8436910548F010E07C2DD98AC88A37
:10291000602F89890E94871222C0102F002309F49A
:10292000B4CF56130BC0431309C086E0F701A6EBE2
:10293000B1E001900D928A95E1F75AC04D875E870C
:102940008D859E850E948212811188CF8091BB0166
:1029500081608093BB01C7010E941A1249C0E6EB57
:10296000F1E086E0DF011D928A95E9F71BC00023A4
:1029700009F48BCF4D875E878D859E850E948212DC
:10298000182F882309F481CF86E0F701A6EBB1E088
:1029900001900D928A95E1F786EB91E00E94BE0EC0
:1029A0000E94D5120E94C71223C04D875E878D8575
:1029B0009E850E94DE17292F22952F70223028F441
:1029C0009F7039F0811105C00BC0243028F49F702E
:1029D00049F4805E883020F0C7010E941A12B12E9F
:1029E0001B2D06C0D70115969C91907F91F7F8CFCB
:1029F000812F61960FB6F894DEBF0FBECDBFDF9179
:102A0000CF911F910F91FF90EF90DF90CF90BF90EB
:102A1000AF9008951F93CF93DF93CDB7DEB72C9778
:102A20000FB6F894DEBF0FBECDBF4F8358876987BE
:102A30007A878B879C87CE0107960E943D13882357
:102A4000D1F09F8188852A853B85232B31F08F3FEC
:102A500031F481E09F3F19F403C081E001C080E0C0
:102A600080FD47C04F81588569857A858B859C8517
:102A70000E9496123EC086E0FE013796DE01119656
:102A800001900D928A95E1F7FF81E8856A857B8543
:102A90006115710531F0EF3F31F481E0FF3F19F42A
:102AA00003C081E001C080E080FD23C0209185014A
:102AB00030E0C9010196877099274091840150E068
:102AC00084179507F1F1F983EA837D836C8396E09F
:102AD000929FD001939FB00D1124AA57BE4FFE01C3
:102AE000319601900D929A95E1F7809385010E94AD
:102AF000A61216E08091840190918501891771F1E9
:102B0000189FC00111248A579E4F0E943D138823AD
:102B100029F1E09184011E9FF0011124EA57FE4F34
:102B20004081518162817381848195810E949612D6
:102B30008091840190E001968770992780938401A9
:102B4000D9CF0E945A121092850110928401E6EBAF
:102B5000F1E086E0DF011D928A95E9F72C960FB629
:102B6000F894DEBF0FBECDBFDF91CF911F910895C6
:102B7000EF92FF920F931F93CF93DF938C01892BDA
:102B800009F46CC0F12CEE24E394E8012196F801DD
:102B90008491843740F4843008F051C0813081F052
:102BA000823019F15BC0853709F444C0A8F19CE775
:102BB000980F903708F052C08F770E948E0F41C057
:102BC0000E5F1F4FFE01849190E2980F983050F4F1
:102BD0008770FE2D01C0FF0F8A95EAF78F2F0E94A4
:102BE000401814C00E94C40E2DC00E5F1F4FFE017E
:102BF000849190E2980F983060F48770FE2D01C0A8
:102C0000FF0F8A95EAF78F2F0E9446180E946B18D3
:102C100019C00E948E0F16C00E5F1F4FFE01C49197
:102C2000CC2381F08FE99FE00197F1F700C000000D
:102C3000C150F6CF0E5F1F4FFE01F49003C00E94FB
:102C4000C40E8E018F2D882309F49FCFEFE9FFE09A
:102C50003197F1F700C000008150F5CFDF91CF919F
:102C60001F910F91FF90EF900895089508950C948F
:102C700036160C9437160E9439166093F201709341
:102C8000F3018093F4019093F5010C9448120C9495
:102C90003B160F931F930091F2011091F3012091C5
:102CA000F4013091F501602B712B822B932B1F9136
:102CB0000F910C943B160F931F930091F20110910A
:102CC000F3012091F4013091F501602371238223F7
:102CD00093231F910F910C943B160F931F93009118
:102CE000F2011091F3012091F4013091F501602778
:102CF0007127822793271F910F910C943B160C94F8
:102D000036160E947F166093EE017093EF01809358
:102D1000F0019093F1010C94481260E070E0CB0157
:102D20000C9481160F931F9341E050E060E070E037
:102D30008A019B0104C0000F111F221F331F8A95B7
:102D4000D2F7C901B8011F910F910C9481160F930E
:102D50001F9341E050E060E070E004C0440F551F55
:102D6000661F771F8A95D2F78091EE019091EF014F
:102D7000A091F001B091F1018A019B01082B192B60
:102D80002A2B3B2BC901B8011F910F910C9481167E
:102D90000F931F9341E050E060E070E004C0440FE7
:102DA000551F661F771F8A95D2F7409550956095FD
:102DB00070958091EE019091EF01A091F001B0919A
:102DC000F1018A019B01082319232A233B23C9010E
:102DD000B8011F910F910C9481160F931F9341E03E
:102DE00050E060E070E004C0440F551F661F771F7D
:102DF0008A95D2F78091EE019091EF01A091F001B8
:102E0000B091F1018A019B01082719272A273B2746
:102E1000C901B8011F910F910C9481160F931F9354
:102E20000091EE011091EF012091F0013091F1013C
:102E3000602B712B822B932B1F910F910C94811679
:102E40000F931F930091EE011091EF012091F0017B
:102E50003091F10160237123822393231F910F91FD
:102E60000C9481160F931F930091EE011091EF01C6
:102E70002091F0013091F10160277127822793277B
:102E80001F910F910C948116089528E0929F800D58
:102E90001124E82FE695E695E695877051E001C08C
:102EA000550F8A95EAF785E0E89FF0011124E45474
:102EB000FE4F20E030E070E04081CB01022E02C0E6
:102EC000969587950A94E2F78170819584278523EA
:102ED000842781932F5F3F4F2530310569F708958F
:102EE00028E0929F800D1124682F6695669566955F
:102EF000982F977085E0689FB001112440E050E062
:102F000080E0FB01E40FF51FE454FE4F208130E028
:102F1000092E02C0369527950A94E2F721703327CF
:102F2000042E01C0220F0A94EAF7822B4F5F5F4FF5
:102F30004530510531F70895BF92CF92DF92EF925D
:102F4000FF920F931F93CF93DF938C01C090EE01FC
:102F5000D090EF01E090F001F090F1018091F2014A
:102F60009091F301A091F401B091F501C82AD92AFA
:102F7000EA2AFB2ACFE1D0E0D701C6010C2E04C01B
:102F8000B695A795979587950A94D2F780FD04C0CA
:102F9000219790F7B12C07C0BC2EB8018C2F0E944E
:102FA0001A0B0197A9F38B2DDF91CF911F910F91F0
:102FB000FF90EF90DF90CF90BF900895CF93DF9375
:102FC000EC010E949C17BE010E941A0BDF91CF9169
:102FD00008951F93CF93DF93EB0190918301992381
:102FE00021F0CB010E94DE1713C0882349F0CB01EA
:102FF0000E949C17182F682FCE010E94451704C00D
:10300000CB010E947017182FBE01812F0E941A0B4E
:10301000DF91CF911F9108958091F6018595859557
:10302000859508958091F601877008959091F60135
:10303000977081E009F480E008958091020208957C
:1030400090910202892B80930202089580959091BD
:1030500002028923809302020895109202020895C9
:1030600090910102892B809301020895809590919F
:1030700001028923809301020895109201020895AC
:1030800090910002892B8093000208958095909181
:10309000000289238093000208951092000208958F
:1030A0008091F701089508950C9453180C945418C6
:1030B0009091F701981721F08093F7010C9456181E
:1030C00008958091F701882329F01092F70180E09C
:1030D0000C9456180895E0911C01F0911D01809107
:1030E00002028083E0911C01F0911D01908180918A
:1030F0000102892B8083E0911C01F0911D019081D8
:1031000080910002892B80838091F701882381F0D0
:10311000E0911C01F0911D019081892B80838091A9
:103120001C0190911D010E944F1981110E9461188C
:1031300080911C0190911D010C94860D0C945318E4
:1031400098E0899F90011124262B2093F6010E947C
:10315000A7168091F6018595859585950C949E1806
:103160001092F60180E00C949E182091F601809553
:1031700082238093F601982F977079F430E0482FDE
:10318000082E000C550B2417350739F085958595C9
:1031900085950E94C8160C94B018089580E090E0C0
:1031A0000E94552321E08D3E9E4F09F020E0822FA2
:1031B000089582E090E00C944D2383E090E00C941D
:1031C0004D23682F83E090E00C945B2384E090E033
:1031D0000C944D23682F84E090E00C945B23AB01AA
:1031E000BC018FE090E00C946D23AB01BC0183E146
:1031F00090E00C946D2360E070E0CB010C94F51826
:1032000060E070E0CB010E94EF180C94FB186DEEAB
:103210007EEF80E090E00E94792360E082E090E021
:103220000E945B2360E083E090E00E945B231092A9
:10323000F2011092F3011092F4011092F50160E096
:1032400084E090E00E945B2360E085E090E00E94D3
:103250005B2360E086E090E00E945B236FEF87E0F5
:1032600090E00E945B2340E050E0BA0188E090E0EB
:103270000E946D2360E08DE090E00E945B2340E0BF
:1032800050E0BA0188E190E00E946D2360E087E1A0
:1032900090E00E945B230C9400190C940719FC0128
:1032A000329697E080E0915029F021912223D9F3C2
:1032B0008F5FF9CF08959C01FC0132969FEF80E06B
:1032C0004191461789F09F3F19F4411101C0982F91
:1032D0008F5F8630A9F79F3F39F0F901E90FF11DA3
:1032E00097FDFA956283089508959C012A5F3F4FE8
:1032F000FC014281461301C0128201968217930796
:10330000B9F708950C945B190C947519029626E090
:10331000FC0111922A95E9F7089508950C948D19EE
:103320000C948D19CF930E9490190E9423070E943C
:103330008E19C0E08C2F0E948307811104C0CF5FDB
:10334000CA30C1F701C081E0CF9108950C948D1966
:103350000C94A6190E94A81980912602843049F184
:103360001092040220E488E190E00FB6F894A8954A
:10337000809360000FBE2093600080E00E9485096A
:103380000E94A81983B7817F846083BF83B781605F
:1033900083BF7894889583B78E7F83BF0FB6F894E8
:1033A000A895809160008861809360001092600011
:1033B0000FBE08950C948D190E945A120E947A0D26
:1033C0000E9485090C94DA191F920F920FB60F9282
:1033D00011248F939F93AF93BF9380910402811127
:1033E00013C080911C0290911D02A0911E02B09109
:1033F0001F024196A11DB11D80931C0290931D02D6
:10340000A0931E02B0931F02BF91AF919F918F9125
:103410000F900FBE0F901F90189582E084BD93E02F
:1034200095BD9AEF97BD80936E0008952FB7F894DD
:1034300080911C0290911D02A0911E02B0911F026A
:103440002FBF0895CF92DF92EF92FF920F931F93B9
:103450002FB7F89440911C0250911D0260911E02FA
:1034600070911F022FBF6A017B01EE24FF248C01A3
:1034700020E030E0C016D106E206F30610F4415019
:1034800051099A01281B390BC9011F910F91FF9017
:10349000EF90DF90CF90089578941F920F920FB61F
:1034A0000F9211248F939F93AF93BF9380911C022F
:1034B00090911D02A0911E02B0911F020196A11DC4
:1034C000B11D80931C0290931D02A0931E02B09325
:1034D0001F02BF91AF919F918F910F900FBE0F90E0
:1034E0001F90189587E797E790930108809300084D
:1034F0009AE088E10FB6F894A895809360000FBE1B
:1035000090936000FFCF0E94CE18811102C00E94EC
:103510004D190E94D918809303020E94E61890E08A
:1035200090932102809320020E94DD18682F70E0A2
:1035300080E090E00C9447168091080280FF0BC059
:103540006091210185E0689FB00111247595679510
:10355000759567952BC081FF09C06091210185E0B9
:10356000689FB00111247595679520C082FF07C040
:103570006091210185E0689FB001112417C09091EE
:1035800007029923D1F060912001961788F72091C6
:10359000210185E0289F90011124929FA001939F13
:1035A000500D112470E0CA010E9412236038710589
:1035B00040F46115710519F406C065E070E0862FCE
:1035C00008958FE7089581E008958091080280FFB3
:1035D00008C060911F0170E07595679575956795B6
:1035E00021C081FF06C060911F0170E0759567954D
:1035F00019C082FF04C060911F0170E010C090915B
:103600000702992399F060911E019617A0F7809107
:103610001F01899FC001112470E00E9412236038AD
:10362000710540F46115710519F406C061E070E0A0
:10363000862F08958FE7089581E00895803F21F453
:103640000E949C1A819504C0813F29F40E949C1A13
:1036500080930C020895823F21F40E949C1A819568
:1036600004C0833F29F40E949C1A80930B020895A2
:10367000893F19F40E94E51A05C08A3F31F40E947F
:10368000E51A819580930D0208958B3F21F40E94E5
:10369000E51A819504C08C3F29F40E94E51A8093B5
:1036A0000E020895843F21F480910A02816017C0C0
:1036B000853F21F480910A02826011C0863F21F487
:1036C00080910A0284600BC0873F21F480910A0236
:1036D000886005C0883F31F480910A028061809340
:1036E0000A0208958D3F21F48091080281600BC089
:1036F0008E3F21F480910802826005C08F3F29F43B
:10370000809108028460809308020895803F39F414
:1037100080910C0287FF6CC010920C0269C0813F3F
:1037200029F480910C021816BCF362C090910B0230
:10373000823F29F497FF5CC010920B0259C0833F6F
:1037400019F41916CCF354C0893F41F480910D024D
:1037500018160CF04DC010920D024AC08A3F29F491
:1037600080910D0287FF44C0F6CF8B3F39F48091E2
:103770000E0287FF3DC010920E023AC08C3F29F422
:1037800080910E021816BCF333C0843F21F480915F
:103790000A028E7F17C0853F21F480910A028D7F37
:1037A00011C0863F21F480910A028B7F0BC0873FB6
:1037B00021F480910A02877F05C0883F31F480910F
:1037C0000A028F7E80930A0213C08D3F21F48091FC
:1037D00008028E7F0BC08E3F21F4809108028D7FFE
:1037E00005C08F3F29F4809108028B7F80930802E7
:1037F00080910B0281110EC080910C0281110AC0D0
:1038000080910D02811106C080910E02811102C0CB
:1038100010920702089589E092E00E94910D0E94A3
:10382000161A909306028093050208951F93CF9372
:10383000DF9380910502909106020E94221AAC014A
:1038400090910702992321F02091220130E006C0D7
:10385000209123018AE0289F9001112442175307E9
:1038600008F46EC080910B02C0910C02D0910D0241
:1038700010910E02811107C0C1115EC0D1115CC050
:1038800011115AC05DC09F3F19F09F5F90930702CE
:10389000181624F40E949C1A80930B0280910B024C
:1038A00087FF05C00E949C1A819580930B021C160D
:1038B00024F40E949C1A80930C0280910C0287FFD2
:1038C00005C00E949C1A819580930C0240910B02C6
:1038D000442379F030910C02332359F025EB420355
:1038E000A001112450930B023203C00111249093C4
:1038F0000C021D1624F40E94E51A80930D0280919B
:103900000D0287FF05C00E94E51A819580930D0284
:10391000111624F40E94E51A80930E0280910E0283
:1039200087FF05C00E94E51A819580930E02DF9102
:10393000CF911F910C940B1C9F3F09F0A6CFB7CFDE
:10394000DF91CF911F910895E9E0F2E086E0DF0179
:103950001D928A95E9F710920702109208020895C5
:103960008091170208950895CF93DF93EC010E9490
:103970009E1E823011F08430F9F482E08093E900D9
:103980008FEF9091E800815095FD06C095ED9A95D6
:10399000F1F700008111F5CF8091E80085FF0CC0A0
:1039A00040E050E066E070E0CE010E94BB1E8091D6
:1039B000E8008E778093E800DF91CF910895CF9350
:1039C000DF93EC010E949E1E823011F0843039F5A5
:1039D00081E08093E9008FEF9091E800815095FDA0
:1039E00006C095ED9A95F1F700008111F5CF809111
:1039F000E80085FF14C040E050E068E070E0CE01D0
:103A00000E94BB1E8091E8008E778093E80088E0DA
:103A1000FE01AFE0B2E001900D928A95E1F7DF91EF
:103A2000CF910895089580912502811109C00E94C7
:103A30004E200E94AB208091E20084608093E200DF
:103A40000895109225020895089508950C94DC19A4
:103A500042E061EC81E00E94C71F42E261EC82E03B
:103A60000C94C71F80912802833009F460C030F4A1
:103A7000813071F0823009F499C008958A3009F4D8
:103A800085C08B3009F46BC0893009F0A7C020C015
:103A900080912702813A09F0A1C08091E800877FD8
:103AA0008093E80080912B0290912C02892B21F4C5
:103AB00068E08FE092E003C060E080E090E070E0BA
:103AC0000E94081F8091E8008B778093E80008959A
:103AD00080912702813209F081C080912B02909160
:103AE0002C02029708F07AC08091E800877F8093CB
:103AF000E8008091E80082FD05C0809126028111D6
:103B0000F8CF6CC02091F3008091F20090E0922BEE
:103B1000029729F48091F1008B7F813021F480910C
:103B2000F100809317028091E8008B7753C0809159
:103B30002702813A09F052C080912B0290912C0209
:103B4000892B09F04BC08091E800877F8093E800C3
:103B50008091E80080FFFCCF80912E0136C08091DB
:103B600027028132D9F580912B0290912C02892B6A
:103B7000A9F58091E800877F8093E8000E94FC1FF0
:103B80008091290280932E010C945A128091270271
:103B9000813221F58091E800877F8093E8000E94C0
:103BA000FC1F80912A0280931802089580912702B9
:103BB000813AA1F48091E800877F8093E8008091AA
:103BC000E80080FFFCCF809118028093F100809183
:103BD000E8008E778093E8000C94FC1F089584B76A
:103BE000877F84BF0FB6F894A895809160008861A4
:103BF00080936000109260000FBE80E880936100A7
:103C0000109261000E94D70D0E944E200E94AB20AE
:103C10008091E20084608093E20078940E94F72211
:103C20000E94DF0D84E291E00E94750D80912602D2
:103C3000853069F40E94AA19809124028823B1F387
:103C40000E949219882391F30E94A51EEFCF0E9433
:103C5000E70D0E94F722EACF0C942E1E292F33275E
:103C600023303105C9F060F42130310581F0223074
:103C7000310509F04AC08BE390E02CEC36E049C0F6
:103C80002132310511F12232310579F13EC082E154
:103C900090E027E037E03DC099278130910561F041
:103CA00040F08230910559F0039779F5E6EAF6E0A5
:103CB00008C0E8ECF6E005C0ECEBF6E002C0ECEA88
:103CC000F6E0849190E09F0124C06115710541F0F8
:103CD00061307105D1F489E090E027EF36E019C03A
:103CE00089E090E02EED36E014C06115710541F0D9
:103CF0006130710551F48FE490E029E137E009C0AB
:103D000080E490E028E637E004C080E090E020E026
:103D100030E0FA013183208308950895CF93C82FAE
:103D20000E948D1EC0931902CF91089580912602A2
:103D3000843011F081E0089582E0089580911902A5
:103D4000811102C00C94961E089580E189BD82E124
:103D500089BD09B400FEFDCF8091D8008F7D80938E
:103D6000D8008091E00082608093E0008091E000C4
:103D700081FDFCCF0895CF92DF92EF92FF920F93D7
:103D80001F93CF93DF93EC018B017A010E941B20DC
:103D9000811135C0E114F10439F0F701808191817E
:103DA000081B190BC80FD91FC12CD12C01151105E7
:103DB00029F18091E80085FD18C08091E8008E7798
:103DC0008093E8000E94F722E114F10449F0F70122
:103DD00080819181C80ED91ED182C08285E00FC03A
:103DE0000E941B20882311F30AC089918093F1005F
:103DF00001501109FFEFCF1ADF0AD8CF80E0DF9121
:103E0000CF911F910F91FF90EF90DF90CF90089589
:103E100020912D0230912E022617370748F06115A8
:103E2000710539F42091E8002E772093E80001C055
:103E3000B901FC0120E06115710579F1809126023C
:103E40008823F1F18530F1F18091E80083FD3CC0D9
:103E50008091E80082FD2EC08091E80080FFEBCFCA
:103E60002091F3008091F20090E0922B6115710592
:103E700051F08830910538F421912093F100615080
:103E800071090196F3CF21E0089709F020E08091B5
:103E9000E8008E778093E800CECF2111CFCF0AC003
:103EA00080912602882361F0853061F08091E800DE
:103EB00083FD0AC08091E80082FFF2CF80E0089580
:103EC00082E0089583E0089581E0089520912D0215
:103ED00030912E022617370748F06115710539F425
:103EE0002091E8002E772093E80001C0B901FC0181
:103EF00020E06115710591F180912602882309F473
:103F000040C0853009F43FC08091E80083FD3DC08A
:103F10008091E80082FD2FC08091E80080FFE9CF0A
:103F20002091F3008091F20090E0922B61157105D1
:103F300059F08830910540F424912093F100319696
:103F4000615071090196F2CF21E0089709F020E055
:103F50008091E8008E778093E800CBCF2111CCCF01
:103F60000AC080912602882361F0853061F080913B
:103F7000E80083FD0AC08091E80082FFF2CF80E074
:103F8000089582E0089583E0089581E00895982FD0
:103F9000973068F59093E900981739F07091EC002C
:103FA0002091ED005091F00003C0242F762F50E0B7
:103FB00021FD02C09F5FECCF3091EB003E7F30933C
:103FC000EB003091ED003D7F3093ED003091EB0040
:103FD00031603093EB007093EC002093ED00509330
:103FE000F0002091EE0027FDE5CF80E008958F706E
:103FF0008093E90081E008958091270287FF11C036
:104000008091E80082FD05C0809126028111F8CFE1
:1040100011C08091E8008B770BC080912602882325
:1040200049F08091E80080FFF8CF8091E8008E771A
:104030008093E80008952091E4003091E50095E632
:104040004091EC00842F817040FF23C08091E800F4
:1040500080FD1DC080912602882399F0853099F05B
:104060008091EB0085FD11C04091E4005091E50086
:104070002417350729F3915011F09A01E1CF84E01C
:10408000089582E0089583E0089581E0089580E036
:1040900008954091E80042FFDDCF08950E94BC20C2
:1040A0000E94C420E0EEF0E0808181608083E8ED32
:1040B000F0E080818F77808319BCA7EDB0E08C9110
:1040C0008E7F8C9380818F7E80831092250208954D
:1040D0000F931F93CF93DF930E94BC200E94C420B4
:1040E000C8EDD0E088818F77888388818068888355
:1040F00088818F7D888319BC10922602109222023B
:10410000109224021092230200EE10E0F801808148
:104110008B7F808388818160888342E060E080E0DB
:104120000E94C71FE1EEF0E080818E7F8083E2EE87
:10413000F0E0808181608083808188608083F801E5
:1041400080818E7F8083888180618883DF91CF9199
:104150001F910F910895E8EDF0E080818F7E8083BC
:10416000E7EDF0E080818160808384E082BF81E0C0
:10417000809325020C946820E8EDF0E080818E7F2A
:1041800080831092E20008951092DA001092E1000C
:1041900008951F920F920FB60F9211242F933F9301
:1041A0004F935F936F937F938F939F93AF93BF933F
:1041B000EF93FF938091E10082FF0BC08091E200BA
:1041C00082FF07C08091E1008B7F8093E1000E9415
:1041D000F6228091DA0080FF1FC08091D80080FF16
:1041E0001BC08091DA008E7F8093DA008091D90025
:1041F00080FF0DC080E189BD82E189BD09B400FE68
:10420000FDCF81E0809326020E94131D05C019BCDA
:10421000109226020E94211D8091E10080FF19C0AA
:104220008091E20080FF15C08091E2008E7F809334
:10423000E2008091E20080618093E2008091D800EA
:1042400080628093D80019BC85E0809326020E948A
:10425000251D8091E10084FF30C08091E20084FF41
:104260002CC080E189BD82E189BD09B400FEFDCF8B
:104270008091D8008F7D8093D8008091E1008F7E5F
:104280008093E1008091E2008F7E8093E200809134
:10429000E20081608093E20080912202882311F085
:1042A00084E007C08091E30087FD02C081E001C087
:1042B00083E0809326020E94261D8091E10083FF07
:1042C00024C08091E20083FF20C08091E100877FBD
:1042D0008093E10082E08093260210922202809176
:1042E000E1008E7F8093E1008091E2008E7F8093D9
:1042F000E2008091E20080618093E20042E060E0B1
:1043000080E00E94C71F0E94241DFF91EF91BF9182
:10431000AF919F918F917F916F915F914F913F915D
:104320002F910F900FBE0F901F9018951F93CF9352
:10433000DF93CDB7DEB7AA970FB6F894DEBF0FBEF6
:10434000CDBFE7E2F2E08091F100819322E0EF320D
:10435000F207C9F70E94321D8091E80083FF2EC149
:104360008091270290912802492F50E04A30510550
:1043700008F024C1FA01ED55FF4F0C942623803834
:1043800021F0823809F01AC108C08091230290916F
:104390002402992389F082600FC080912B028F70D4
:1043A000873008F00BC18093E9008091EB0085FB1A
:1043B000882780F91092E9009091E800977F909308
:1043C000E8008093F1001092F100D1C0282F2D7FDA
:1043D00009F0F4C0882319F0823061F0EFC08091B9
:1043E0002902813009F0EAC0933009F080E080931F
:1043F00024022EC08091290281112AC080912B02B3
:104400008F702FEF280F263008F0D8C08093E90076
:104410002091EB0020FF1CC0933021F48091EB0031
:10442000806214C09091EB0090619093EB0021E0CA
:1044300030E0A90102C0440F551F8A95E2F740936E
:10444000EA001092EA008091EB0088608093EB0014
:104450001092E9008091E800877F8093E8000E9435
:10446000FC1FACC08111AAC0109129021F77809156
:10447000E3008078812B8093E3008091E800877FC0
:104480008093E8000E94FC1F8091E80080FFFCCF31
:104490008091E30080688093E300111102C082E004
:1044A00001C083E08093260289C08058823008F0E2
:1044B00085C08091290290912A028C3D53E0950796
:1044C00079F583E08A838AE289834FB7F894DE0125
:1044D000139620E03EE051E2E32FF0E050935700C6
:1044E000E49120FF03C0E295EF703F5FEF708E2FE5
:1044F00090E0EA3010F0C79601C0C0968D939D936E
:104500002F5F243149F74FBF8091E800877F809368
:10451000E8006AE270E0CE0101960E94081F16C012
:1045200060912B0270912C02AE014F5F5F4F0E9491
:104530002C1EBC01892B09F441C09091E800977FA3
:104540009093E80089819A810E94661F8091E8001B
:104550008B778093E80032C0803881F58091E80045
:10456000877F8093E800809122028093F100809100
:10457000E8008E7772CF811121C08091290290913D
:104580002A0299270297D4F48091E800877F8093CC
:10459000E80080912902809322020E94FC1F8091F2
:1045A0002202811106C08091E30087FD02C081E0F4
:1045B00001C084E0809326020E94281D8091E800BB
:1045C00083FF0AC08091E800877F8093E800809194
:1045D000EB0080628093EB00AA960FB6F894DEBFE2
:1045E0000FBECDBFDF91CF911F9108950895CF9356
:1045F000809126028823A1F0C091E900CF709091AC
:10460000EC00892F817090FD80E8C82B1092E900A2
:104610008091E80083FD0E949621CF70C093E9004D
:10462000CF91089597FB072E16F4009407D077FDDD
:1046300009D00E942C2307FC05D03EF4909581956B
:104640009F4F0895709561957F4F0895EE0FFF1F5E
:104650000590F491E02D0994AA1BBB1B51E107C002
:10466000AA1FBB1FA617B70710F0A61BB70B881F02
:10467000991F5A95A9F780959095BC01CD01089591
:10468000FB01DC0104C08D910190801921F441509F
:104690005040C8F7881B990B0895F999FECF92BD39
:1046A00081BDF89A992780B50895A8E1B0E042E06D
:1046B00050E00C948123262FF999FECF92BD81BD45
:1046C000F89A019700B4021639F01FBA20BD0FB650
:1046D000F894FA9AF99A0FBE08950396272F0E942C
:1046E0005C230E945B23252F0E945C23242F0C94C3
:1046F0005C230196272F0E945C230C945B23DC0132
:10470000CB01FC01F999FECF06C0F2BDE1BDF89ADC
:10471000319600B40D9241505040B8F70895F89486
:02472000FFCFC9
:1047220005015F01000000015D015F0105600101FB
:104732005D015E01000000056501FFFFF801280828
:10474200140A321EB01CDF1CB41C121DB31C01F46F
:10475200F5F6F731333236946697C634000000001E
:02476200000055
:00000001FF
