:100000000C940F030C9456030C9456030C940E049A
:100010000C9456030C9456030C9456030C945603FC
:100020000C9456030C9456030C943F200C9413210B
:100030000C9404190C9456030C9456030C94560318
:100040000C9456030C9456030C9456030C945603CC
:100050000C9456030C944F190C9456030C945603AD
:100060000C9456030C9456030C9456030C945603AC
:100070000C9456030C9456030C9456030C9456039C
:100080000C9456030C9456030C9456030C9456038C
:100090000C9456030C9456030C9456030C9456037C
:1000A0000C9456030C9456030C9456030102E26020
:1000B0000103E2000102E2600103E200E300290023
:1000C0001E001F002000210022000100E2002B0082
:1000D00014001A000800150017002502490001004D
:1000E00004001600070009000A0030004A00010061
:1000F0001D001B0006001900050030020100010070
:1001000001008B00E0002C00E1000A5D01002300EB
:1001100024002500260027002D004C0026021C008C
:1001200018000C00120013002F002A0032000B00F0
:100130000D000E000F0033003400280032021100C1
:10014000100036003700380087004D000B5D2A0094
:1001500028002E008A00010001000100E3002900B0
:100160001E001F002000210022000100E2002B00E1
:1001700014001A00070009000A00250249000100C6
:1001800004001200080018000C0030004A000100B2
:100190001D001B00060019000500300201000100CF
:1001A00001000E5DE0002C00E1000A5D010023006B
:1001B00024002500260027002D004C0026021C00EC
:1001C00016001700150013002F002A0032000B0044
:1001D0000D000E000F003300340028003202110021
:1001E000100036003700380087004D000B5D2A00F4
:1001F00028002E000F5D0100010001000100010038
:100200003A003B003C003D003E00010001000100BF
:1002100001000100010001000100010001000100D6
:100220000100010001000100085DDE5C0100010029
:100230000100010001000100095D005C01000100F6
:1002400001000100E0002C00E100010001003F007E
:10025000400041004200430044004500010001000D
:100260000100010001000100010001000100500037
:10027000510052004F000100010001000100010087
:100280000100010001000100010001000100010066
:100290000100010001000100010001000100010056
:1002A0003A003B003C003D003E000100010001001F
:1002B0000100010001000100010001000100010036
:1002C0000100010001000100085DDE5C0100010089
:1002D0000100010001000100095D005C0100010056
:1002E00001000100E0002C00E100010001003F00DE
:1002F000400041004200430044004500010001006D
:10030000F400F600F500F900010001000100F20020
:10031000F100F000F300FA000100010001005000BC
:10032000510052004F0001000100010001000100D6
:1003300001000100010001000100010001000100B5
:1003400001000100010001000100010001000100A5
:100350000100010001000100010001000100010095
:100360000100010001000100010001000100010085
:100370000100010001000100010001000100010075
:100380000100010001000100010001000100010065
:100390000100010001000100010001000100010055
:1003A0000100010001000100010001000100010045
:1003B0000100010001000100010001000100010035
:1003C0000100010001000100010001000100010025
:1003D000010001000100010001000100E30029000B
:1003E0001E001F002000210022000100E2002B005F
:1003F0002E0287021F0224022F0201004900E000A2
:1004000033022D0034022D02340001004A000100A5
:100410001E02380220022102220201000100010016
:1004200001000E5DE0002C00E1000A5D01002300E8
:1004300024002500260027000100010001002302FE
:1004400025023602300230002A0001000100890234
:1004500026023702320232002800010001000100AA
:100460002F002E003600010001004D000B5D2A0018
:1004700028002E000F5D01000100010000000000B7
:10048000000000002A2B28000000000000000000EF
:100490000000000000000029000000002C1E342095
:1004A000212224342627252E362D3738271E1F20BB
:1004B0002122232425263333362E37381F04050600
:1004C0000708090A0B0C0D0E0F1011121314151644
:1004D0001718191A1B1C1D2F3130232D3504050642
:1004E0000708090A0B0C0D0E0F1011121314151624
:1004F0001718191A1B1C1D2F3130354C0000000035
:1005000000000000000000000000000000000000EB
:100510007E0F00D4FFFFFFC7000000780403300007
:1005200000000E0366006C006100670037003400B5
:1005300000000A0378006300640030000000040338
:10054000090409023B00020100A032090400000175
:10055000030101000921110100012240000705816A
:100560000308000A09040100010300000009211129
:10057000010001224F000705820320000A1201102A
:100580000100000008EDFE0000010001020301056A
:10059000010902A10185020901A10005091901292A
:1005A00005150025019505750181029501750381E9
:1005B000010501093009311581257F9502750881F2
:1005C0000609381581257F950175088106050C0AF5
:1005D00038021581257F950175088106C0C0050187
:1005E0000906A101050719E029E71500250195086D
:1005F000750181029501750881010507190029FF20
:10060000150026FF009506750881000508190129C7
:1006100005950575019102950175039101C011249D
:100620001FBECFEFDAE0DEBFCDBF04B603FE27C0AA
:100630008091330290913402A0913502B09136023C
:100640008730904BA740B04BD1F4109233021092F8
:100650003402109235021092360214BE84B7877F9E
:1006600084BF0FB6F894A89580916000886180934C
:100670006000109260000FBEE0E0F8E3099511E021
:10068000A0E0B1E0E8EEF6E402C005900D92A434DB
:10069000B107D9F722E0A4E4B1E001C01D92A33371
:1006A000B207E1F70E94701D0C9442230C940000E5
:1006B0008EE14A9B02C08150E1F74A9BFECF08952C
:1006C0005A9880E28A95F1F75A9A0895FC013BE026
:1006D0003A95F1F720E090E080E031E040E14A9582
:1006E000F1F7880F4A9B02C08160232742E04A95B8
:1006F000F1F7000040E14A95F1F79F5F6913EECFF3
:1007000090E19A95F1F799B132E03A95F1F700004E
:1007100040E14A95F1F792FB992790F992272081C1
:10072000920F90830895EF92FF920F931F93CF93B0
:10073000DF930F92CDB7DEB719828C017C01E60EF4
:10074000F11C0E151F0561F481E09981911180E083
:100750000F90DF91CF911F910F91FF90EF9008952F
:100760000E94580368E0CE0101960E946603F801DA
:1007700081938F01E6CF909346018093450160936A
:100780004401529A5A9A08959093460180934501E4
:100790006093440152985A9AEA9AE9E6F0E080811F
:1007A0008F7C808308956150770B91E001C0990F91
:1007B0006A95EAF720E031E0911108C0222391F018
:1007C0005A9A80E28A95F1F75A980895492F48235A
:1007D00039F05A9A232740E24A95F1F79695ECCFE3
:1007E0005A98F9CF5A98EDCFFF920F931F93CF935A
:1007F000DF93EC018C01060F111DC017D10731F4F6
:10080000DF91CF911F910F91FF900895F9900E9471
:10081000600368E08F2D0E94D303EFCF1F920F92E9
:100820000FB60F9211240F931F932F933F934F9363
:100830005F936F937F938F939F93AF93BF93EF9348
:10084000FF93CF93DF930F92CDB7DEB719820E944B
:10085000580367E0CE0101960E946603082F0695B3
:1008600006950695982F92959570202F2570920FDA
:10087000292F2370969596958770920F891344C0FF
:100880008981811141C0809144018017E8F120E104
:100890002A95F1F75A9A529A82E08A95F1F700C0A8
:1008A000A8E00A9FC0011124009145011091460162
:1008B000080F191F5A98F8016581662321F0868177
:1008C00097810E94F4030E946003F0E1FA95F1F72A
:1008D0005A9852985A9A20E12A95F1F7D80112961F
:1008E0006C911297662331F113968D919C910E9421
:1008F0009303D801ED91FC91882311F088E001C0A9
:1009000082E080830E9458030F90DF91CF91FF9186
:10091000EF91BF91AF919F918F917F916F915F9177
:100920004F913F912F911F910F910F900FBE0F90FC
:100930001F901895ED91FC91E1CF0F931F93CF93EA
:10094000DF9320914401281719060CF471C08C0123
:1009500093E0000F111F9A95E1F7C0914501D091E6
:100960004601C00FD11FF894529A5A9825E02A9553
:10097000F1F70000982F969595708570980F892F44
:10098000837096959695980F092B0E94600300C07E
:1009900067E0802F0E94D30380E18A95F1F7529897
:1009A0005A9A4A9B17C087E090E04A9915C06D811A
:1009B000662321F18E819F810E94930381111EC0C5
:1009C000529A5A9AE881F98182E08083789482E091
:1009D00090E00DC000C0E5CF019771F4529A5A9A89
:1009E000E881F98181E08083789481E090E0DF9173
:1009F000CF911F910F91089500C0D7CF0E94580347
:100A000020E22A95F1F75A98529A80E18A95F1F7F7
:100A10006A81662321F08B819C810E94F4030E94ED
:100A20006003E881F9811082789490E080E0DFCF64
:100A300084E090E0DCCFCF93DF93A9E3B1E04EE315
:100A400051E0C1E0D0E08D91E82FE295EF70F0E049
:100A500061A18F709E0101C0220F8A95EAF7922F43
:100A60009095962391A382A1822B82A34A175B07BC
:100A700051F7DF91CF91089508950C943C050E94A1
:100A8000C4060E941B05A1E3B1E061E070E08D9116
:100A9000E82FE295EF70F0E041A18F709B0101C05B
:100AA000220F8A95EAF7922F9095942391A382A121
:100AB000822B82A381E0A933B80749F7209A559A7F
:100AC000289A5D9AE1E5F1E0A7E4B1E011921D9268
:100AD00081E0EB35F807D1F70C9414099F92AF929F
:100AE000BF92CF92DF92EF92FF920F931F93CF931B
:100AF000DF9380910101C5E0D0E0882311F0D0E0C0
:100B0000C0E089E3C82E81E0D82EAE01495B5E4F7C
:100B10007A018A01AA24A394B12C25E0922EF60131
:100B200081916F01E82FE295EF70F0E021A18F70C5
:100B3000A50102C0440F551F8A95E2F7CA01922F02
:100B4000982B91A392A18095892382A350EA5A956C
:100B5000F1F7E1E3F1E020E050E040E03191A32F34
:100B6000A295AF70B0E090968C9190E03F7002C07B
:100B7000959587953A95E2F780FD39C0C501042E19
:100B800001C0880F0A94EAF7282B4F5F5F4F483067
:100B9000510521F7F8018081821719F02083909286
:100BA00000010E941B050F5F1F4FFEE3CF16F1E00F
:100BB000DF0609F0B4CF80910001882359F08150FD
:100BC000809300018823A9F08FE99FE00197F1F756
:100BD00000C0000081E0DF91CF911F910F91FF9045
:100BE000EF90DF90CF90BF90AF909F90089580E0FE
:100BF000CBCFCF5ADE4FF70191917F0199938F5F51
:100C00008530C9F7E7CFCF93DF9320910101D0E082
:100C1000C0E0222311F0C5E0D0E00E94DF0600977B
:100C200031F0029709F4289881E090E00BC0289AEF
:100C3000DE01AF5ABE4F25E0E7E6F1E001900D92EC
:100C40002A95E1F7DF91CF9108950E946E0580917A
:100C50000101E5E0F0E0882311F0F0E0E0E0EF5A78
:100C6000FE4F90E080E020E0DC01A959BE4F4C919E
:100C70003191431321E03C93019685309105A1F712
:100C800080915F01820F80935F010895CF93DF937E
:100C90000E94A806882309F440C00E946E05809136
:100CA0000101C5E0D0E0882311F0D0E0C0E0CF5AC8
:100CB000DE4F45E050E0BE0182E691E00E94F32263
:100CC00025E0FE01A2E6B1E001900D922A95E1F740
:100CD0000E940306892BE9F05D9880915B018F5F8C
:100CE00080935B01863078F080910101F0E0E0E0D4
:100CF000882311F0E5E0F0E0EF5AFE4F10821182F8
:100D00001282138214820E941C0981E0DF91CF912C
:100D100008955D9A10925B01F6CF0E94250680919E
:100D20000101B0E0A0E0882311F0A5E0B0E0AF5AE7
:100D3000BE4F85E0E2E6F1E001900D928A95E1F781
:100D4000E2CFE82FF0E0EF5AFE4F8081089508953A
:100D500080915C01811111C08091D80080618093E5
:100D6000D8008AE18A95F1F700C09091D900892FC7
:100D7000817090FF82E080935C0181E090915C0142
:100D8000913009F080E008950E94A8068093010147
:100D90000E94A806882321F00E94D3067894089523
:100DA0000E94D906FBCF63E070E082E091E00C94F2
:100DB000BB0363E070E082E091E00C94C4030F9306
:100DC0001F93CF93DF938C0190911B0180911A01A7
:100DD000D0E0C0E0981759F082E090E00E949D04B6
:100DE000EC01892B21F480911A0180931B018091E1
:100DF0005D0190915E01082B192B90E080E0012BA2
:100E000011F081E090E00E949D04892B71F48091A3
:100E10005F0180931A0110925E0110925D01CE0174
:100E2000DF91CF911F910F91089581E090E0909311
:100E30005E0180935D01F3CF0E94A80680936C0150
:100E40000C940A080C94C70DCF93DF93EC010E9419
:100E5000C717BE0190E080E0DF91CF910C941D1583
:100E60008F929F92AF92BF92CF92DF92EF92FF92BA
:100E70000F931F93C12CD12C7601C3949701860147
:100E800004C0000F111F221F331F6A95D2F74601BD
:100E9000570104C0880C991CAA1CBB1C8A95D2F768
:100EA000D501C401802B912BA22BB32B0091EE0115
:100EB0001091EF012091F0013091F10108231923E5
:100EC0002A233B2380179107A207B30769F4842FD5
:100ED0001F910F91FF90EF90DF90CF90BF90AF9058
:100EE0009F908F900C947F15842F1F910F91FF90EE
:100EF000EF90DF90CF90BF90AF909F908F900C9429
:100F0000A015CF93DB0188509D458830910508F0EE
:100F10007FC0FC01EC5BFC4D0C94D9221296CC9165
:100F200081E090E0C11109C08C2FCF9108951296F5
:100F3000CC91CC23C9F382E090E00E942407C0E06A
:100F4000F3CF1296CC91CC2381F080916D01811169
:100F500003C081E080936D0182E00E947F1544E030
:100F600063E082E00E943007EACF10926D0182E0D8
:100F70000E94A01544E063E082E00E943007D4CFD5
:100F80001296CC91CC2349F080916D01811103C060
:100F900081E080936D0183E0E0CF83E00E94A015A3
:100FA00010926D01E7CF1296CC9184E0CC2319F01A
:100FB0000E947F15C4CF0E94A015B6CF1296CC9187
:100FC000CC2381F08091240282FBCC27C0F982FDE2
:100FD00004C081E90E94A30EA7CF84EB90E00E9499
:100FE0001109ADCF81E90E94D60E9ECF1296CC9109
:100FF000CC2361F08091240282FBCC27C0F982FDD2
:1010000002C080E9E7CF8CEA90E0E9CF80E9EBCF3E
:10101000C1E08ACF089581E008950C948107089576
:101020000C940F081F93CF93DF9300D000D00F9242
:10103000CDB7DEB749835A836B83309183018981B1
:101040009A8131111DC06623B9F02223A9F00E94B4
:101050007016182F682F89819A810E941B1669814A
:101060007A81812F0F900F900F900F900F90DF914A
:10107000CF911F910C947D090E944816182FEFCF35
:101080000E94701669817A81EDCFFC01262F408184
:1010900051816281738184810C941208CF93DF9314
:1010A000EC0160E00E944508BE01DF91CF910C94F5
:1010B0001008FF920F931F93CF93DF93E82FF0E078
:1010C000E458FB4FF490C82FC695C695C695D0E05E
:1010D000FE01E45FFA4F0491877010E0082E02C011
:1010E000159507950A94E2F701701127C450DB4F5C
:1010F000FE01C491D0E002C0D595C7958A95E2F76C
:10110000C170DD270115110519F081EE0E94A30EB3
:10111000209719F086EE0E94A30E8F2D0E94050FD6
:10112000CD2B19F086EE0E94D60E012B41F081EEF8
:10113000DF91CF911F910F91FF900C94D60EDF910C
:10114000CF911F910F91FF900895EF92FF920F930F
:101150001F93CF93DF938C01F62E8AE0E82EF801DF
:101160008491882309F456C0813009F04FC0E8010A
:101170002196FE018491813051F42196FE01149153
:10118000812F0E94A30E812F0E94D60E08C08230AC
:1011900099F4E8012296FE0184910E94A30E8E012B
:1011A0000F5F1F4F8F2D8150D0F2EFE9FFE0319795
:1011B000F1F700C00000F7CF833029F4E801229650
:1011C000FE018491E1CF843051F7E8012296FE01BF
:1011D000249190E080E0FE0131962053330B2A30B9
:1011E000310548F00197D8F2EFE9FFE03197F1F7C8
:1011F00000C00000F7CFE89EA001E99E500D112429
:10120000C901840F951F2491EF01E5CF0E94590871
:10121000E801C5CFDF91CF911F910F91FF90EF9023
:10122000089560E00C94A5080E94B417811102C0D3
:101230000E9456180C941C070C943D0508950C94BC
:101240001E0981E008950C942109CF93C82F0E94B4
:101250001F098C2FCF910C94230908950E94971198
:101260000E942D092FEF84E39CE0215080409040A4
:10127000E1F700C000000C9473190F931F93CF93F4
:10128000DF93EC0161E00E9445088C01BE010E94E1
:101290000D08882329F1BE01C8010E94D80B8823BC
:1012A000F9F0BE01C8010E94190C8823C9F0BE01E3
:1012B000C8010E943C0D882399F08A81882339F067
:1012C00001158CE5180751F00E3D1C4579F0CE0153
:1012D000DF91CF911F910F910C940B080E942E0962
:1012E00080E0DF91CF911F910F9108950E945618D1
:1012F000F7CF90E080E008950895E72FF0E09AE0BE
:10130000899FE00DF11D112483E0EE0FFF1F8A95E8
:10131000E1F7E60FF11DEE0FFF1FE454FF4F85913B
:1013200094910895FC01EE0FFF1FE45EFA4F859142
:1013300094910895CF93DF930E947D090E94910AB2
:10134000EC01811521E59207E8F5811530E5930759
:1013500008F09BC08F3F910509F0F0F4803F9105A4
:1013600008F085C0803E910580F4803C910508F02E
:1013700080C08130910561F0009751F00497813A67
:10138000910530F0D0E0C0E003C0883E9105D0F771
:10139000CE01DF91CF9108958115904338F4C115A6
:1013A00080E2D807A8F3CE019F7065C0C11590E414
:1013B000D90708F067C0CE019927D3FF60C0EC01C0
:1013C000D86CE6CF811525E5920700F5811534E547
:1013D000930708F08EC0811543E5940708F076C0A6
:1013E000C11582E5D80708F46CC0CE018370992737
:1013F00021E030E002C0220F331F8A95E2F7C69544
:10140000C69580E2C89FE001112457C0C11599E537
:10141000D907A8F4C11528E5D20708F06FC0C11597
:1014200036E5D30708F0AECF8C2F0E94280BC82FCB
:10143000D0E0DC2FCC27CC27DF71D062A9CFC1153B
:101440004AE5D40708F45FC0CE019056811590425A
:1014500008F098CF8D2F8F710E94280B90E0982F65
:10146000882788279F719C012C2BE901E6CFD06546
:101470008FCF805C91090E949209EC0189CFEC0129
:10148000D06C86CFDF70D06A83CFE4E096958795E5
:10149000EA95E1F783702C2F26952695237040E27C
:1014A000249F90011124382B8C2F8370C1E0D0E051
:1014B00002C0CC0FDD1F8A95E2F7C22BD32BDC686C
:1014C00067CFDC2FCC27C16FD06A62CF837099279A
:1014D00021E030E002C0220F331F8A95E2F7C69563
:1014E000C69590E2C99FE0011124C22BD32BDA6884
:1014F0004FCFD82FCC27C46FD06A4ACFDC2FCC2750
:10150000C06FD06A45CF8C2F8F700E94280B34E0BB
:10151000D695C7953A95E1F7CF709C2FEC01D0692D
:1015200037CF82389105B1F1B0F48133910509F4D8
:1015300075C048F48932910509F469C08A32910571
:1015400009F473C008958533910509F459C08933AE
:10155000910501F10895833E9105A9F138F4803E8B
:101560009105F9F0823E910549F10895863E910575
:10157000A9F1873E9105C9F1843E910519F52091A5
:10158000250221FF1FC08091240284FD14C087EE34
:1015900090E00895209124022370A1F080EE90E065
:1015A00008952091240220FD47C03091250230FF8C
:1015B00009C024FF44C090E080E004C020912402D0
:1015C00022FDF7CF08952091240222FD3BC03091E7
:1015D000250230FDE3CF24FFF5CFEDCF209124028B
:1015E00023FFF0CF24FDE7CFD2CF2091240223FDAB
:1015F0002CC03091250231FFEECF84EE90E00895AB
:101600002091240225FFDECF89E290E00895209109
:10161000240225FFD7CF85E390E00895209124028E
:1016200026FFD0CF8AE290E008952091240226FF81
:10163000C9CF81E390E0089589E390E0089583EEB7
:1016400090E0089582EE90E0089586EE90E008958F
:101650009091240292FF06C0282F28712830F9F4B7
:10166000877F846093FF06C0282F28712831F1F40A
:10167000877E84612091250220FF06C0382F3871B3
:101680003830D9F4877F816021FF06C0282F287168
:101690002831D1F4877E816194FD877E0895282FBB
:1016A00024712430F9F68B7F8860DCCF282F2471D9
:1016B000243101F78B7E8861DDCF382F31713130D5
:1016C00019F78E7F8860E0CF282F2171213121F713
:1016D0008E7E8861E1CF0F931F93CF93DF93C62F48
:1016E000D42F022FFC0182818823C9F060937001FE
:1016F0000E94341990936F0180936E0180E28C0FE9
:10170000883008F050C0C77081E001C0880FCA95CA
:10171000EAF7DF91CF911F910F910C94180F109160
:101720007001161335C080916E0190916F010E9477
:1017300040198436910560F5C0E2CD0F1D17B9F050
:1017400080E2810F883040F4177081E001C0880F7B
:101750001A95EAF70E941F0FC83048F481E09D2FC8
:10176000977001C0880F9A95EAF70E94180F802F92
:101770000E94050FC830B8F4D77081E001C0880F0F
:10178000DA95EAF7DF91CF911F910F910C941F0F1B
:1017900080E28C0F883038F4C77081E001C0880F78
:1017A000CA95EAF7EFCFDF91CF911F910F9108957E
:1017B0009C01CB01233F4CE5340731F190F4283DE7
:1017C000FCE53F07E9F0293D4CE5340769F1273D89
:1017D0003C4579F426E241EE61EE0E946B0B80E01D
:1017E0000895253FFCE53F07B9F090F0263F3C45C2
:1017F000B9F0FC0182818823D1F010927001089524
:1018000027E245EE65EEE9CF26E241EE60EEE5CF58
:1018100027E245EE64EEE1CF26E241EE62EEDDCF57
:1018200027E245EE66EED9CF28E241E0EBCF81E03A
:101830000895CF93DF93EC01FB018281882309F4A3
:1018400019C1C230FCE5DF07C0F1C6319CE5D907FC
:1018500030F09E012A5F3C452930310570F50E9429
:10186000CC179093250280932402C031ECE5DE076B
:1018700009F4CFC008F05BC0C8308CE5D80709F484
:10188000B6C088F5C430ECE5DE0709F4A8C0C0F4A2
:10189000C2308CE5D80709F49CC080912402826094
:1018A000C330DC4509F498C0809124029091250250
:1018B0000E94DA170E94971180E0DF91CF9108957E
:1018C000809124028061C630ECE5DE0709F484C013
:1018D000809124028860C730DC4508F47DC0809187
:1018E0002402806279C0CC308CE5D80709F489C025
:1018F00070F4809124028C60CA30ECE5DE0709F4B4
:101900006BC008F478C0809124028E7F65C0CE3011
:101910008CE5D80709F479C0809124028B7FCF3001
:10192000DC4508F459C0809124028F7E55C0CB3F1E
:10193000ECE5DE0709F457C030F5C3318CE5D80774
:1019400009F46FC078F4C131ECE5DE0709F465C035
:10195000C231DC4509F0A8CF0E9497118091240282
:101960008F773AC0C5318CE5D80709F462C008F416
:1019700076C0809125028160CA3FDC4509F094CF92
:101980008093250291CFCF3FFCE5DF0709F44DC0DE
:1019900088F4809125028D7FCD3F9CE5D90781F3A6
:1019A000809125028E7FCE3FDC4550F38091250249
:1019B0008360E6CFC130FDE5DF0709F459C008F4C4
:1019C00044C080E0C230DD4509F06ECF0E94581857
:1019D0006BCF8091240281608093240265CF809137
:1019E00024028460F9CF809125028260C9CF809162
:1019F00024028064F1CF0E949711809124028068B4
:101A0000EBCF809124028D7FE7CF80912402877FE6
:101A1000E3CF809124028F7DDFCF809124028F7BE2
:101A2000DBCF80912402837FD7CF809125028C7FEA
:101A3000A7CF8091240282FB992790F921E0922779
:101A400090FB82F990FB83F9C7CF80912502982FF4
:101A5000909591708E7F892B90FB81F991CF0E9498
:101A6000971190912402892F97FB87F98058B4CF62
:101A700081E0ACCF81E021CFCF93DF93EB018631C2
:101A80009C4511F50E9405179A81992399F08A7A4D
:101A900091E009F490E090937101811109C089E20D
:101AA0000E94E0160E94511780E0DF91CF910895C7
:101AB00085E3F6CF80917101811104C089E20E9413
:101AC000E716F0CF85E3FBCF81E0EFCF909377016E
:101AD000809376010895E0917601F0917701309737
:101AE00021F00190F081E02D099480E00895E091CB
:101AF0007601F0917701309721F00280F381E02D9B
:101B000009940895E0917601F0917701309739F0CA
:101B100022E0DC012C930480F581E02D09940895E6
:101B200020917401309175012817390771F0909355
:101B3000750180937401E0917601F09177013097FF
:101B400021F00680F781E02D09940895209172011B
:101B5000309173012817390771F0909373018093C6
:101B60007201E0917601F0917701309721F00084C5
:101B7000F185E02D0994089585B7806885BF85B704
:101B8000806885BF0895089508950C94C30D089545
:101B90000E94BC0D0E94C40D0C94C50D81E00895F7
:101BA0000C94CE0D0E942B190E943F050E948419AF
:101BB0000C942207AF92BF92CF92DF92EF92FF92E6
:101BC0000F931F93CF93DF93CDB7DEB72A970FB64E
:101BD000F894DEBF0FBECDBF0E9446060E94D00D16
:101BE000882309F45FC089E7A82E81E0B82E10E0B1
:101BF00000E0C02E802F0E94A106E82EF501D190B2
:101C00005F01D81609F448C08091030281FD0E944B
:101C1000A70680E0FF24F394DE249D2D9F21B9F1D7
:101C20008E83CF82EF2081E009F480E088870E94D4
:101C300034198160782F9A8789874E815F81688502
:101C40008A850E94740EF801E758FE4F8081F826BD
:101C5000F0820E94111B0E946B0D909178018917F0
:101C600091F10E946B0D809378012A960FB6F8943B
:101C7000DEBF0FBECDBFDF91CF911F910F91FF90BF
:101C8000EF90DF90CF90BF90AF900C9425098F5FBD
:101C9000FF0C883009F0C1CF0F5F1F4F0A301105CC
:101CA00009F0A7CF8FEF89838A831B820E943419A2
:101CB0008160782F9D838C8349815A816B818D81CE
:101CC0000E94740EC6CF2A960FB6F894DEBF0FBEE0
:101CD000CDBFDF91CF911F910F91FF90EF90DF90DB
:101CE000CF90BF90AF900895CF93DF93CDB7DEB77D
:101CF0002B970FB6F894DEBF0FBECDBF4F8358872A
:101D000069877A878B871E821D8285E0FE01379660
:101D1000DE01119601900D928A95E1F749815A8171
:101D20006B817C818D819E812B960FB6F894DEBFEE
:101D30000FBECDBFDF91CF910C94FB13FC018081CE
:101D400091810C94B216CF93C82F882369F18CEF40
:101D50008C0F813AA0F46C2F80911C0190911D0191
:101D60000E946F18882329F08C2F0E94E7160E948A
:101D700051178C2F0E94E016CF910C94511780E2DE
:101D80008C0F883048F4C77081E001C0880FCA9575
:101D9000EAF70E940817F0CFC03F30F08C2F0E9466
:101DA0001F1ACF910C94061BCF910895882361F1DF
:101DB0009CEF980F913A20F40E94E7160C9451176B
:101DC00090E2980F983050F4877091E001C0990F1D
:101DD0008A95EAF7892F0E940E17F0CF9BE5980F9E
:101DE000933020F490E080E00C94900D98E5980FEB
:101DF000973120F490E080E00C94A60D803F20F015
:101E00000E94871A0C94061B0895CF93C82F0E9436
:101E1000A30EC93349F42FEF87EE93E021508040A1
:101E20009040E1F700C000008C2FCF910C94D60EAB
:101E3000882321F00E9408170C94511708958823D5
:101E400021F00E940E170C9451170895BF92CF9263
:101E5000DF92EF92FF920F931F93CF93DF936C016A
:101E6000D62FC72FFC01058102950F701281111129
:101E70000E9425170E94FE16E82E882371F0112378
:101E8000B1F080E28D0F883090F082E00E949C17C4
:101E90000E94FE1691E0E82EE926BC2EB2949FE047
:101EA000B922EB2DF0E0E45BFC4D0C94D922E12C3F
:101EB000F4CF0C2F0F70C07F11F00295007F11231B
:101EC000A9F0002359F080E28D0F883010F0D11175
:101ED00009C0802F0E9408170E9451178D2F0E9461
:101EE000A30E14C0802F0E941817F6CF8D2F0E94CA
:101EF000D60E002359F080E28D0F883010F0D111FA
:101F00002CC0802F0E940E170E9451172B2D285095
:101F1000330B2430310520F40E946B0D0E942509FB
:101F2000EE2009F4B9C10E94FA1680FDB5C1F60190
:101F300012820E94F4160E947F15C6010E946D1144
:101F40000E94F416DF91CF911F910F91FF90EF90B7
:101F5000DF90CF90BF900C94A015802F0E941E1789
:101F6000D3CFFC2FFF70FF2EC07FC03219F0F29448
:101F700080EFF822DD2369F0D13049F1112391F18E
:101F8000002351F1F601858180FFA8CF8F708583F2
:101F900023C0112381F0011106C00E9438178F2938
:101FA0000E94180FB3CF0130C1F70E9438178F2954
:101FB0000E943E17ABCF011106C00E9447178F2D1C
:101FC0000E941F0FA3CF013009F4A0CFF6CF112339
:101FD00029F0063008F09ACF8F2DE2CF053008F0B7
:101FE00095CFEDCF002359F3D93349F4FFEF27EE16
:101FF00033E0F15020403040E1F700C000008D2F69
:102000000E94D60E83CF112309F1D53F99F0D63F18
:10201000B9F0D43F49F480911E0290911F02816073
:1020200090931F0280931E028D2F0E941F1A0E9400
:10203000061B6CCF80911E0290911F028260F0CF30
:1020400080911E0290911F028460EACFD53F89F0F3
:10205000D63FA9F0D43F49F480911E0290911F020F
:102060008E7F90931F0280931E028D2F0E94871AED
:10207000DECF80911E0290911F028D7FF2CF809162
:102080001E0290911F028B7FECCF8C2F837009F082
:1020900041C011113BCF4D2F429546954770440FDB
:1020A000440F0D2F0F7010E030E020E0042E04C02C
:1020B000000F111F221F331F0A94D2F760E070E057
:1020C000CB01D4FF0FC06FE070E080E090E004C06F
:1020D000660F771F881F991F4A95D2F760957095F4
:1020E00080959095C695C695C370602B712B822BF9
:1020F000932BC23049F058F4C13019F00E943115C9
:1021000005CF0E941F1502CF0E944315FFCE0E94EB
:102110001D15FCCE8695112311F08C2F817088231C
:1021200009F4F4CE4D2F429546954770440F440F65
:102130000D2F0F7010E030E020E0042E04C0000FDF
:10214000111F221F331F0A94D2F760E070E0CB0109
:10215000D4FF0FC06FE070E080E090E004C0660F35
:10216000771F881F991F4A95D2F7609570958095C3
:102170009095C695C695C370602B712B822B932BBF
:10218000C23049F058F4C13019F00E94F615BECEA5
:102190000E94E415BBCE0E940816B8CE0E945915C5
:1021A000B5CECF70112329F08C2F0E947F158D2F73
:1021B000F7CE8D2F0E941F0F8C2F0E94A015A6CE48
:1021C000D23F89F160F4D03FC9F0D13F29F111230A
:1021D00009F442C0011182CE8C2F8F7121C0D33FF0
:1021E00039F1D43FA1F7112369F1CF718C2F0E94EF
:1021F0007F1563E08C2F0E94871788CE112341F052
:10220000053008F083CE8C2F8F710E94C3157ECECF
:10221000063008F07BCEF7CF8C2F8F71112369F237
:102220000E947F1573CE8C2F8F711123C9F3C5CFF8
:10223000112329F08C2F8F710E946A1567CE0E949E
:10224000651564CE81E00E949C17023008F45ECED2
:1022500082E00E949C175ACE002359F0D93309F02E
:10226000CECE8FEF97EEE3E081509040E040E1F773
:10227000C4CE8C2F8F71A1CF4C2F4F706D2FC60104
:102280000E9479090E94951441CE4C2F4F706D2FFA
:10229000C6010E947C093ACEDF91CF911F910F9128
:1022A000FF90EF90DF90CF90BF9008950F931F9312
:1022B000CF93DF93EC01688179818A810E94BC16FB
:1022C0008C010E941A160E941C15B801CE01DF91E4
:1022D000CF911F910F910C94260FCF93DF93EC01B8
:1022E0008B819C81892B29F08881998189238F3F5B
:1022F00019F4DF91CF910895CE010E943D09882302
:10230000C1F3CE010E945611CE01DF91CF910C9402
:102310004E080E9425170E9435170E9451170E94EF
:102320002B1C0C94061B0E94EE160C9489110E9423
:1023300015170C949311E92FE295EF70E250EE30EF
:1023400070F4F0E0E45AFC4D0C94D922803F19F06F
:1023500020F4883E20F481E00895843FE1F380E09A
:102360000895883EC0F3813FD1F7F5CF93FB8827CE
:1023700080F908950E94B2160C949B11CF93DF93BD
:1023800000D000D00F92CDB7DEB70F900F900F9016
:102390000F900F90DF91CF910895CF93DF9300D0EE
:1023A00000D000D0CDB7DEB726960FB6F894DEBFCA
:1023B0000FBECDBFDF91CF9108951F93CF93DF93D1
:1023C000C091840116E0809185018C1304C0DF91D7
:1023D000CF911F910895D0E01C9FF0011D9FF00D3B
:1023E0001124EA57FE4F40815181628173818481BB
:1023F00095810E94CD112196C770E5CF4091B6011D
:102400005091B7016091B8017091B9018091BA0102
:102410009091BB010C94CD111F93CF93DF938091CA
:10242000BB01807FA9F48091B801882389F0809155
:102430008401C09185016091B6017091B701A091AE
:10244000B901B091BA01D62FD72316E0C81304C042
:10245000DF91CF911F91089590E0109711F0DF3F29
:1024600019F401968770F2CF189F9001199F300DD3
:102470001124F901EA57FE4F41814713F2CF408101
:102480004613EFCF42814111ECCF438154814A1B67
:102490005B0B4436510528F78091BB018F7080613A
:1024A0008093BB01F901E557FE4F80818F708061F9
:1024B000808386EB91E00E946D11DF91CF911F9197
:1024C0000C94DD11AF92BF92CF92DF92EF92FF9208
:1024D0000F931F93CF93DF93CDB7DEB761970FB6FE
:1024E000F894DEBF0FBECDBF8C0185E0F801DE01A0
:1024F0001D9601900D928A95E1F7F8014081518176
:10250000E28086EBC82E81E0D82E6091B9017091EF
:10251000BA016115710509F44FC19091B60120917E
:10252000B701892F82238F3F09F446C1A380B4806D
:10253000F090B801F501E61BF70BFF2009F40AC182
:102540008091BB01382F307FE436F10508F0C0C020
:10255000311179C0FE2C251323C0941321C0E11042
:102560001FC08F7080618093BB010E94FE11C60165
:102570000E946D118091BB01F80185838F2D6196BA
:102580000FB6F894DEBF0FBECDBFDF91CF911F9184
:102590000F91FF90EF90DF90CF90BF90AF90089594
:1025A000AB2829F0842F85238F3F09F021C180E0DB
:1025B000F82FF170DF2E80FF3CC0809184012091C4
:1025C000850136E0821315C04D875E878D859E8517
:1025D0000E94B216292F22952F702230F0F024305D
:1025E00018F59F70F1F0F8019581907FD1F4D12C0E
:1025F0001EC090E0389FF001399FF00D1124EA577A
:10260000FE4F6181651306C06081641303C062815F
:102610006E110FC001968770D5CF9F7011F088237F
:1026200031F3805E883018F3C8010E946D11FD2CD3
:10263000A5CFEE2009F4A2CF8091BB0181608093E9
:10264000BB01F12C9BCF251314C0941312C0E110D1
:1026500010C0F8018583C8010E946D1186E0F80161
:10266000A6EBB1E001900D928A95E1F70E94FE1170
:1026700085CF4D875E878D859E850E94BA11882300
:1026800019F1EE2009F18091BB01803270F02091A8
:10269000B6013091B70138872F831986BB86AA8689
:1026A0008C87CE0107960E946D1186E0F801A6EB9B
:1026B000B1E001900D928A95E1F70E940C120E9400
:1026C000FE11FF24F3945ACFC8010E946D11F9CF77
:1026D000311113C07A2DB98AA88A6E2D89890E947A
:1026E000BE1186EB91E00E946D1186E0F601119219
:1026F0008A95E9F70E94FE11A4CF25130FC0941309
:102700000DC0E1100BC0F8018583C8010E946D1156
:1027100086E0F60111928A95E9F730CF4D875E8702
:102720008D859E850E94BA11882371F2EE2061F298
:102730008091BB01803208F4B8CF2091B60130916E
:10274000B7013A8329831B82BD82AC828E83CE017E
:102750000196A9CFE436F10510F5FE2CEE2009F420
:10276000B3CF25130BC0941309C086E0F801A6EB84
:10277000B1E001900D928A95E1F700CF4D875E8719
:102780008D859E850E94BA1181118FCF8091BB01EA
:1027900081608093BB01C8010E946D11EFCE7A2D3C
:1027A000B98AA88A6E2D89890E94BE1186E0F60139
:1027B00011928A95E9F75ACFEE2009F485CF4D871B
:1027C0005E878D859E850E94BA11F82E882309F4B4
:1027D0007BCF86E0F801A6EBB1E001900D928A95DF
:1027E000E1F786EB91E00E949E0E0E940C123ECF14
:1027F00081E08E25DDCE1F93CF93DF93CDB7DEB77B
:102800002C970FB6F894DEBF0FBECDBF4F8358870D
:1028100069877A878B879C87CE0107960E94621210
:10282000882369F08A859B85892B39F04F815885EB
:10283000842F85238F3F09F071C016E05FC086E0CA
:10284000FE013796DE01119601900D928A95E1F70F
:102850008A859B85892B89F388859F8189238F3F72
:1028600061F32091850130E0C901019687709927B5
:10287000409184014817190671F40E949711109233
:1028800085011092840186E0E6EBF1E0DF011D9204
:102890008A95E9F7D2CF96E0929FD001939FB00D31
:1028A0001124AA57BE4FFE01319601900D929A95C0
:1028B000E1F7809385010E94DD11BFCF819FC001A8
:1028C00011248A579E4F0E9462128823E9F0E091FA
:1028D00084011E9FF0011124EA57FE4F408151816F
:1028E00062817381848195810E94CD1180918401E0
:1028F00090E00196877099278093840180918401EC
:10290000909185018913DACF2C960FB6F894DEBF2B
:102910000FBECDBFDF91CF911F91089569857A8554
:102920008B859C850E94CD1188CFEF92FF920F93EB
:102930001F93CF93DF938C01892B81F0F12CEE2430
:10294000E394E8012196F8018491843770F484308F
:1029500008F05FC08130B1F08230A1F1DF91CF91FA
:102960001F910F91FF90EF900895853709F44CC0A7
:1029700008F43DC09CE7980F903780F78F770E944E
:10298000D60E49C00E5F1F4FFE01849190E2980F52
:10299000983060F48770FE2D01C0FF0F8A95EAF72A
:1029A0008F2F0E9428170E94511702C00E94A30E69
:1029B0008F2D815030F2EFE9FFE03197F1F700C041
:1029C0000000F7CF0E5F1F4FFE01849190E2980F39
:1029D000983050F48770FE2D01C0FF0F8A95EAF7FA
:1029E0008F2F0E942E17DFCF0E94D60EE1CF0E5FF1
:1029F0001F4FFE01C491C150D8F28FE99FE00197AB
:102A0000F1F700C00000F7CF0E5F1F4FFE01F490FA
:102A1000CFCF0E94A30E8E01CBCF08950C940D153D
:102A20000E940E156093F2017093F3018093F401FC
:102A30009093F5010C94891108950C9410150F933F
:102A40001F930091F2011091F3012091F401309154
:102A5000F501602B712B822B932B1F910F910C94FE
:102A600010150F931F930091F2011091F301209123
:102A7000F4013091F50160237123822393231F9188
:102A80000F910C9410150F931F930091F201109168
:102A9000F3012091F4013091F5016027712782271D
:102AA00093271F910F910C9410150C940D150C94F5
:102AB00055150E9457156093EE017093EF018093B6
:102AC000F0019093F1010C94891160E070E0CB016A
:102AD0000C9459150F931F9341E050E060E070E0B3
:102AE0008A019B0104C0000F111F221F331F8A950A
:102AF000D2F7C901B8011F910F910C9459150F938A
:102B00001F9341E050E060E070E004C0440F551FA7
:102B1000661F771F8A95D2F78091EE019091EF01A1
:102B2000A091F001B091F1018A019B01082B192BB2
:102B30002A2B3B2BC901B8011F910F910C945915F9
:102B40000F931F9341E050E060E070E004C0440F39
:102B5000551F661F771F8A95D2F7CB01BA01609582
:102B60007095809590950091EE011091EF01209164
:102B7000F0013091F10160237123822393231F918F
:102B80000F910C9459150F931F9341E050E060E0B2
:102B900070E004C0440F551F661F771F8A95D2F757
:102BA0008091EE019091EF01A091F001B091F101BF
:102BB0008A019B01082719272A273B27C901B80149
:102BC0001F910F910C9459150F931F930091EE01D3
:102BD0001091EF012091F0013091F101602B712BE8
:102BE000822B932B1F910F910C9459150F931F93C8
:102BF0000091EE011091EF012091F0013091F1016F
:102C000060237123822393231F910F910C945915F4
:102C10000F931F930091EE011091EF012091F001AD
:102C20003091F10160277127822793271F910F911F
:102C30000C9459150895990F990F990F890F982F92
:102C4000977041E001C0440F9A95EAF78695869502
:102C5000869595E0899FF0011124E454FE4F30E001
:102C600020E070E05191DF011197CB01022E02C0EC
:102C7000969587950A94E2F781708195852784233C
:102C800085278C932F5F3F4F2530310559F70895E5
:102C9000990F990F990F890F982F977086958695A0
:102CA000869525E0829FF0011124E454FE4F50E008
:102CB00040E080E0219130E0092E02C03695279552
:102CC0000A94E2F721703327042E01C0220F0A94E0
:102CD000EAF7822B4F5F5F4F4530510559F7089552
:102CE000BF92CF92DF92EF92FF920F931F93CF93F9
:102CF000DF938C01C090EE01D090EF01E090F001E5
:102D0000F090F1018091F2019091F301A091F40112
:102D1000B091F501C82AD92AEA2AFB2ACFE1D0E0EE
:102D2000BC2ED701C6010C2E04C0B695A795979569
:102D300087950A94D2F780FD0EC0219788F7B12CB1
:102D40008B2DDF91CF911F910F91FF90EF90DF902E
:102D5000CF90BF900895B8018C2F0E949A090197D7
:102D600061F3EECFCF93DF93EC010E947016BE01AA
:102D7000DF91CF910C949A091F93CF93DF93EB01CE
:102D800090918301992331F0CB01DF91CF911F9175
:102D90000C94B216882379F0CB010E947016182F7C
:102DA000682FCE010E941B16BE01812FDF91CF91AB
:102DB0001F910C949A09CB010E944816182FF4CF4A
:102DC000682F80911C0190911D010C94A518682F0B
:102DD00080911C0190911D010C94A71880911C01F9
:102DE00090911D010C94A9188091F6018595859507
:102DF000859508958091F601877008959091F60168
:102E0000977081E009F480E00895809102020895AE
:102E100090910202892B80930202089580959091EF
:102E200002029823909302020895109202020895DC
:102E300090910102892B80930102089580959091D1
:102E400001029823909301020895109201020895BF
:102E500090910002892B80930002089580959091B3
:102E600000029823909300020895109200020895A2
:102E70008091F701089508950C943B179091F70104
:102E8000981721F08093F7010C943C1708958091D6
:102E9000F701882329F01092F70180E00C943C1789
:102EA0000895E0911C01F0911D0180910202808340
:102EB000E0911C01F0911D01808190910102892B0C
:102EC0008083E0911C01F0911D01808190910002AE
:102ED000892B80839091F701992381F0E0911C0167
:102EE000F0911D018081892B808380911C0190913C
:102EF0001D010E945D1881110E94471780911C01DD
:102F000090911D010C94770D08950C94841798E00E
:102F1000899F90011124622B6093F6010E947F1516
:102F20008091F6018595859585950C94851710926D
:102F3000F60180E00C9485179091F6018095892325
:102F40008093F601282F277071F4282F082E000C8B
:102F5000330B9217130639F08595859585950E9458
:102F6000A0150C949717089590E080E00E94082324
:102F700021E08C3E9E4F09F020E0822F089582E0F0
:102F800090E00C94002383E090E00C940023682FE1
:102F900083E090E00C940E23CF9384E090E00E94B5
:102FA0000023C82F81E290E00E940023982F8C2FED
:102FB000CF910895CF93C92F682F84E090E00E94AD
:102FC0000E236C2F81E290E0CF910C940E23AB0185
:102FD000BC018FE090E00C942023AB01BC0183E1A5
:102FE00090E00C94202360E070E0CB010C94ED178E
:102FF00060E070E0CB010E94E7170C94F3176CEED1
:103000007EEF90E080E00E942C2360E082E090E080
:103010000E940E2360E083E090E00E940E23109255
:10302000F2011092F3011092F4011092F50160E0A8
:1030300084E090E00E940E2360E081E290E00E9434
:103040000E2360E085E090E00E940E2360E086E0C1
:1030500090E00E940E236FEF87E090E00E940E2325
:1030600040E050E0BA0188E090E00E94202360E058
:103070008DE090E00E940E2340E050E0BA0188E12C
:1030800090E00E94202360E087E190E00E940E2300
:1030900040E050E0BA018CE190E00E94202360E023
:1030A00080E290E00E940E230C94F8170C94FF1716
:1030B000682F8EE090E00C940E239C012E5F3F4F12
:1030C000AC01485F5F4F80E02417350709F408958D
:1030D000F90191919F019923B9F38F5FF5CF662391
:1030E00049F0FC01329608962191261729F0E8173D
:1030F000F907D1F780E0089581E008959C01FC0173
:1031000032969FEF80E04191461751F09F3F19F4AE
:10311000411101C0982F8F5F8630A9F79F3F09F4B6
:103120000895290F311D97FD3A95F901628308959D
:10313000FC01329608962191261303C0DF011197F6
:103140001C92E817F907B9F708950C947E180C94AF
:103150009818029626E0FC0111922A95E9F7089545
:10316000089508950C94B1180E94B21880912A0213
:10317000843049F11092040288E190E020E40FB617
:10318000F894A895809360000FBE2093600080E0C3
:103190000E9425090E94B21883B7817F846083BF93
:1031A00083B7816083BF7894889583B78E7F83BF10
:1031B0000FB6F894A89580916000886180936000B4
:1031C000109260000FBE08950895CF930E94B0182A
:1031D0000E9446060E94E418C0E08C2F0E94A106BF
:1031E000811105C0CF5FCA30C1F7CF91089581E04A
:1031F000FCCF08950C94F9180E9497110E946B0D52
:103200000E9425090C94FA181F921FB61F921124D0
:103210008F939F93AF93BF9380910402811113C04A
:103220008091200290912102A0912202B09123026C
:103230004196A11DB11D8093200290932102A0937D
:103240002202B0932302BF91AF919F918F911F9063
:103250001FBE1F90189582E084BD93E095BD9AEF44
:1032600097BD80936E0008952FB7F8948091200247
:1032700090912102A0912202B09123022FBF0895C4
:103280009C014FB7F8948091200290912102A09167
:103290002202B09123024FBF821B930B08957894B2
:1032A0001F921FB61F9211248F939F93AF93BF93CA
:1032B0008091200290912102A0912202B0912302DC
:1032C0000196A11DB11D8093200290932102A0932D
:1032D0002202B0932302BF91AF919F918F911F90D3
:1032E0001FBE1F90189587E797E79093010880937A
:1032F000000888E19AE00FB6F894A89580936000E2
:103300000FBE90936000FFCF0E94B417811102C0DE
:103310000E9456180E94BF17809303020E94CC1788
:1033200090932502809324020E94C317682F70E0B7
:1033300090E080E00C941D1580910C0280FF12C07B
:103340006091230185E0689FB00111247595679510
:103350007595679560387105A8F561157105A1F13E
:10336000862F089581FF09C06091230185E0689F41
:10337000B001112475956795EDCF6091230182FD11
:103380000AC080910B028823D1F0909122016091B4
:103390002301891728F085E0689FB0011124DACF56
:1033A000869FB001112485E0869F9001879F300D94
:1033B0001124692F70E0C9010E94C522CBCF65E0BE
:1033C00070E0CECF8FE7089581E0089580910C02E0
:1033D00080FF0CC060911F0170E075956795759531
:1033E00067956115710549F1862F089581FF06C023
:1033F00060911F0170E075956795F3CF60911F0193
:1034000082FD0BC090910B029923A1F060911E01E7
:1034100080911F01961738F0682F70E060387105B1
:1034200000F38FE70895899FC001112470E00E9486
:10343000C522F4CF61E070E0D7CF81E00895803FEE
:1034400031F40E949C198195809310020895813F68
:1034500019F40E949C19F8CF823F31F40E949C1904
:10346000819580930F020895833F19F40E949C195F
:10347000F8CF893F29F40E94E6198093110208953C
:103480008A3F21F40E94E6198195F7CF8B3F31F4F2
:103490000E94E61981958093120208958C3F19F4D9
:1034A0000E94E619F8CF843F31F480910E028160CA
:1034B00080930E020895853F21F480910E02826070
:1034C000F7CF863F21F480910E028460F1CF873FD1
:1034D00021F480910E028860EBCF883F21F4809127
:1034E0000E028061E5CF8D3F31F480910C02816046
:1034F00080930C0208958E3F21F480910C0282602B
:10350000F7CF8F3FB9F780910C028460F1CF909193
:103510000F02803F41F48091100287FD109210024B
:10352000992371F00895813F29F4809110021816B3
:10353000ACF3F6CF823F81F497FFF2CF10920F02E7
:103540008091100290911102892B90911202892B87
:1035500049F710920B020895833F19F4191674F37A
:10356000DFCF893F39F4809111021816CCF6109202
:103570001102D6CF8A3F29F48091110287FFD0CF64
:10358000F6CF8B3F39F48091120287FFC9CF10929A
:103590001202C6CF8C3F29F4809112021816BCF398
:1035A000BFCF843F31F480910E028E7F80930E0254
:1035B000B7CF853F21F480910E028D7FF7CF863FF4
:1035C00021F480910E028B7FF1CF873F21F480910F
:1035D0000E02877FEBCF883F21F480910E028F7E11
:1035E000E5CF8D3F31F480910C028E7F80930C02E9
:1035F00097CF8E3F21F480910C028D7FF7CF8F3FC4
:1036000009F08ECF80910C028B7FF0CF8DE092E09D
:103610000E94820D0E94341990930A02809309023D
:103620000895CF93DF9300D000D000D0CDB7DEB7A0
:1036300086E0EDE0F2E0DE01119601900D928A95B0
:10364000E1F780910F0290911002892B81F0809117
:103650000702909108020E944019AC0190910B0260
:10366000992331F1809124018417150670F180911E
:10367000110290911202892B91F080910502909194
:1036800006020E944019AC0190910B02992309F4A3
:1036900078C0809120018417150608F480C0269612
:1036A0000FB6F894DEBF0FBECDBFDF91CF91089566
:1036B000209125018AE0289F9001112424173507C5
:1036C000B0F69F5F90930B0202C09F3FD1F710921C
:1036D00011021092120280910F02181624F40E9417
:1036E0009C1980930F0280910F0287FF05C00E94F2
:1036F0009C19819580930F0280911002181624F472
:103700000E949C19809310028091100287FF05C0CF
:103710000E949C1981958093100230910F023323EF
:10372000A1F020911002222381F045EB3403C00167
:1037300011249923F1F090930F0245EB240390019B
:1037400011243323D1F0309310020E94061B809184
:10375000090290910A02909308028093070286E082
:10376000FE013196ADE0B2E001900D928A95E1F74D
:103770007ECF81E080930F02E0CF81E08093100242
:10378000E4CF209121018AE0289F90011124241781
:10379000350708F084CF9F5F90930B0202C09F3FD4
:1037A000D1F710920F021092100280911102181698
:1037B00024F40E94E619809311028091110287FF80
:1037C00005C00E94E6198195809311028091120232
:1037D000181624F40E94E6198093120280911202B6
:1037E00087FF05C00E94E6198195809312023091EF
:1037F00011023323A1F020911202222381F045EB24
:103800003403C00111249923F1F09093110245EB88
:103810002403900111243323D1F0309312020E942B
:10382000061B8091090290910A02909306028093F0
:10383000050286E0FE013196ADE0B2E001900D9206
:103840008A95E1F72CCF81E080931102E0CF81E0EF
:1038500080931202E4CF86E0EDE0F2E0DF011D92FA
:103860008A95E9F710920B0210920C02089580914C
:103870001B0208950895CF93DF93EC010E94171E59
:10388000823011F08430F9F482E08093E9008FEF08
:103890009091E800815095FD06C095ED9A95F1F75D
:1038A00000008111F5CF8091E80085FF0CC050E049
:1038B00040E066E070E0CE010E94341E8091E80096
:1038C0008E778093E800DF91CF910895CF93DF93B7
:1038D000EC010E94171E823011F0843039F581E02E
:1038E0008093E9008FEF9091E800815095FD06C02C
:1038F00095ED9A95F1F700008111F5CF8091E800E0
:1039000085FF14C050E040E068E070E0CE010E9406
:10391000341E8091E8008E778093E80088E0FE01F5
:10392000A3E1B2E001900D928A95E1F7DF91CF918A
:103930000895089580912902811109C00E94C41F31
:103940000E9421208091E20084608093E20008952B
:10395000109229020895089508950C94FC1842E0ED
:1039600061EC81E00E94401F42E261EC82E00C9435
:10397000401F80912C02833009F45FC030F4813005
:10398000C1F1823009F49BC008958A3009F487C0E0
:103990008B3009F46DC0893009F04EC080912B0244
:1039A000813209F049C080912F0290913002029734
:1039B00008F042C08091E800877F8093E800809102
:1039C000E80082FF35C09091F3008091F2000297E9
:1039D00029F48091F1008B7F813021F48091F100F6
:1039E00080931B028091E8008B778093E8000C9411
:1039F000741F80912B02813AF9F48091E800877F4F
:103A00008093E80080912F0290913002892B61F41D
:103A100068E083E192E070E00E94831E8091E800FC
:103A20008B778093E800089560E090E080E0F3CF2A
:103A300080912A028111C3CF089580912B02813A8F
:103A4000D9F780912F0290913002892BA9F78091AC
:103A5000E800877F8093E8008091E80080FFFCCF3A
:103A6000809130018093F1008091E8008E77BDCF86
:103A700080912B02813201F780912F0290913002C8
:103A8000892BD1F68091E800877F8093E8000E941F
:103A9000741F80912D02809330010C9497118091B6
:103AA0002B02813249F68091E800877F8093E800FD
:103AB0000E94741F80912E0280931C0208958091B1
:103AC0002B02813A09F0B8CF8091E800877F80937C
:103AD000E8008091E80080FFFCCF80911C02C2CFFB
:103AE00084B7877F84BF0FB6F894A8958091600053
:103AF000886180936000109260000FBE80E890E0C3
:103B00000FB6F89480936100909361000FBE0E94FD
:103B1000C80D0E94C41F0E9421208091E200846091
:103B20008093E20078940E94AA220E94D20D86E23D
:103B300091E00E94660D80912A02853019F00E9462
:103B4000DA0DF9CF0E94B41880912802882399F3E6
:103B50000E94E518882379F30E941E1EECCF0C9476
:103B6000B11D292F33272330310519F168F4213095
:103B7000310509F44AC02230310509F44BC090E008
:103B800080E030E020E028C02132310579F1223296
:103B90003105A9F780E490E02EED35E0611571055F
:103BA000D9F08FE490E02FE835E061307105A1F0A5
:103BB000E6CF99278130910599F0009741F0823046
:103BC000910589F00397D9F6ECE1F5E002C0EEE348
:103BD000F5E0849190E09F01FA01318320830895FC
:103BE000E2E3F5E0F6CFE2E2F5E0F3CF89E090E042
:103BF00024E535E06115710579F389E090E02DE663
:103C000035E06130710541F3BACF82E190E02DE7F4
:103C100035E0E2CF8BE390E022E435E0DDCF809128
:103C20002A02843011F482E0089581E008958091A1
:103C30001D02811102C00C940F1E089580E189BD00
:103C400082E189BD09B400FEFDCF8091D8008F7D4F
:103C50008093D8008091E00082608093E0008091A2
:103C6000E00081FDFCCF0895AF92BF92CF92DF922A
:103C7000FF920F931F93CF93DF936C01EB018A01A7
:103C80000E94931FF82E811123C00115110539F0F0
:103C9000F80180819181C81BD90BC80ED91EB12CA7
:103CA000A12C2097A9F08091E80085FD22C0809189
:103CB000E8008E778093E80001151105A1F0F80166
:103CC00080819181A80EB91EB182A08285E0F82E74
:103CD0008F2DDF91CF911F910F91FF90DF90CF90AB
:103CE000BF90AF9008950E94931F8823D1F2F82EC1
:103CF000EFCFF60181916F018093F1002197FFEFE3
:103D0000AF1ABF0ACECFFC018091310290913202EE
:103D100086179707A0F06115710529F49091E800C6
:103D20009E779093E80090E06115710551F4911130
:103D300008C08091E80082FF34C080E00895BC0193
:103D4000F2CF80912A028823C1F18530C1F18091A0
:103D5000E80083FD30C08091E80082FDEACF8091C9
:103D6000E80080FFE1CF8091F3002091F200382F2E
:103D70006115710519F02830310558F091E02830AF
:103D8000310509F090E02091E8002E772093E800BB
:103D9000CBCF81918093F100615071092F5F3F4F2C
:103DA000E7CF80912A02882341F0853041F080914D
:103DB000E80083FFBECF81E0089582E0089583E0AC
:103DC0000895FC0180913102909132028617970785
:103DD000A0F06115710529F48091E8008E77809339
:103DE000E80090E06115710551F4911108C08091CF
:103DF000E80082FF35C080E00895BC01F2CF8091D9
:103E00002A028823C9F18530C9F18091E80083FD39
:103E100031C08091E80082FDEACF8091E80080FF08
:103E2000E1CF8091F3002091F200382F61157105E8
:103E300019F02830310558F091E02830310509F0AB
:103E400090E08091E8008E778093E800CBCF84915A
:103E50008093F1003196615071092F5F3F4FE6CF9B
:103E600080912A02882341F0853041F08091E8005A
:103E700083FFBDCF81E0089582E0089583E0089537
:103E8000982F973028F08F708093E90081E0089593
:103E90009093E900242F762F50E0981731F070911D
:103EA000EC002091ED005091F00021FD02C09F5FD9
:103EB000E8CF3091EB003E7F3093EB003091ED0086
:103EC0003D7F3093ED003091EB0031603093EB009B
:103ED0007093EC002093ED005093F0002091EE00E1
:103EE00027FDE5CF80E0089580912B0287FF13C066
:103EF0008091E80082FF06C08091E8008B77809374
:103F0000E80004C080912A028111F2CF08958091C7
:103F10002A028823D9F38091E80080FFF8CF8091AE
:103F2000E8008E77ECCF2091E4003091E50095E633
:103F3000A9012091EC00822F817020FF06C08091A2
:103F4000E80080FF06C080E008952091E80022FD8F
:103F50001AC080912A02882389F0853089F08091E7
:103F6000EB0085FD0FC02091E4003091E500421781
:103F70005307F9F29150E1F684E0089582E0089544
:103F800083E0089581E008950E9432200E943A2043
:103F9000E0EEF0E0808181608083E8EDF0E08081F8
:103FA0008F77808319BCA7EDB0E08C918E7F8C93C6
:103FB00080818F7E80831092290208950F931F9332
:103FC000CF93DF930E9432200E943A20C8EDD0E0C8
:103FD00088818F77888388818068888388818F7DB6
:103FE000888319BC10922A0210922602109228028D
:103FF0001092270200EE10E0F80180818B7F808311
:1040000088818160888342E060E080E00E94401FF8
:10401000E1EEF0E080818E7F8083E2EEF0E080814F
:1040200081608083808188608083F80180818E7FB9
:104030008083888180618883DF91CF911F910F9168
:104040000895E8EDF0E080818F7E8083E7EDF0E079
:1040500080818160808384E082BF81E08093290237
:104060000C94DE1FE8EDF0E080818E7F808310925B
:10407000E20008951092DA001092E10008951F9274
:104080000F920FB60F9211242F933F934F935F938C
:104090006F937F938F939F93AF93BF93EF93FF9310
:1040A0008091E10082FF0BC08091E20082FF07C097
:1040B0008091E1008B7F8093E1000E94A922809192
:1040C000DA0080FF19C08091D80080FF15C0809170
:1040D000DA008E7F8093DA008091D90080FF96C04D
:1040E00080E189BD82E189BD09B400FEFDCF81E098
:1040F00080932A020E949A1C8091E10080FF19C0DF
:104100008091E20080FF15C08091E2008E7F809355
:10411000E2008091E20080618093E2008091D8000B
:1041200080628093D80019BC85E080932A020E94A7
:10413000AC1C8091E10084FF2BC08091E20084FFE1
:1041400027C080E189BD82E189BD89B5982F917032
:1041500080FFFBCF8091D8008F7D8093D800809125
:10416000E1008F7E8093E1008091E2008F7E80935A
:10417000E2008091E20081608093E200809126025B
:10418000882309F449C084E080932A020E94AD1C70
:104190008091E10083FF29C08091E20083FF25C068
:1041A0008091E100877F8093E10082E080932A0282
:1041B000109226028091E1008E7F8093E100809131
:1041C000E2008E7F8093E2008091E2008061809324
:1041D000E20042E060E080E00E94401F8091F00039
:1041E00088608093F0000E94AB1CFF91EF91BF911B
:1041F000AF919F918F917F916F915F914F913F917F
:104200002F910F900FBE0F901F90189519BC109210
:104210002A020E94A81C70CF8091E30087FD93E0E2
:1042200090932A02B3CF1F920F920FB60F921124D0
:104230002F933F934F935F936F937F938F939F93AE
:10424000AF93BF93CF93DF93EF93FF93D091E900A8
:10425000DF708091EC00C82FC17080FDC0E8109223
:10426000E9008091F000877F8093F00078940E94AD
:1042700057211092E9008091F00088608093F0004F
:10428000CD2BCF70C093E900FF91EF91DF91CF91DB
:10429000BF91AF919F918F917F916F915F914F915E
:1042A0003F912F910F900FBE0F901F9018951F9365
:1042B000CF93DF93CDB7DEB7AA970FB6F894DEBFE2
:1042C0000FBECDBF8BE292E02091F100FC01219363
:1042D000CF01F2E083339F07B9F70E94B91C8091A8
:1042E000E80083FF1EC180912B0290912C029A302E
:1042F00008F017C1E92FF0E0E659FC4D0C94D922E3
:10430000803899F0823809F00CC180912F028F70AB
:10431000873008F006C18093E9008091EB0085FBAF
:10432000882780F91092E90006C0809127029091B9
:104330002802911182609091E800977F9093E800A5
:104340008093F1001092F1008091E8008E77E5C033
:10435000882309F4D3C0823009F0E3C080912D0294
:104360008111D6C080912F028F702FEF280F263039
:1043700008F0D7C08093E9002091EB0020FFC8C06F
:10438000933031F48091EB0080628093EB00C0C0E9
:104390009091EB0090619093EB0021E030E001C040
:1043A000220F8A95EAF72093EA001092EA008091A2
:1043B000EB008860EACF8111B4C010912D021F7705
:1043C0008091E3008078812B8093E3008091E80066
:1043D000877F8093E8000E94741F8091E80080FF2F
:1043E000FCCF8091E30080688093E30082E01111AC
:1043F00083E080932A0295C08058823008F091C0F3
:1044000080912D0290912E028C3D23E09207A1F520
:1044100083E08A838AE289834FB7F894DE0113969A
:1044200020E03EE051E2E32FF0E050935700E491AA
:1044300020FF03C0E295EF703F5FEF708E2F90E09A
:10444000EA30C0F0C7968D939D932F5F243159F7C2
:104450004FBF8091E800877F8093E8006AE270E0B8
:10446000CE0101960E94831E8091E8008B77809395
:10447000E80057C0C096E7CF60912F0270913002DC
:10448000AE014F5F5F4F0E94AF1DBC01892B09F445
:1044900048C09091E800977F9093E80089819A81C5
:1044A0000E94E11EE1CF8038E1F58091E800877F2E
:1044B0008093E800809126028093F10045CF81111E
:1044C00030C090912D02923060F58091E800877F96
:1044D0008093E800909326020E94741F8091260228
:1044E000882311F084E005C08091E30087FDFACFB6
:1044F00081E080932A020E94AF1C13C080912D029C
:10450000813079F481E0933009F080E080932802D3
:104510001092E9008091E800877F8093E8000E9474
:10452000741F8091E80083FF0AC08091E800877FB4
:104530008093E8008091EB0080628093EB00AA9664
:104540000FB6F894DEBF0FBECDBFDF91CF911F91A4
:1045500008950895CF9380912A028823A1F0C091F5
:10456000E900CF709091EC00892F817090FD80E878
:10457000C82B1092E9008091E80083FD0E9457212A
:10458000CF70C093E900CF91089597FB072E16F4E2
:10459000009407D077FD09D00E94DF2207FC05D0E8
:1045A0003EF4909581959F4F0895709561957F4F4A
:1045B0000895EE0FFF1F0590F491E02D0994AA1BBA
:1045C000BB1B51E107C0AA1FBB1FA617B70710F0FE
:1045D000A61BB70B881F991F5A95A9F78095909530
:1045E000BC01CD010895FB01DC0104C08D91019057
:1045F000801921F441505040C8F7881B990B089549
:10460000F999FECF92BD81BDF89A992780B508959A
:10461000A8E1B0E042E050E00C943423262FF99951
:10462000FECF92BD81BDF89A019700B4021639F011
:104630001FBA20BD0FB6F894FA9AF99A0FBE0895E2
:104640000396272F0E940F230E940E23252F0E94DE
:104650000F23242F0C940F230196272F0E940F2342
:104660000C940E23DC01CB01FC01F999FECF06C0AE
:10467000F2BDE1BDF89A319600B40D924150504020
:10468000B8F70895F894FFCF8E079707A107C007E2
:104690000808D307DE07F607590F590FB10FB10FFE
:1046A000860F0310860F860F4510D110E010E01022
:1046B0003C11860F860F4511A611A611AF11AF113F
:1046C000B111AF11AF11AF11A611A611B611AF11F3
:1046D000AF11B6118021A8219122A8219122DB21BE
:0846E000FC21912253225F220C
:1046E80005016101000000015F016101056201012E
:1046F8005F016001000000056701FFFFF80128085D
:10470800641E140A321E371C661C3B1C3A1C991C7A
:1047180001F4F5F6F731333236946697C634000063
:04472800000000008D
:00000001FF
