:100000000C9465030C94AC030C94AC030C94C004E6
:100010000C94AC030C94AC030C94AC030C94AC03A4
:100020000C94AC030C94AC030C94151E0C94E71EBA
:100030000C948A190C94AC030C94AC030C94AC0390
:100040000C94AC030C94AC030C94AC030C94AC0374
:100050000C94AC030C94F2190C94AC030C94AC0308
:100060000C94AC030C94AC030C94AC030C94AC0354
:100070000C94AC030C94AC030C94AC030C94AC0344
:100080000C94AC030C94AC030C94AC030C94AC0334
:100090000C94AE030C94AC030C94AC030C94AC0322
:1000A0000C94AC030C94AC030C94AC03360A380AE1
:1000B000430A3A0A3C0A3E0A400A420A450A470AEB
:1000C000490A540A4B0A4D0A4F0A510A530A560A62
:1000D000F90FF90F2B102B108D118D118D118D1122
:1000E0006B108D110E110E117D118D118D11861158
:1000F0001B111B111B111B111B111B111B111B11A0
:100100001B111B111B111B111B111B111B111B118F
:100110002A1138113F1146115011121212122412D5
:1001200024121B1224122412241212121212201250
:10013000241224122012541F7B1F73207B1F732054
:10014000C71FEA1F73204120502002E26003E20033
:1001500002E26003E20035001E001F0020002100C3
:10016000220000002B0014001A00080015001700E0
:100170000000E00004001600070009000A0000006B
:10018000E1001D001B000600190005002F00F55CB2
:100190002900E200E300F75CF35C2C004C00270030
:1001A000260025002400230000002A00130012006E
:1001B0000C0018001C000000340033000F000E007B
:1001C0000D000B000000280038003700360010003A
:1001D000110030004F00520051005000F85CF45CF8
:1001E0002C0035001E001F0020002100220000000E
:1001F0002B0014001A00090013000A000000E000A0
:10020000040015001600170007000000E1001D00A3
:100210001B000600190005002F00F55C2900E20014
:10022000E300F75CF35C2C004C002700260025005F
:100230002400230000002A0033001C0018000F00D7
:100240000D000000340012000C00080011000B002B
:100250000000280038003700360010000E00300083
:100260004F00520051005000F85CF45C2C00350047
:100270001E001F0020002100220000002B0034007F
:100280003600370013001C000000E00004001200DC
:10029000080018000C000000E100330014000D00FD
:1002A0000E001B002F00F55C2900E200E300F75C64
:1002B000F35C2C002A0027002600250024002300E0
:1002C00000004C000F00150006000A0009000000A5
:1002D00038001600110017000B000700000028006E
:1002E0001D0019001A001000050030004F005200D8
:1002F00051005000F85CF45C2C0035021E021F0215
:10030000200221022202000035021E021F022002EA
:1003100021022202000001003A003B003C003D00A7
:100320003E00000001004000410042004300440044
:10033000260201000100010001000100010001008E
:1003400001002702260225022402230200000100E8
:100350002702260225022402230200003102300275
:100360002F022E022D023F00000001004D004A0026
:100370000100010045002702AE00A900AA00AB0061
:1003800001000100010035001E001F0020002100B7
:100390002200000035001E001F0020002100220066
:1003A000000001003A003B003C003D003E00000020
:1003B00001004000410042004300440001000100F0
:1003C0000100010001000100010001002A002700D6
:1003D000260025002400230000004C0027002600F2
:1003E0002500240023000000310030002F002E00E3
:1003F0002D003F00000001004B004E0001000100F5
:1004000045000100AE00A900AA00AB0001000100F8
:1004100001003A003B003C003D003E003F00000070
:100420000100005CF95C0100010001000000010016
:10043000010001001D5C1E5C135C00000100010056
:1004400001000100010001000100010001000100A4
:10045000010001000100010045004400430042008A
:100460004100400000004C000100010001000100BB
:100470000100000001000100F25CF15CF05C0A5C2C
:100480000000C95CC75CC55CC25C010001000100E2
:10049000CA5CC85CC65CC35C0100010001000000CE
:1004A0000000000000002A2B2800000000000000CF
:1004B00000000000000000000029000000002C1EC9
:1004C0003420212224342627252E362D3738271E86
:1004D0001F202122232425263333362E37381F04AC
:1004E00005060708090A0B0C0D0E0F101112131444
:1004F00015161718191A1B1C1D2F3130232D350402
:1005000005060708090A0B0C0D0E0F101112131423
:1005100015161718191A1B1C1D2F3130354C0000E9
:1005200000000000000000000000000000000000CB
:1005300000000000000000000000000000000000BB
:1005400000000000000000000000000000000000AB
:10055000000000000000000000000000000000009B
:10056000000000000000000000000000000000008B
:10057000000000000000000000000000000000007B
:10058000000000000000000000000000000000006B
:10059000000000000000000000000000000000005B
:1005A000000000000000000000000000000000004B
:1005B000000000000000000000000000000000013A
:1005C0000101010101000101010100000000000022
:1005D0000000000000000000010001000101010115
:1005E00001010101010101010101010101010101FB
:1005F00001010101010101010100000001010000F0
:1006000000000000000000000000000000000000EA
:1006100000000000000000000001010101000403CF
:10062000300000001603480065006C006900780087
:1006300020004200650074006100000014035900AE
:1006400075007300680061006B006F0062006F004E
:1006500000000403090409022200010100A032097C
:1006600004000001030101000921110100012240E1
:10067000000705810308000A1201100100000008AC
:10068000EDFE603001000102030105010906A10130
:10069000050719E029E71500250195087501810274
:1006A0009501750881010508190129059505750150
:1006B00091029501750391010507190029FF1500A5
:1006C00026FF00950675088100C011241FBECFEFDC
:1006D000DAE0DEBFCDBF04B603FE27C0809128025A
:1006E00090912902A0912A02B0912B028730904B61
:1006F000A740B04BD1F41092280210922902109218
:100700002A0210922B0214BE84B7877F84BF0FB6D3
:10071000F894A895809160008861809360001092A1
:1007200060000FBEE0E0F8E3099511E0A0E0B1E061
:10073000ECEFF1E402C005900D92AA33B107D9F7AE
:1007400022E0AAE3B1E001C01D92A832B207E1F7AE
:100750000E94521B0C94FC200C9400001F920F92DC
:100760000FB60F9211248F939F93EF93FF93809175
:10077000B900887F803869F038F48823C9F1803661
:10078000C9F510923A0136C0883A09F1883BF9F070
:1007900031C080913A01811111C08091BB008093DA
:1007A0003B0180913B01803120F010923B0180E0C1
:1007B00001C081E091E090933A011DC0E0913B01BE
:1007C000F0E08091BB00EB5FFD4F808308C0E091BB
:1007D0003B01F0E0EB5FFD4F80818093BB00809197
:1007E0003B0190E001968F70992780933B0102C0F6
:1007F0001092BC0081E09091BC008295880F880F18
:10080000807C9568892B8093BC00FF91EF919F912C
:100810008F910F900FBE0F901F9018958EE14A9BFD
:1008200002C08150E1F74A9BFECF08955A9880E2BA
:100830008A95F1F75A9A0895FC012AE02A95F1F772
:1008400090E020E080E031E0261779F040E14A9521
:10085000F1F7880F4A9B02C08160932700C0000017
:1008600040E14A95F1F72F5FEFCF20E12A95F1F7AC
:1008700029B100C0000030E13A95F1F722FB2227B0
:1008800020F992272081920F90830895EF92FF9292
:100890000F931F93CF93DF931F92CDB7DEB71982CB
:1008A0008C017C01E60EF11C0E151F0559F00E940B
:1008B0000E0468E0CE0101960E941C04F8018193A9
:1008C0008F01F2CF81E09981911180E00F90DF914B
:1008D000CF911F910F91FF90EF90089590933E015B
:1008E00080933D0160933C01529A5A9A08959093E7
:1008F0003E0180933D0160933C0152985A9AEA9AD6
:10090000E9E6F0E080818F7C80830895615091E07A
:1009100001C0990F6A95EAF720E031E0992361F070
:10092000492F482319F05A9A232701C05A9840E2C8
:100930004A95F1F79695F2CF222311F05A9A01C009
:100940005A9880E28A95F1F75A980895FF920F938A
:100950001F93CF93DF93EC018C01060F111DC0177D
:10096000D10741F0F9900E94160468E08F2D0E9493
:100970008604F5CFDF91CF911F910F91FF900895DD
:100980001F920F920FB60F9211240F931F932F9364
:100990003F934F935F936F937F938F939F93AF9307
:1009A000BF93EF93FF93CF93DF931F92CDB7DEB743
:1009B00019820E940E0467E0CE0101960E941C0479
:1009C000382F369536953695932F96959570232F1B
:1009D0002570920F292F2370969596958770920F08
:1009E000891348C08981811145C080913C018317DA
:1009F00008F440C080E18A95F1F75A9A529AA2E031
:100A0000AA95F1F700C000913D0110913E01B8E0B8
:100A10003B9F000D111D11245A98F8016581662332
:100A200021F0868197810E94A6040E941604F0E1BD
:100A3000FA95F1F75A9852985A9A80E18A95F1F707
:100A4000D80112966C911297662369F013968D91D6
:100A50009C9114970E944604D801ED91FC9181115C
:100A600005C082E004C0D801ED91FC9188E080834C
:100A70000E940E040F90DF91CF91FF91EF91BF91F3
:100A8000AF919F918F917F916F915F914F913F9126
:100A90002F911F910F910F900FBE0F901F901895DF
:100AA0000F931F93CF93DF9320913C0130E02817E1
:100AB00039070CF471C09C0193E0220F331F9A9503
:100AC000E1F7C0913D01D0913E01C20FD31FF894D0
:100AD000529A5A9845E04A95F1F70000982F96955A
:100AE00095708570890F982F937086958695890FDC
:100AF0008901082B0E94160484E08A95F1F700C052
:100B000067E0802F0E94860440E14A95F1F75298F1
:100B10005A9A4A9902C000C0FCCF87E090E04A9BF5
:100B20000EC0019751F4529A5A9AE881F98181E0F6
:100B30008083789481E090E031C000C0F0CF6D8177
:100B4000662381F08E819F810E94460481110AC034
:100B5000529A5A9AE881F98182E08083789482E0FF
:100B600090E01CC00E940E0480E28A95F1F75A982A
:100B7000529A40E14A95F1F76A81662321F08B8110
:100B80009C810E94A6040E941604E881F9811082CB
:100B9000789480E090E002C084E090E0DF91CF9113
:100BA0001F910F910895CF93DF93A0E3B1E045E348
:100BB00051E061E070E08D91E82FE295EF70F0E098
:100BC00021A18F70EB0102C0CC0FDD1F8A95E2F7E7
:100BD000CE019C2F9095922391A392A1892B82A361
:100BE0004A175B0741F7DF91CF91089508950C9460
:100BF000F6058091F801836088608093F8010E9477
:100C0000D305A9E2B1E041E050E08D91E82FE295F3
:100C1000EF70F0E021A18F70BA0102C0660F771F5C
:100C20008A95E2F7CB01962F9095922391A392A1FA
:100C3000892B82A371E0A033B70739F7559A209A20
:100C40005D9A289AE9E4F1E0AFE3B1E011921D92D8
:100C500081E0E335F807D1F70E947B0780935301C9
:100C60000C9483099F92AF92BF92CF92DF92EF9242
:100C7000FF920F931F93CF93DF9380910101811116
:100C800003C0C5E0D0E002C0C0E0D0E0AE01415CEE
:100C90005E4F7A0180E3C82E81E0D82E8A01AA2413
:100CA000A394B12C25E0922EF5E3CF16F1E0DF06F8
:100CB00009F44AC0F60181916F01E82FE295EF70C7
:100CC000F0E021A18F70A50102C0440F551F8A9545
:100CD000E2F7CA01922F982B91A392A180958923C4
:100CE00082A350EA5A95F1F7E9E2F1E020E040E012
:100CF00050E03191A32FA295AF70B0E090968C9107
:100D000090E03F7002C0959587953A95E2F780FD97
:100D100007C0C501042E01C0880F0A94EAF702C07B
:100D200080E090E0282B4F5F5F4F4730510509F777
:100D3000F8018081821719F02083909200010E94AF
:100D4000D3050F5F1F4FB0CF809100018823B1F012
:100D5000815080930001811103C0C75BDE4F07C043
:100D60008FE99FE00197F1F700C0000007C0F7018D
:100D700091917F0199938F5F8530C9F781E0DF9171
:100D8000CF911F910F91FF90EF90DF90CF90BF9088
:100D9000AF909F900895CF93DF932091010121118F
:100DA00003C0C0E0D0E002C0C5E0D0E00E94A507CB
:100DB000009721F0029781F428980EC0289ADE014E
:100DC000A75BBE4F85E0EFE5F1E001900D928A95BB
:100DD000E1F780E090E002C081E090E0DF91CF9108
:100DE00008950E94320680910101811103C0E5E05F
:100DF000F0E002C0E0E0F0E0E75BFE4F20E030E032
:100E000080E0D901A15ABE4F4C919191491381E0E4
:100E10009C932F5F3F4F2530310599F790915701F3
:100E2000890F809357010895CF93DF9380915301E9
:100E3000882309F43FC00E9432068091010181118C
:100E400003C0C5E0D0E002C0C0E0D0E0C75BDE4F29
:100E500045E050E0BE018AE591E00E94AD2025E02A
:100E6000FE01AAE5B1E001900D922A95E1F70E94FA
:100E7000CB06892BD9F05D98809154018F5F8093C8
:100E80005401863058F180910101811103C0E0E0E6
:100E9000F0E002C0E5E0F0E0E75BFE4F80E090E0CC
:100EA0001192019685309105D9F718C05D9A10927C
:100EB000540114C00E94F10680910101811103C008
:100EC000A0E0B0E002C0A5E0B0E0A75BBE4F85E0C7
:100ED000EAE5F1E001900D928A95E1F70E948B0915
:100EE00081E0DF91CF910895E82FF0E0E75BFE4FBE
:100EF000808108950895E8EDF0E08081806180832D
:100F00008AE18A95F1F700C08091D9008170089537
:100F10000E947B07809301010E947B07882319F0C0
:100F20000E94990702C00E949F07789408950C942C
:100F3000880763E070E082E091E00C946E0463E067
:100F400070E082E091E00C9477040F931F93CF93AD
:100F5000DF938C0190911B0180911A01981761F029
:100F600082E090E00E945005EC01892B39F48091D9
:100F70001A0180931B0102C0C0E0D0E0012B49F4AC
:100F80008091550190915601892B19F480E090E0F1
:100F900002C081E090E00E945005892B49F48091C5
:100FA000570180931A01109256011092550106C004
:100FB00081E090E09093560180935501CE01DF913E
:100FC000CF911F910F9108950C94DA08CF93DF937E
:100FD000EC010E948718BE0180E090E0DF91CF9184
:100FE0000C94ED15CF92DF92EF92FF920F931F9327
:100FF00001E010E020E030E06801790104C0CC0C91
:10100000DD1CEE1CFF1C6A95D2F704C0000F111FF7
:10101000221F331F8A95D2F70C291D292E293F291B
:101020008091E3019091E401A091E501B091E60186
:1010300080239123A223B323081719072A073B070C
:1010400049F4842F1F910F91FF90EF90DF90CF9084
:101050000C944D16842F1F910F91FF90EF90DF900D
:10106000CF900C946E16CF93FB01833F2CE5920733
:10107000D9F190F4803F2CE59207F9F028F4833CF5
:101080009C4509F493C017C0813F2CE59207E1F01D
:10109000823F9C4511F10FC0853F2CE5920709F472
:1010A00053C0A0F1873F2CE5920709F457C0883F51
:1010B0009C4509F464C0C1E07AC0C281CC2309F424
:1010C00076C081E090E006C0C281CC2309F46FC0F5
:1010D00082E090E00E94E60769C0C281CC2309F457
:1010E00066C084E090E0F6CFC281CC2349F08091C5
:1010F0006401811103C081E08093640183E011C029
:101100001092640183E00E946E1618C0C281CC2345
:1011100081F080916401811103C081E080936401BA
:1011200084E00E944D1645E064E083E00E94F207EF
:101130003DC084E00E946E161092640145E064E0B8
:1011400083E00E94F20733C0C28185E0CC2319F00E
:101150000E944D162BC00E946E1629C0C281CC235E
:1011600061F08091190282FBCC27C0F982FD02C098
:1011700081E910C080E591E012C081E914C0C2810C
:10118000CC2381F08091190282FBCC27C0F982FD2B
:1011900004C080E90E94BF0E0AC08AE491E00E9468
:1011A000800904C080E90E94820F01C0C0E08C2F3A
:1011B000CF910895089581E008950C9433081F930A
:1011C000CF93DF9300D000D01F92CDB7DEB7498315
:1011D0005A836B8320917D0189819A81211112C0EC
:1011E000662349F00E944217182F682F89819A813F
:1011F0000E94EB1603C00E941617182F69817A818E
:10120000812F04C00E94421769817A810F900F904C
:101210000F900F900F90DF91CF911F910C94080BBE
:10122000FC01408151816281738184810C94DF08CB
:101230001F93CF93DF9390E0FC01E256FB4F149194
:10124000FC01E256FA4FD491FC01E25EFA4FC491E0
:10125000DD2319F081EE0E94BF0ECC2319F086EE3B
:101260000E94BF0E812F0E94AE0FCC2319F086EE94
:101270000E94820FDD2331F081EEDF91CF911F912B
:101280000C94820FDF91CF911F9108950F931F93BC
:10129000CF93DF93EC01062FFE018491882359F14F
:1012A0009E012F5F3F4F813041F4E901F901149114
:1012B000812F0E94BF0E812F0DC0823031F4E901D1
:1012C000F90184910E94BF0E0AC0833031F4E90114
:1012D000F90184910E94820F02C00E941809219690
:1012E000802F8823C9F2EFE9FFE03197F1F700C0C2
:1012F00000008150F6CFDF91CF911F910F9108959B
:1013000060E00C9446090E947418811102C00E948A
:10131000F3180C94E4070C94F70508950C948D09C8
:101320000C948E0908950E9400120E9492092FEFDA
:1013300084E39CE0215080409040E1F700C0000031
:1013400087E797E790930108809300080C94181A98
:101350000F931F93CF93DF938C010E941009EC0130
:10136000B8010E94DD08882309F448C1C73D8CE517
:10137000D80709F4ABC0B0F4C531FCE5DF0768F469
:10138000C2308CE5D80708F04FC0C115ECE5DE0788
:1013900001F1C130DC4529F125C1C631DC4509F434
:1013A000FAC020C1CC3DECE5DE0771F150F4C83D38
:1013B0008CE5D80709F4ADC0C93DDC4509F4D0C0BF
:1013C00011C1CD3DFCE5DF0731F1CE3DDC45A1F09B
:1013D00009C1F8018281882309F410C10E94930990
:1013E0000DC1F8018281882309F408C18091F801B8
:1013F00081608093F80102C1F8018281882309F499
:10140000FDC00E94F318FAC0F8018281882309F414
:10141000F5C080E006C0F8018281882309F4EEC09F
:1014200082E00E94DC1BEAC0F8018281882309F473
:10143000DEC00E947418811102C00E94F3180E943D
:101440008C1890E090931A0280931902FE01E350E9
:10145000FC45E231F10530F4EA5AFF4F8091190260
:101460000C94A72080911902816027C0826025C05A
:10147000846023C0806121C080621FC080641DC061
:1014800080681BC08460886018C08E7F16C08D7F06
:1014900014C08B7F12C08F7E10C08F7D0EC08F7BDB
:1014A0000CC08F770AC08B7F877F07C087FB2227FE
:1014B00020F991E0922790FB87F98093190280919F
:1014C00019020E9490180E94001298C0F8018281AF
:1014D000882351F010926A010E94BC199093670111
:1014E0008093660182E022C080916A0181110FC061
:1014F00080916601909167010E94C8198436910518
:1015000030F486E20E94BF0E86E20E94820F82E0E3
:1015100024C0F8018281882361F010926B010E943F
:10152000BC19909369018093680180E20E94B60F14
:1015300065C080916B0181110FC08091680190910D
:1015400069010E94C8198436910530F487E20E942F
:10155000BF0E87E20E94820F80E20E94BD0F4EC044
:10156000F80182818111D9CF80916B018111F4CF73
:1015700080916801909169010E94C8198436910593
:1015800058F780E20E94BD0F88E20E94BF0E88E2F9
:101590000E94820F33C00E94C317982FF8018281E6
:1015A00020911C0130911D01882379F09A7A81E005
:1015B00009F480E080936501911102C069E201C0E5
:1015C00065E3C9010E9428190AC080916501811153
:1015D00002C069E201C065E3C9010E942A190E94A4
:1015E00011180CC081E080936A0180936B01C801DF
:1015F000DF91CF911F910F910C94DB0880E0DF9178
:10160000CF911F910F91089580E090E00895089583
:1016100026E4829FC0011124FC0127E0729FE00DA7
:10162000F11D1124E60FF11DEE0FFF1FEA5AFE4FC8
:10163000859194910895880F991FFC01E25EF94FFE
:10164000859194910895CF93DF930E94080B0E9497
:10165000DF0CEC018115904508F041C0C11580E414
:10166000D80708F028C1C83ED10510F5C03ED10505
:1016700008F0A1C1C83AD10578F4C53AD10508F0FF
:10168000A2C0C130D10509F496C108F447C1C430E5
:10169000D10508F090C142C1CF3BD10508F49EC0EE
:1016A000C03CD10508F43AC1CE01805C9109F5C077
:1016B000C11590E2D90758F4C11521E0D20708F00E
:1016C0007AC1C03FD10508F429C1D06574C1C115E4
:1016D00080E3D80708F0E5C0CE019F70DEC0C115D9
:1016E00095E5D90708F043C0C11524E5D20708F0F5
:1016F000F9C0C11582E5D80708F5C11591E5D907EC
:1017000008F0DCC0CE0174E0969587957A95E1F7F4
:1017100083709C2F937021E030E002C0220F331FB2
:101720009A95E2F73C68382BCF70C695C69580E253
:10173000C89FE0011124C22BD32B3DC19E01237011
:1017400033278C2F86958695C115D34508F0BBC0ED
:10175000C1E0D0E002C0CC0FDD1F2A95E2F720E205
:10176000829FC0011124C82BD92BDC6824C1C1156C
:1017700029E5D207A0F4C11588E5D80708F0B7C05D
:10178000C11596E5D90708F0C9C08C2F0E945B0DE2
:101790008F71C82FD0E0DC2FCC27D0620CC1C115CF
:1017A0002AE5D20708F4A8C0CE01905681159042D0
:1017B00008F0B4C08D2F8F710E945B0DDD27D062C1
:1017C0008F71D82BF8C0C53AD10509F4AAC0C63A22
:1017D000D10509F0A9C0C2E8D0E4EDC0C83AD105EE
:1017E00009F4A5C0C93AD10509F4A4C0CA3AD10583
:1017F00009F4A3C0CB3AD10509F4A2C0CC3AD10573
:1018000009F4A1C0CB3BD10509F4A0C0CC3BD10564
:1018100009F49FC0CD3AD10509F49EC0C03BD10563
:1018200009F49DC0CE3AD10509F49CC0CF3AD10548
:1018300009F49BC0C13BD10509F49AC0C23BD10554
:1018400009F499C0C33BD10509F498C0C43BD10544
:1018500009F497C0C53BD10509F496C0C63BD10534
:1018600009F495C0C73BD10509F494C0C83BD10524
:1018700009F493C0C93BD10509F492C0CD3BD10511
:1018800009F491C0CE3BD10509F490C0CA3BD10503
:1018900009F48FC0C0E0D4E48EC00E941B0BEC01A1
:1018A0008AC0CE019927D3FF03C0EC01D86C83C056
:1018B000EC01D06C80C0DF70D06A7DC0DC2FCC27FB
:1018C000C16FD06A78C0C1E0D0E002C0CC0FDD1F8C
:1018D0002A95E2F720E2829FC0011124C82BD92B60
:1018E000DA6869C0DC2FCC27C46FD06A64C0DC2FF3
:1018F000CC27C06FD06A5FC08C2F8F700E945B0DA9
:1019000094E0D695C7959A95E1F7CF70D0E0DC2F9B
:10191000CC27D06A8F70806EC82B4DC0C0E0D0E05D
:101920004AC0C1E8D0E447C0C3E8D0E444C0C2EE36
:10193000D4E441C0C9EED4E43EC0CAEED4E43BC016
:10194000C5EBD4E438C0C6EBD4E435C0C3EBD4E473
:1019500032C0C4EBD4E42FC0C7EBD4E42CC0CCEC31
:10196000D4E429C0CDECD4E426C0C3E8D5E423C038
:10197000CAE8D5E420C0C2E9D5E41DC0C4E9D5E475
:101980001AC0C1E2D6E417C0C3E2D6E414C0C4E270
:10199000D6E411C0C5E2D6E40EC0C6E2D6E40BC060
:1019A000C7E2D6E408C0CFE6D4E405C0C0E7D4E47B
:1019B00002C0CAE2D6E4CE01DF91CF910895823809
:1019C000910549F1B0F48133910509F459C048F407
:1019D0008932910509F44FC08A32910509F455C046
:1019E00008958533910509F441C08933910599F033
:1019F0000895833E910531F138F4803E910591F0D0
:101A0000823E9105A9F00895863E910501F1873E39
:101A1000910539F108952091190220FD3BC021FD67
:101A200039C008958091190280FF34C089E341C014
:101A30008091190282FF30C08091190284FD2EC06E
:101A400083EE37C08091190282FD26C0F5CF8091C8
:101A5000190283FF25C08091190284FD1FC087EE03
:101A600028C08091190283FD1BC0F5CF8091190217
:101A700085FD18C019C08091190285FD15C012C0DE
:101A80008091190286FD12C013C08091190286FD53
:101A90000FC00CC080EE0DC082EE0BC080E009C00C
:101AA00086EE07C089E205C085E303C08AE201C073
:101AB00081E390E008959091190292FF0DC0282FC4
:101AC0002871283019F4877F846006C0282F24717C
:101AD000243011F48B7F886093FF0DC0282F28716C
:101AE000283119F4877E846106C0282F247124319F
:101AF00011F48B7E886194FD877E08959093710127
:101B0000809370010895E0917001F0917101309718
:101B100021F00190F081E02D099480E00895E0919A
:101B20007001F0917101309721F00280F381E02D76
:101B30000994089520916E0130916F01281739079B
:101B400071F090936F0180936E01E0917001F091BC
:101B50007101309721F00680F781E02D09940895F6
:101B600020916C0130916D012817390771F0909325
:101B70006D0180936C01E0917001F09171013097DB
:101B800021F00084F185E02D0994089585B78068DF
:101B900085BF85B7806885BF089508950C94CD0DE5
:101BA0000C94CE0D0C94CD0D0E94C60D0E9497078B
:101BB0000C94D00D81E008950E94B3190E94F9059C
:101BC0000E94291A0C94D20DBF92CF92DF92EF920D
:101BD000FF920F931F93CF93DF93CDB7DEB72A9772
:101BE0000FB6F894DEBF0FBECDBF0E9414070E944F
:101BF000DA0D811111C08FEF89838A831B820E94C5
:101C0000BC198160782F9D838C8349815A816B81B7
:101C10008D810E948B0E54C083E7C82E81E0D82EA0
:101C200000E010E0B02E802F0E947407E82EF6012D
:101C300021916F01F82EF22631F40F5F1F4F0A3009
:101C4000110581F7D8CF8091F80181FD0E947A07B4
:101C500080E090E02F2D30E0482FB901082E02C01F
:101C6000759567950A94E2F760FF25C08E83BF8261
:101C700081E090E06C0102C0CC0CDD1C4A95E2F7DB
:101C80002E2D30E02C213D21232B09F480E0888784
:101C90000E94BC198160782F9A8789874E815F8165
:101CA00068858A850E948B0EF801ED58FE4F808171
:101CB0008C25808305C001968730910569F6BDCFDC
:101CC0000E94830D909172018917A9F00E94830DE3
:101CD000809372012A960FB6F894DEBF0FBECDBF77
:101CE000DF91CF911F910F91FF90EF90DF90CF90F8
:101CF000BF900C9490092A960FB6F894DEBF0FBEE1
:101D0000CDBFDF91CF911F910F91FF90EF90DF90AA
:101D1000CF90BF900895CF93DF93CDB7DEB72B97C9
:101D20000FB6F894DEBF0FBECDBF4F8358876987CB
:101D30007A878B87DE01119686E0FD0111928A95E4
:101D4000E9F785E0FE01379601900D928A95E1F75B
:101D500049815A816B817C818D819E810E94B01462
:101D60002B960FB6F894DEBF0FBECDBFDF91CF919B
:101D70000895FC01808191810E9484170895882331
:101D800009F4BFC0682F8CEF860F813A38F4809138
:101D90001C0190911D010E9428190CC080E2860F41
:101DA000883050F4677081E001C0880F6A95EAF7C7
:101DB0000E94C6170C9411188BE5860F833070F4BF
:101DC000653A29F0663A31F083E890E005C081E891
:101DD00090E002C082E890E00C949A0D88E5860FAE
:101DE000873108F08EC0683A09F445C0693A09F4B1
:101DF00045C06A3A09F445C06B3A09F445C06C3AEB
:101E000009F445C06B3B09F445C06C3B09F445C07F
:101E10006D3A09F445C0603B09F445C06E3A09F4D7
:101E200045C06F3A09F445C0613B09F445C0623BC7
:101E300009F445C0633B09F445C0643B09F445C05F
:101E4000653B09F445C0663B09F445C0673B09F4AE
:101E500045C0683B09F445C0693B09F445C06D3B8A
:101E600009F445C06E3B09F445C06A3B09F445C01E
:101E700080E090E044C082EE90E041C089EE90E0C6
:101E80003EC08AEE90E03BC085EB90E038C086EB28
:101E900090E035C083EB90E032C084EB90E02FC03F
:101EA00087EB90E02CC08CEC90E029C08DEC90E0AA
:101EB00026C083E891E023C08AE891E020C082E94F
:101EC00091E01DC084E991E01AC081E292E017C060
:101ED00083E292E014C084E292E011C085E292E0D5
:101EE0000EC086E292E00BC087E292E008C08FE667
:101EF00090E005C080E790E002C08AE292E00C9496
:101F0000B00D0895882349F1682F8CEF860F813A30
:101F100038F480911C0190911D010E942A190CC077
:101F200080E2860F883050F4677081E001C0880F2E
:101F30006A95EAF70E94CC170C9411188BE5860F6E
:101F4000833020F480E090E00C949A0D685A673159
:101F500020F480E090E00C94B00D0895CF93C82F4A
:101F60000E94BF0E8C2FCF910C94820F882321F0FA
:101F70000E94C6170C9411180895882321F00E941E
:101F8000CC170C94111808958F929F92AF92BF9224
:101F9000DF92EF92FF920F931F93CF93DF937C0119
:101FA000D62FC72FFC01158112951F7002810111D8
:101FB0000E94E3170E94BC17882379F0002369F080
:101FC00080E28D0F883048F082E00E945B180E940A
:101FD000BC1791E0D82ED92601C0D12CBC2EB294CA
:101FE0008FE0B8228B2D90E0FC01E859FF4F0C9454
:101FF000A7208C2F807FCF70882311F0C295C07FDF
:10200000002399F0CC2309F463C180E28D0F88305E
:1020100010F0D11104C08C2F0E94C61703C08C2F62
:102020000E94D6170E94111853C18D2F0E94820F53
:10203000CC2309F472C180E28D0F883010F0D111E9
:1020400004C08C2F0E94CC1703C08C2F0E94DC1779
:102050000E94111862C18C2F807FCF70803211F0E6
:10206000C295C07FDD2319F0D130C9F022C0002312
:1020700071F0112341F0113031F40E94F6178C2BCE
:102080000E94FE174AC10E94F6178C2B1DC0112317
:1020900019F0113009F441C10E9407181AC0002339
:1020A00021F0163008F039C10EC0153008F035C1E6
:1020B00010C0002361F0112331F0F701858180FF0A
:1020C00007C18F7085838C2F0E94B60F26C1111116
:1020D00010C18C2FBCC08C2F837009F04CC0011133
:1020E00025C12D2F229526952770220F220F6D2FA7
:1020F0006F70862F90E0A0E0B0E04C015D01022EF1
:1021000004C0880C991CAA1CBB1C0A94D2F7D4FFEB
:1021100012C08FE090E0A0E0B0E004C0880F991FEB
:10212000AA1FBB1F2A95D2F7BC01CD0160957095FF
:102130008095909503C060E070E0CB01C695C69590
:10214000C370C23051F080F4682979298A299B290B
:10215000C13071F00E940116E9C0682979298A29E5
:102160009B290E941316E2C00E940116C501B4010A
:102170000E94EF15DBC0002319F08C2F817001C085
:102180008695882309F4D2C02D2F22952695277095
:10219000220F220F6D2F6F70862F90E0A0E0B0E02D
:1021A0004C015D01022E04C0880C991CAA1CBB1CAA
:1021B0000A94D2F7D4FF12C08FE090E0A0E0B0E024
:1021C00004C0880F991FAA1FBB1F2A95D2F7BC0114
:1021D000CD01609570958095909503C060E070E0AA
:1021E000CB01C695C695C370C23051F080F4682902
:1021F00079298A299B29C13071F00E94C61696C0A0
:10220000682979298A299B290E94D8168FC00E94A3
:10221000C616C501B4010E94B41688C08D2F90E087
:10222000FC01E05EF109E531F10508F04DC0E85828
:10223000FF4F0C94A720DF708C2F8F71002321F0AB
:102240000E944D168D2F40CF0E946E168D2F0E943A
:10225000BD0F63C0002341F0153008F05EC08C2F25
:102260008F710E94931659C0163008F056C0F7CFF0
:10227000002339F08C2F8F710E944D164EC0002321
:10228000C9F38C2F8F710E946E1647C0002329F06E
:102290008C2F8F710E94381640C00E9433163DC0AB
:1022A000002349F0CF718C2F0E944D1663E08C2FD4
:1022B0000E94461832C081E00E945B18123068F11B
:1022C00082E00E945B1829C0002331F0112391F2B3
:1022D0008D2F0E94BF0E21C0112399F2D93349F4EA
:1022E000FFEF27EE83E0F15020408040E1F700C08F
:1022F00000008D2F0E94820F10C04C2F4F706D2F49
:10230000C7010E94040B0E945E1514C04C2F4F7031
:102310006D2FC7010E94070B0DC098E0B91631F070
:10232000B91640F086EF8B0D823020F40E94830DA9
:102330000E949009DD20E1F00E94B81780FD18C0CE
:10234000F70112820E94B2170E944D16C7010E9427
:10235000C4110E94B217DF91CF911F910F91FF908E
:10236000EF90DF90BF90AF909F908F900C946E167F
:10237000DF91CF911F910F91FF90EF90DF90BF9071
:10238000AF909F908F9008950F931F93CF93DF93FB
:10239000EC01988189812B813C81232B31F08F3F87
:1023A00031F481E09F3F19F403C081E001C080E077
:1023B00080FD13C0CE010E94A809882371F06881B6
:1023C00079818A810E948F178C010E94EA160E94EF
:1023D000DB15B801CE010E94C40FDF91CF911F9190
:1023E0000F9108950E94E3170E94F3170C9411189F
:1023F00080911C0190911D010E942C190C94F211E6
:102400000E94D3170C94F811E92FE295EF704E2F2C
:1024100050E0FA013297EE30F105B0F4E357FF4F88
:102420000C94A720803F91F018F4803E68F40EC011
:10243000843F51F40BC0803E48F0813F29F406C030
:1024400093FB882780F9089580E0089581E008953E
:102450000E9484170E9404120895CF93DF9300D046
:1024600000D01F92CDB7DEB70F900F900F900F9056
:102470000F90DF91CF910895CF93DF9300D000D0DC
:1024800000D0CDB7DEB726960FB6F894DEBF0FBEEC
:10249000CDBFDF91CF9108951F93CF93DF93C0916C
:1024A0007E0116E080917F01C81799F0D0E01C9F53
:1024B000F0011D9FF00D1124E058FE4F4081518125
:1024C00062817381848195810E943C122196C7703C
:1024D000E9CFDF91CF911F9108954091B0015091C4
:1024E000B1016091B2017091B3018091B4019091FA
:1024F000B5010C943C12CF938091B50182958F70F9
:1025000009F05FC08091B201882309F45AC080911C
:102510007E01B0917F017091B001A091B101409115
:10252000B3015091B40191E07F3F09F090E0692F31
:10253000C6E08B1709F445C04115510521F0AF3FA6
:1025400021F020E003C021E001C0262F90E020FD13
:1025500035C0C89FF001C99FF00D1124E058FE4F0F
:1025600021812A132BC02081271328C02281211109
:1025700025C0238134812417350710F421503109F7
:10258000241B350B24363105C8F42091B5012F707A
:1025900020612093B50126E0289FF001299FF00DCE
:1025A0001124EB57FE4F80818F708061808380EB18
:1025B00091E00E94C411CF910C944C120196877047
:1025C000B8CFCF910895AF92BF92CF92DF92EF92A2
:1025D000FF920F931F93CF93DF93CDB7DEB7619731
:1025E0000FB6F894DEBF0FBECDBF7C0185E0F701CA
:1025F000DE011D9601900D928A95E1F7D7014C916D
:1026000011965C91119712960C913091B0016091E6
:10261000B1018091B3019091B401009731F06F3F07
:1026200031F421E03F3F19F403C021E001C020E074
:10263000B22FB170BB2E20FD40C1F701C380D48002
:10264000A090B201AA2009F4F6C02091B501C816E5
:10265000D90628F0D601A81BB90BCD0104C080957E
:1026600090958C0D9D1D11E08436910580F010E051
:10267000207F09F0A6C07C2DD98AC88A602F89895D
:102680000E942D1280EB91E00E94C4110EC1822F96
:10269000807F09F053C0561314C0431312C0102F8B
:1026A00001110FC02F7020612093B5010E946D129F
:1026B00080EB91E00E94C4118091B501F701858300
:1026C0003DC1CD2831F05F3F31F481E04F3F19F437
:1026D00003C081E001C080E080FD03C081E080276D
:1026E00002C080E090E0182F117080FF1CC0809124
:1026F0007E0120917F0136E0821709F4FCC090E052
:10270000389FF001399FF00D1124E058FE4F618190
:10271000561306C06081461303C06281061303C0CE
:1027200001968770E9CF102F002309F407C180912B
:10273000B50181608093B50110E000C1561314C04B
:10274000431312C0011110C08091B501F7018583B8
:10275000C7010E94C41186E0F701A0EBB1E001902F
:102760000D928A95E1F7C4C04D875E878D859E8561
:102770000E942812882379F1002369F12091B50184
:10278000822F82958F7090E0029774F08091B00153
:102790009091B10198878F831986DB86CA862C8732
:1027A000CE0107960E94C41186E0F701A0EBB1E0CC
:1027B00001900D928A95E1F70E947B120E946D12A2
:1027C0000DC0561769F04D875E878D859E850E94E6
:1027D0002812811119C0C7010E94C41111E0AEC0B6
:1027E0004313F1CF0111EFCF8091B501F70185833C
:1027F000C7010E94C41186E0E0EBF1E0DF011D9209
:102800008A95E9F71A2D9AC0002329F32091B50182
:10281000822F82958F7090E0029734F28091B00100
:102820009091B1019A8389831B82DD82CC822E83B1
:10283000CE010196B7CFC816D90628F0F601E81BDD
:10284000F90BCF0104C0809590958C0D9D1D8436A9
:10285000910548F010E07C2DD98AC88A602F8989BB
:102860000E942D1222C0102F002309F4B4CF56135A
:102870000BC0431309C086E0F701A0EBB1E0019063
:102880000D928A95E1F75AC04D875E878D859E85AA
:102890000E942812811188CF8091B50181608093B8
:1028A000B501C7010E94C41149C0E0EBF1E086E028
:1028B000DF011D928A95E9F71BC0002309F48BCF35
:1028C0004D875E878D859E850E942812182F88234C
:1028D00009F481CF86E0F701A0EBB1E001900D9201
:1028E0008A95E1F780EB91E00E94B90E0E947B127D
:1028F0000E946D1223C04D875E878D859E850E9444
:102900008417292F22952F70223028F49F7039F0D8
:10291000811105C00BC0243028F49F7049F4805EFB
:10292000883020F0C7010E94C411B12E1B2D06C0B3
:10293000D70115969C91907F91F7F8CF812F6196E2
:102940000FB6F894DEBF0FBECDBFDF91CF911F91C0
:102950000F91FF90EF90DF90CF90BF90AF900895D0
:102960001F93CF93DF93CDB7DEB72C970FB6F894B4
:10297000DEBF0FBECDBF4F83588769877A878B87AD
:102980009C87CE0107960E94E3128823D1F09F8195
:1029900088852A853B85232B31F08F3F31F481E0F8
:1029A0009F3F19F403C081E001C080E080FD47C073
:1029B0004F81588569857A858B859C850E943C125C
:1029C0003EC086E0FE013796DE01119601900D9221
:1029D0008A95E1F7FF81E8856A857B856115710538
:1029E00031F0EF3F31F481E0FF3F19F403C081E0A3
:1029F00001C080E080FD23C020917F0130E0C9014B
:102A000001968770992740917E0150E084179507C1
:102A1000F1F1F983EA837D836C8396E0929FD00184
:102A2000939FB00D1124A058BE4FFE013196019026
:102A30000D929A95E1F780937F010E944C1216E067
:102A400080917E0190917F01891771F1189FC001DB
:102A5000112480589E4F0E94E312882329F1E091AF
:102A60007E011E9FF0011124E058FE4F40815181EC
:102A700062817381848195810E943C1280917E01E4
:102A800090E001968770992780937E01D9CF0E94AC
:102A9000001210927F0110927E01E0EBF1E086E0DF
:102AA000DF011D928A95E9F72C960FB6F894DEBFE8
:102AB0000FBECDBFDF91CF911F910895EF92FF928E
:102AC0000F931F93CF93DF938C01892B09F46CC074
:102AD000F12CEE24E394E8012196F80184918437E7
:102AE00040F4843008F051C0813081F0823019F117
:102AF0005BC0853709F444C0A8F19CE7980F903774
:102B000008F052C08F770E94820F41C00E5F1F4FA6
:102B1000FE01849190E2980F983050F48770FE2D5A
:102B200001C0FF0F8A95EAF78F2F0E94E61714C0A5
:102B30000E94BF0E2DC00E5F1F4FFE01849190E2D8
:102B4000980F983060F48770FE2D01C0FF0F8A95B2
:102B5000EAF78F2F0E94EC170E94111819C00E94EB
:102B6000820F16C00E5F1F4FFE01C491CC2381F06F
:102B70008FE99FE00197F1F700C00000C150F6CF48
:102B80000E5F1F4FFE01F49003C00E94BF0E8E0126
:102B90008F2D882309F49FCFEFE9FFE03197F1F7FC
:102BA00000C000008150F5CFDF91CF911F910F91B0
:102BB000FF90EF900895089508950C94DC150C94FF
:102BC000DD150E94DF156093E7017093E8018093A3
:102BD000E9019093EA010C94F2110C94E1150F9322
:102BE0001F930091E7011091E8012091E9013091D4
:102BF000EA01602B712B822B932B1F910F910C9468
:102C0000E1150F931F930091E7011091E8012091C6
:102C1000E9013091EA0160237123822393231F91FC
:102C20000F910C94E1150F931F930091E701109100
:102C3000E8012091E9013091EA016027712782279C
:102C400093271F910F910C94E1150C94DC150E94B1
:102C500025166093E3017093E4018093E50190935E
:102C6000E6010C94F21160E070E0CB010C942716A1
:102C70000F931F9341E050E060E070E08A019B01F8
:102C800004C0000F111F221F331F8A95D2F7C901FC
:102C9000B8011F910F910C9427160F931F9341E0D9
:102CA00050E060E070E004C0440F551F661F771FBE
:102CB0008A95D2F78091E3019091E401A091E5011A
:102CC000B091E6018A019B01082B192B2A2B3B2B83
:102CD000C901B8011F910F910C9427160F931F93F0
:102CE00041E050E060E070E004C0440F551F661FF3
:102CF000771F8A95D2F74095509560957095809191
:102D0000E3019091E401A091E501B091E6018A010F
:102D10009B01082319232A233B23C901B8011F91D2
:102D20000F910C9427160F931F9341E050E060E041
:102D300070E004C0440F551F661F771F8A95D2F7B5
:102D40008091E3019091E401A091E501B091E60149
:102D50008A019B01082719272A273B27C901B801A7
:102D60001F910F910C9427160F931F930091E3016D
:102D70001091E4012091E5013091E601602B712B67
:102D8000822B932B1F910F910C9427160F931F9357
:102D90000091E3011091E4012091E5013091E601F9
:102DA00060237123822393231F910F910C94271684
:102DB0000F931F930091E3011091E4012091E5012D
:102DC0003091E60160277127822793271F910F9189
:102DD0000C942716089527E0929F800D1124E82F68
:102DE000E695E695E695877051E001C0550F8A9506
:102DF000EAF785E0E89FF0011124EA54FE4F20E055
:102E000030E070E04081CB01022E02C0969587959C
:102E10000A94E2F781708195842785238427819322
:102E20002F5F3F4F2530310569F7089527E0929FC6
:102E3000800D1124682F669566956695982F97707A
:102E400085E0689FB001112440E050E080E0FB0184
:102E5000E40FF51FEA54FE4F208130E0092E02C036
:102E6000369527950A94E2F721703327042E01C086
:102E7000220F0A94EAF7822B4F5F5F4F45305105CE
:102E800031F70895BF92CF92DF92EF92FF920F93A6
:102E90001F93CF93DF938C01C090E301D090E401A6
:102EA000E090E501F090E6018091E7019091E80162
:102EB000A091E901B091EA01C82AD92AEA2AFB2A9D
:102EC000CFE1D0E0D701C6010C2E04C0B695A7957E
:102ED000979587950A94D2F780FD04C0219790F7C3
:102EE000B12C07C0BC2EB8018C2F0E94230B019778
:102EF000A9F38B2DDF91CF911F910F91FF90EF9050
:102F0000DF90CF90BF900895CF93DF93EC010E94A4
:102F10004217BE010E94230BDF91CF9108951F93AA
:102F2000CF93DF93EB0190917D01992321F0CB01A9
:102F30000E94841713C0882349F0CB010E944217D6
:102F4000182F682FCE010E94EB1604C0CB010E94FF
:102F50001617182FBE01812F0E94230BDF91CF91EE
:102F60001F9108958091EB0185958595859508952C
:102F70008091EB01877008959091EB01977081E04B
:102F800009F480E008958091F70108959091F70188
:102F9000892B8093F701089580959091F7018923FB
:102FA0008093F70108951092F70108959091F6012A
:102FB000892B8093F601089580959091F6018923DD
:102FC0008093F60108951092F60108959091F5010D
:102FD000892B8093F501089580959091F5018923BF
:102FE0008093F50108951092F50108958091EC0108
:102FF000089508950C94F9170C94FA179091EC0128
:10300000981721F08093EC010C94FC17089580919F
:10301000EC01882329F01092EC0180E00C94FC175D
:103020000895E0911C01F0911D018091F7018083CA
:10303000E0911C01F0911D0190818091F601892B96
:103040008083E0911C01F0911D0190818091F50138
:10305000892B80838091EC01882381F0E0911C0111
:10306000F0911D019081892B808380911C019091AA
:103070001D010E94F51881110E94071880911C0102
:1030800090911D010C948F0D0C94F91798E0899F75
:1030900090011124262B2093EB010E944D16809164
:1030A000EB018595859585950C9444181092EB015C
:1030B00080E00C9444182091EB018095822380934A
:1030C000EB01982F977079F430E0482F082E000C10
:1030D000550B2417350739F08595859585950E9400
:1030E0006E160C945618089580E090E00E94C2205D
:1030F00021E08D3E9E4F09F020E0822F089582E06E
:1031000090E00C94BA2083E090E00C94BA20682FF1
:1031100083E090E00C94C82084E090E00C94BA2006
:10312000682F84E090E00C94C820AB01BC018FE0D4
:1031300090E00C94DA20AB01BC0183E190E00C94A8
:10314000DA2060E070E0CB010C949B1860E070E046
:10315000CB010E9495180C94A1186DEE7EEF80E0D3
:1031600090E00E94E62060E082E090E00E94C820AB
:1031700060E083E090E00E94C8201092E701109286
:10318000E8011092E9011092EA0160E084E090E029
:103190000E94C82060E085E090E00E94C82060E0C6
:1031A00086E090E00E94C8206FEF87E090E00E94E8
:1031B000C82040E050E0BA0188E090E00E94DA20A8
:1031C00060E08DE090E00E94C82040E050E0BA014D
:1031D00088E190E00E94DA2060E087E190E00E94C0
:1031E000C8200C94A6180C94AD18FC01329697E0F8
:1031F00080E0915029F021912223D9F38F5FF9CFFC
:1032000008959C01FC0132969FEF80E041914617A2
:1032100089F09F3F19F4411101C0982F8F5F8630CC
:10322000A9F79F3F39F0F901E90FF11D97FDFA95D4
:103230006283089508959C012A5F3F4FFC014281FB
:10324000461301C01282019682179307B9F70895B9
:103250000C9401190C941B19029626E0FC011192A2
:103260002A95E9F7089508950C9433190C943319AD
:10327000CF930E9436190E9414070E943419C0E0AF
:103280008C2F0E947407811104C0CF5FCA30C1F730
:1032900001C081E0CF9108950C9433190C944C191E
:1032A0000E944E1980911F02843049F11092F90159
:1032B00020E488E190E00FB6F894A8958093600030
:1032C0000FBE2093600080E00E9490090E944E197A
:1032D00083B7817F846083BF83B7816083BF789425
:1032E000889583B78E7F83BF0FB6F894A895809199
:1032F0006000886180936000109260000FBE0895A6
:103300000C9433190E9400120E94830D0E949009B0
:103310000C9480191F920F920FB60F9211248F9365
:103320009F93AF93BF938091F901811113C0809156
:10333000150290911602A0911702B09118024196C1
:10334000A11DB11D8093150290931602A093170240
:10335000B0931802BF91AF919F918F910F900FBEC4
:103360000F901F90189582E084BD93E095BD9AEF71
:1033700097BD80936E0008952FB7F8948091150241
:1033800090911602A0911702B09118022FBF0895D4
:10339000CF92DF92EF92FF920F931F932FB7F89483
:1033A0004091150250911602609117027091180217
:1033B0002FBF6A017B01EE24FF248C0120E030E066
:1033C000C016D106E206F30610F4415051099A01E5
:1033D000281B390BC9011F910F91FF90EF90DF90CF
:1033E000CF90089578941F920F920FB60F921124E8
:1033F0008F939F93AF93BF93809115029091160284
:10340000A0911702B09118020196A11DB11D8093E1
:10341000150290931602A0931702B0931802BF9161
:10342000AF919F918F910F900FBE0F901F901895A5
:1034300087E797E790930108809300089AE088E176
:103440000FB6F894A895809360000FBE909360002B
:10345000FFCF0E947418811102C00E94F3180E94CD
:103460007F188093F8010E948C1890E090931A02C4
:10347000809319020E948318682F70E080E090E02A
:103480000C94ED1580910202089508950895CF934C
:10349000DF93EC010E94EC1B823011F0843039F58F
:1034A00081E08093E9008FEF9091E800815095FDD5
:1034B00006C095ED9A95F1F700008111F5CF809146
:1034C000E80085FF14C040E050E068E070E0CE0105
:1034D0000E94091C8091E8008E778093E80088E0C4
:1034E000FE01AAEFB1E001900D928A95E1F7DF911C
:1034F000CF910895089580911E02811109C00E9404
:103500009A1D0E94F71D8091E20084608093E20082
:10351000089510921E020895089508950C9482193A
:1035200042E061EC81E00C94131D80912102833014
:1035300009F460C030F4813071F0823009F499C030
:1035400008958A3009F485C08B3009F46BC0893046
:1035500009F0A7C020C080912002813A09F0A1C0E3
:103560008091E800877F8093E80080912402909109
:103570002502892B21F468E08AEF91E003C060E026
:1035800080E090E070E00E94541C8091E8008B770E
:103590008093E800089580912002813209F081C073
:1035A0008091240290912502892B09F07AC08091A4
:1035B000E800877F8093E8008091E80082FD05C0E5
:1035C00080911F028111F8CF6CC02091F30080918F
:1035D000F20090E0922B029729F48091F1008B7F0A
:1035E000813021F48091F100809302028091E80003
:1035F0008B7753C080912002813A09F052C08091AC
:10360000240290912502892B09F04BC08091E8009B
:10361000877F8093E8008091E80080FFFCCF809155
:10362000280136C0809120028132D9F58091240290
:1036300090912502892BA9F58091E800877F8093DE
:10364000E8000E94481D80912202809328010C947A
:10365000001280912002813221F58091E800877F5D
:103660008093E8000E94481D80912302809303020A
:10367000089580912002813AA1F48091E800877F2B
:103680008093E8008091E80080FFFCCF80910302E6
:103690008093F1008091E8008E778093E8000C948D
:1036A000481D089584B7877F84BF0FB6F894A89506
:1036B00080916000886180936000109260000FBE6E
:1036C00080E880936100109261000E94D40D0E94F6
:1036D0009A1D0E94F71D8091E20084608093E200B1
:1036E00078940E948C200E94DC0D8EE191E00E9473
:1036F0007E0D80911F02853069F40E9450198091DF
:103700001D028823B1F30E943819882391F30E9487
:10371000F31BEFCF0E94E40DECCF0C948F1B292FED
:10372000332723303105C1F058F42130310579F0C9
:1037300022303105C1F582E290E026E536E037C05F
:103740002132310511F12232310531F12CC082E1F3
:1037500090E028E736E02BC099278130910561F091
:1037600040F08230910559F00397E9F4EEE1F6E07C
:1037700008C0E2E5F6E005C0ECE3F6E002C0E4E2F2
:10378000F6E0849190E09F0112C0672B61F489E01C
:1037900090E028E636E00BC0672B29F480E490E047
:1037A0002AE836E004C080E090E020E030E0FA0152
:1037B0003183208308950895CF93C82F0E94DB1B87
:1037C000C0930402CF91089580911F02843011F0BC
:1037D00081E0089582E0089580910402811102C081
:1037E0000C94E41B089580E189BD82E189BD09B490
:1037F00000FEFDCF8091D8008F7D8093D80080910E
:10380000E00082608093E0008091E00081FDFCCFC9
:103810000895CF92DF92EF92FF920F931F93CF9371
:10382000DF93EC018B017A010E94671D811133C087
:10383000E114F10439F0F70180819181081B190B23
:10384000C80FD91FC12CD12C0115110519F1809178
:10385000E80085FD16C08091E8008E778093E8002F
:10386000E114F10449F0F70180819181C80ED91E5D
:10387000D182C08285E00FC00E94671D882321F39A
:103880000AC089918093F10001501109FFEFCF1A0E
:10389000DF0ADACF80E0DF91CF911F910F91FF9087
:1038A000EF90DF90CF90089520912602309127026B
:1038B0002617370748F06115710539F42091E800A3
:1038C0002E772093E80001C0B901FC0120E06115CA
:1038D000710579F180911F028823F1F18530F1F1B2
:1038E0008091E80083FD3CC08091E80082FD2EC0FD
:1038F0008091E80080FFEBCF2091F3008091F200EF
:1039000090E0922B6115710551F08830910538F4E3
:1039100021912093F100615071090196F3CF21E0CC
:10392000089709F020E08091E8008E778093E80006
:10393000CECF2111CFCF0AC080911F02882361F022
:10394000853061F08091E80083FD0AC08091E80035
:1039500082FFF2CF80E0089582E0089583E0089529
:1039600081E008952091260230912702261737071B
:1039700048F06115710539F42091E8002E77209305
:10398000E80001C0B901FC0120E06115710591F169
:1039900080911F02882309F440C0853009F43FC09C
:1039A0008091E80083FD3DC08091E80082FD2FC03A
:1039B0008091E80080FFE9CF2091F3008091F20030
:1039C00090E0922B6115710559F08830910540F413
:1039D00024912093F1003196615071090196F2CF44
:1039E00021E0089709F020E08091E8008E7780932D
:1039F000E800CBCF2111CCCF0AC080911F028823D1
:103A000061F0853061F08091E80083FD0AC080910B
:103A1000E80082FFF2CF80E0089582E0089583E01D
:103A2000089581E00895982F973068F59093E90004
:103A3000981739F07091EC002091ED005091F00052
:103A400003C0242F762F50E021FD02C09F5FECCFF2
:103A50003091EB003E7F3093EB003091ED003D7FE5
:103A60003093ED003091EB0031603093EB007093B8
:103A7000EC002093ED005093F0002091EE0027FD24
:103A8000E5CF80E008958F708093E90081E008958C
:103A90008091200287FF11C08091E80082FD05C05F
:103AA00080911F028111F8CF11C08091E8008B77BF
:103AB0000BC080911F02882349F08091E80080FFAD
:103AC000F8CF8091E8008E778093E80008952091E8
:103AD000E4003091E50095E64091EC00842F817080
:103AE00040FF23C08091E80080FD1DC080911F022F
:103AF000882399F0853099F08091EB0085FD11C005
:103B00004091E4005091E5002417350729F39150C6
:103B100011F09A01E1CF84E0089582E0089583E0F6
:103B2000089581E0089580E008954091E80042FF03
:103B3000DDCF08950E94081E0E94101EE0EEF0E006
:103B4000808181608083E8EDF0E080818F778083E1
:103B500019BCA7EDB0E08C918E7F8C9380818F7E15
:103B6000808310921E0208950F931F93CF93DF93CB
:103B70000E94081E0E94101EC8EDD0E088818F7739
:103B8000888388818068888388818F7D888319BC39
:103B900010921F0210921B0210921D0210921C0222
:103BA00000EE10E0F80180818B7F80838881816046
:103BB000888342E060E080E00E94131DE1EEF0E0C7
:103BC00080818E7F8083E2EEF0E08081816080835F
:103BD000808188608083F80180818E7F80838881E6
:103BE00080618883DF91CF911F910F910895E8ED57
:103BF000F0E080818F7E8083E7EDF0E0808181605E
:103C0000808384E082BF81E080931E020C94B41D07
:103C1000E8EDF0E080818E7F80831092E2000895CD
:103C20001092DA001092E10008951F920F920FB6E1
:103C30000F9211242F933F934F935F936F937F9332
:103C40008F939F93AF93BF93EF93FF938091E10086
:103C500082FF0BC08091E20082FF07C08091E100EB
:103C60008B7F8093E1000E948B208091DA0080FF9F
:103C70001FC08091D80080FF1BC08091DA008E7F2A
:103C80008093DA008091D90080FF0DC080E189BD6A
:103C900082E189BD09B400FEFDCF81E080931F025F
:103CA0000E947B1A05C019BC10921F020E94891A3B
:103CB0008091E10080FF19C08091E20080FF15C073
:103CC0008091E2008E7F8093E2008091E20080612B
:103CD0008093E2008091D80080628093D80019BC64
:103CE00085E080931F020E948D1A8091E10084FF7D
:103CF00030C08091E20084FF2CC080E189BD82E168
:103D000089BD09B400FEFDCF8091D8008F7D8093DE
:103D1000D8008091E1008F7E8093E1008091E200E5
:103D20008F7E8093E2008091E20081608093E200C8
:103D300080911B02882311F084E007C08091E3008A
:103D400087FD02C081E001C083E080931F020E94D2
:103D50008E1A8091E10083FF29C08091E20083FFE9
:103D600025C08091E100877F8093E10082E080930D
:103D70001F0210921B028091E1008E7F8093E10070
:103D80008091E2008E7F8093E2008091E20080616A
:103D90008093E20042E060E080E00E94131D809189
:103DA000F00088608093F0000E948C1AFF91EF91E0
:103DB000BF91AF919F918F917F916F915F914F9143
:103DC0003F912F910F900FBE0F901F9018951F924B
:103DD0000F920FB60F9211242F933F934F935F933F
:103DE0006F937F938F939F93AF93BF93CF93DF9303
:103DF000EF93FF93C091E900CF708091EC00D82F32
:103E0000D17080FDD0E81092E9008091F000877FAA
:103E10008093F00078940E942B1F1092E90080910B
:103E2000F00088608093F000CD2BCF70C093E90044
:103E3000FF91EF91DF91CF91BF91AF919F918F91C2
:103E40007F916F915F914F913F912F910F900FBE96
:103E50000F901F9018951F93CF93DF93CDB7DEB7C8
:103E6000AA970FB6F894DEBF0FBECDBFE0E2F2E036
:103E70008091F100819322E0E832F207C9F70E94B5
:103E8000951A8091E80083FF2EC1809120029091C5
:103E90002102492F50E04A30510508F024C1FA01AF
:103EA000E556FF4F0C94A720803821F0823809F0A6
:103EB0001AC108C080911C0290911D02992389F0BB
:103EC00082600FC0809124028F70873008F00BC190
:103ED0008093E9008091EB0085FB882780F91092A0
:103EE000E9009091E800977F9093E8008093F100BB
:103EF0001092F100D1C0282F2D7F09F0F4C0882343
:103F000019F0823061F0EFC080912202813009F017
:103F1000EAC0933009F080E080931D022EC08091AA
:103F2000220281112AC0809124028F702FEF280F66
:103F3000263008F0D8C08093E9002091EB0020FFE4
:103F40001CC0933021F48091EB00806214C09091EA
:103F5000EB0090619093EB0021E030E0A90102C0FA
:103F6000440F551F8A95E2F74093EA001092EA0049
:103F70008091EB0088608093EB001092E9008091C3
:103F8000E800877F8093E8000E94481DACC0811143
:103F9000AAC0109122021F778091E3008078812BC4
:103FA0008093E3008091E800877F8093E8000E947F
:103FB000481D8091E80080FFFCCF8091E30080687D
:103FC0008093E300111102C082E001C083E080937E
:103FD0001F0289C08058823008F085C0809122027B
:103FE000909123028C3D53E0950779F583E08A8315
:103FF0008AE289834FB7F894DE01139620E03EE011
:1040000051E2E32FF0E050935700E49120FF03C00A
:10401000E295EF703F5FEF708E2F90E0EA3010F086
:10402000C79601C0C0968D939D932F5F243149F7A9
:104030004FBF8091E800877F8093E8006AE270E0DC
:10404000CE0101960E94541C16C06091240270910A
:104050002502AE014F5F5F4F0E948D1BBC01892B73
:1040600009F441C09091E800977F9093E80089811E
:104070009A810E94B21C8091E8008B778093E800BF
:1040800032C0803881F58091E800877F8093E80016
:1040900080911B028093F1008091E8008E7772CFAF
:1040A000811121C0809122029091230299270297C9
:1040B000D4F48091E800877F8093E8008091220209
:1040C00080931B020E94481D80911B02811106C033
:1040D0008091E30087FD02C081E001C084E080930D
:1040E0001F020E94901A8091E80083FF0AC080910D
:1040F000E800877F8093E8008091EB0080628093E6
:10410000EB00AA960FB6F894DEBF0FBECDBFDF91CD
:10411000CF911F9108950895CF9380911F02882316
:10412000A1F0C091E900CF709091EC00892F8170CF
:1041300090FD80E8C82B1092E9008091E80083FD93
:104140000E942B1FCF70C093E900CF910895EE0F0E
:10415000FF1F0590F491E02D0994FB01DC0104C0E0
:104160008D910190801921F441505040C8F7881B6F
:10417000990B0895F999FECF92BD81BDF89A9927C0
:1041800080B50895A8E1B0E042E050E00C94EE2044
:10419000262FF999FECF92BD81BDF89A019700B400
:1041A000021639F01FBA20BD0FB6F894FA9AF99AA0
:1041B0000FBE08950396272F0E94C9200E94C82091
:1041C000252F0E94C920242F0C94C9200196272F47
:1041D0000E94C9200C94C820DC01CB01FC01F99994
:1041E000FECF06C0F2BDE1BDF89A319600B40D9243
:0C41F00041505040B8F70895F894FFCFFC
:1041FC00050159010000000157015901055A01013F
:10420C0057015801000000055F01FFFFED01421A44
:10421C00471A451A7A1A461A01F4F5F6F731333271
:0A422C00946697C6340000000000FD
:00000001FF
