:100000000C94F2030C9439040C9439040C94ED0410
:100010000C9439040C9439040C9439040C9439046C
:100020000C9439040C9439040C945A210C9439041E
:100030000C94611A0C9439040C9439040C9439040E
:100040000C9439040C9439040C9439040C9439043C
:100050000C9439040C94C91A0C9439040C94390486
:100060000C9439040C9439040C9439040C9439041C
:100070000C9439040C9439040C9439040C9439040C
:100080000C9439040C9439040C9439040C943904FC
:100090000C9439040C9439040C9439040C943904EC
:1000A0000C9439040C9439040C9439046F087708C3
:1000B00081089408E908B308BE08D008490A4B0A29
:1000C000560A4D0A4F0A510A530A550A580A5A0A43
:1000D0005C0A670A5E0A600A620A640A660A690ABA
:1000E0003A103A106C106C101012AA101012101264
:1000F000EC1010128F118F11001210121012091231
:100100009C119C119C119C119C119C119C119C1187
:100110009C119C119C119C119C119C119C119C1177
:10012000AD11BB11C211C911D31199129912AB12A1
:10013000AB12A212AB12AB12AB1299129912A71208
:10014000AB12AB12A712502277226F2377226F23B4
:10015000C322E6226F233D234C2302E26003E20028
:1001600002E26003E200E20029001E001F002000FE
:10017000210022003602E3002B0014001A000800C0
:100180001500170025024900F45C04001600070062
:1001900009000A0030004A0001001D001B00060093
:1001A0001900050030028B00E000E1002C00F25C39
:1001B0000000000000003702230024002500260074
:1001C00027002D004C0026021C0018000C00120015
:1001D00013002F002A0032000B000D000E000F004C
:1001E00033003400280032021100100036003700BE
:1001F000380087004D00F35C2A0028002E008A009A
:10020000000000000000E20029001E001F00200086
:10021000210022003602E3002B0014001A00070020
:1002200009000A0025024900F45C040012000800DD
:1002300018000C0030004A0001001D001B000600E1
:100240001900050030028B00E000E1002C00F25C98
:1002500000000000000037022300240025002600D3
:1002600027002D004C0026021C0016001700150068
:1002700013002F002A0032000B000D000E000F00AB
:10028000330034002800320211001000360037001D
:10029000380087004D00F35C2A0028002E008A00F9
:1002A000000000000000010001003A003B003C009B
:1002B0003D003E00010001000100010001000100BD
:1002C0000100010001000100010001000100010026
:1002D0000100F05CDE5C0100010001000100010092
:1002E0000100F15C005C0100E0002C00E100010075
:1002F00000000000000001003F00400041004200FB
:10030000430044004500010001000100010001001C
:1003100001000100010001005000510052004F0097
:1003200001000100010001000100010001000100C5
:1003300001000100010001000100010001000100B5
:10034000000000000000010001003A003B003C00FA
:100350003D003E000100010001000100010001001C
:100360000100010001000100010001000100010085
:100370000100F05CDE5C01000100010001000100F1
:100380000100F15C005C0100E0002C00E1000100D4
:1003900000000000000001003F004000410042005A
:1003A00043004400450001000100F400F600F500A0
:1003B000F900010001000100F200F100F000F3007B
:1003C000FA000100010001005000510052004F00EE
:1003D0000100010001000100010001000100010015
:1003E0000000000000000100010001000100010008
:1003F00001000100010001000100010001000100F5
:1004000001000100010001000100010001000100E4
:1004100001000100010001000100010001000100D4
:1004200001000100010001000100010001000100C4
:1004300000000000000001000100010001000100B7
:1004400001000100010001000100010001000100A4
:100450000100010001000100010001000100010094
:100460000100010001000100010001000100010084
:100470000100010001000100010001000100010074
:10048000000000000000E20029001E001F00200004
:10049000210022000100E3002B002E0287021F0230
:1004A00024022F0201004900010033022D00340212
:1004B0002D02340001004A0001001E023802200211
:1004C000210222020100F65CE0002C00E100F25C57
:1004D0000000000000000100230024002500260089
:1004E000270001000100010023022502360230022C
:1004F00030002A0001000100890226023702320280
:10050000320028000100010001002F002E003600FB
:10051000010001004D00F35C2A0028002E00F75C6A
:1005200000000000000000000000000000002A2B76
:100530002800000000000000000000000000000093
:100540000029000000002C1E3420212224342627FC
:10055000252E362D3738271E1F202122232425261D
:100560003333362E37381F0405060708090A0B0CEB
:100570000D0E0F101112131415161718191A1B1C33
:100580001D2F3130232D350405060708090A0B0CF1
:100590000D0E0F101112131415161718191A1B1C13
:1005A0001D2F3130354C000000000000000000001D
:1005B000000000000000000000000000000000003B
:1005C000000000000000000000000000000000002B
:1005D000000000000000000000000000000000001B
:1005E000000000000000000000000000000000000B
:1005F00000000000000000000000000000000000FB
:1006000000000000000000000000000000000000EA
:1006100000000000000000000000000000000000DA
:1006200000000000000000000000000000000000CA
:1006300000000000000000000000000000000000BA
:1006400000000000000000010101010101000101A2
:100650000101000000000000000000000000000098
:10066000010001000101010101010101010101017C
:10067000010101010101010101010101010101016A
:100680000100000001010000000000000000000067
:10069000000000000000000000000000000000005A
:1006A0000001010101000403300000000E034800B6
:1006B00069006E006F006400650000000A037800A6
:1006C00063006400300000000403090409023B00D9
:1006D000020100A032090400000103010100092108
:1006E000110100012240000705810308000A0904E6
:1006F00001000103000000092111010001228A000C
:100700000705820320000A1201100100000008ED15
:10071000FE000001000102030105010902A101859B
:10072000020901A1000509190129051500250195F6
:1007300005750181029501750381010501093009E3
:10074000311581257F9502750881060938158125A7
:100750007F950175088106050C0A38021581257FF1
:10076000950175088106C0C005010906A10185052E
:10077000050719E029E71500250195087501810293
:100780000508190129059505750191029501750363
:1007900091010507190029EF1500250195F0750154
:1007A0008102C005010906A101050719E029E71525
:1007B00000250195087501810295017508810105E3
:1007C0000819012905950575019102950175039197
:1007D000010507190029FF150026FF009506750879
:1007E0008100C00011241FBECFEFDAE0DEBFCDBF15
:1007F00004B603FE27C080915F0290916002A09131
:100800006102B09162028730904BA740B04BD1F4A7
:1008100010925F02109260021092610210926202C6
:1008200014BE84B7877F84BF0FB6F894A8958091D3
:100830006000886180936000109260000FBEE0E06D
:10084000F8E3099511E0A0E0B1E0E4E4F8E402C0C7
:1008500005900D92A234B107D9F722E0A2E4B1E0ED
:1008600001C01D92AF35B207E1F70E94801E0C94C3
:1008700020240C9400008EE14A9B02C08150E1F7D5
:100880004A9BFECF08955A9880E28A95F1F75A9ACA
:100890000895FC012AE02A95F1F790E020E080E03D
:1008A00031E0261779F040E14A95F1F7880F4A9B2D
:1008B00002C08160932700C0000040E14A95F1F733
:1008C0002F5FEFCF20E12A95F1F729B100C000009A
:1008D00030E13A95F1F722FB222720F99227208177
:1008E000920F90830895EF92FF920F931F93CF93EF
:1008F000DF931F92CDB7DEB719828C017C01E60E23
:10090000F11C0E151F0559F00E943B0468E0CE0152
:1009100001960E944904F80181938F01F2CF81E092
:100920009981911180E00F90DF91CF911F910F91EC
:10093000FF90EF900895909344018093430160935A
:100940004201529A5A9A0895909344018093430128
:100950006093420152985A9AEA9AE9E6F0E080815F
:100960008F7C80830895615091E001C0990F6A9552
:10097000EAF720E031E0992361F0492F482319F08C
:100980005A9A232701C05A9840E24A95F1F7969562
:10099000F2CF222311F05A9A01C05A9880E28A9528
:1009A000F1F75A980895FF920F931F93CF93DF9317
:1009B000EC018C01060F111DC017D10741F0F99011
:1009C0000E94430468E08F2D0E94B304F5CFDF91AD
:1009D000CF911F910F91FF9008951F920F920FB624
:1009E0000F9211240F931F932F933F934F935F9375
:1009F0006F937F938F939F93AF93BF93EF93FF93E7
:100A0000CF93DF931F92CDB7DEB719820E943B04CC
:100A100067E0CE0101960E944904382F369536953D
:100A20003695932F96959570232F2570920F292F29
:100A30002370969596958770920F891348C0898187
:100A4000811145C080914201831708F440C080E1C4
:100A50008A95F1F75A9A529AA2E0AA95F1F700C046
:100A60000091430110914401B8E03B9F000D111D1E
:100A700011245A98F8016581662321F086819781B7
:100A80000E94D3040E944304F0E1FA95F1F75A98CA
:100A900052985A9A80E18A95F1F7D80112966C9192
:100AA0001297662369F013968D919C9114970E947A
:100AB0007304D801ED91FC91811105C082E004C05E
:100AC000D801ED91FC9188E080830E943B040F9057
:100AD000DF91CF91FF91EF91BF91AF919F918F9156
:100AE0007F916F915F914F913F912F911F910F9146
:100AF0000F900FBE0F901F9018950F931F93CF93D9
:100B0000DF932091420130E0281739070CF471C0BF
:100B10009C0193E0220F331F9A95E1F7C0914301A6
:100B2000D0914401C20FD31FF894529A5A9845E0CD
:100B30004A95F1F70000982F969595708570890F6A
:100B4000982F937086958695890F8901082B0E94AE
:100B5000430484E08A95F1F700C067E0802F0E948B
:100B6000B30440E14A95F1F752985A9A4A9902C063
:100B700000C0FCCF87E090E04A9B0EC0019751F483
:100B8000529A5A9AE881F98181E08083789481E0D1
:100B900090E031C000C0F0CF6D81662381F08E817E
:100BA0009F810E94730481110AC0529A5A9AE88167
:100BB000F98182E08083789482E090E01CC00E94FA
:100BC0003B0480E28A95F1F75A98529A40E14A959F
:100BD000F1F76A81662321F08B819C810E94D30406
:100BE0000E944304E881F9811082789480E090E0CB
:100BF00002C084E090E0DF91CF911F910F910895A2
:100C0000CF93DF93A7E3B1E04CE351E061E070E004
:100C10008D91E82FE295EF70F0E021A18F70EB014C
:100C200002C0CC0FDD1F8A95E2F7CE019C2F909574
:100C3000922391A392A1892B82A34A175B0741F7C4
:100C4000DF91CF91089508950C94230680911B02A3
:100C50008360886080931B020E940006AFE2B1E0CF
:100C600041E050E08D91E82FE295EF70F0E021A196
:100C70008F70BA0102C0660F771F8A95E2F7CB0129
:100C8000962F9095922391A392A1892B82A371E034
:100C9000A733B70739F7559A209A5D9A289AEFE457
:100CA000F1E0A5E4B1E011921D9281E0E935F80789
:100CB000D1F70E94A807809359010C9496099F923E
:100CC000AF92BF92CF92DF92EF92FF920F931F935A
:100CD000CF93DF9380910101811103C0C5E0D0E083
:100CE00002C0C0E0D0E0AE014B5B5E4F7A0187E30B
:100CF000C82E81E0D82E8A01AA24A394B12C25E025
:100D0000922EFCE3CF16F1E0DF0609F44AC0F601AB
:100D100081916F01E82FE295EF70F0E021A18F70D3
:100D2000A50102C0440F551F8A95E2F7CA01922F10
:100D3000982B91A392A18095892382A350EA5A957A
:100D4000F1F7EFE2F1E020E040E050E03191A32F35
:100D5000A295AF70B0E090968C9190E03F7002C089
:100D6000959587953A95E2F780FD07C0C501042E59
:100D700001C0880F0A94EAF702C080E090E0282BB7
:100D80004F5F5F4F4830510509F7F80180818217A6
:100D900019F02083909200010E9400060F5F1F4F00
:100DA000B0CF809100018823B1F081508093000181
:100DB000811103C0C15BDE4F07C08FE99FE001973F
:100DC000F1F700C0000007C0F70191917F019993EE
:100DD0008F5F8530C9F781E0DF91CF911F910F912F
:100DE000FF90EF90DF90CF90BF90AF909F900895CD
:100DF000CF93DF9320910101211103C0C0E0D0E027
:100E000002C0C5E0D0E00E94D207009721F002970F
:100E100081F428980EC0289ADE01A15BBE4F85E0C0
:100E2000E5E6F1E001900D928A95E1F780E090E02F
:100E300002C081E090E0DF91CF9108950E945F06AB
:100E400080910101811103C0E5E0F0E002C0E0E023
:100E5000F0E0E15BFE4F20E030E080E0D901AB59EB
:100E6000BE4F4C919191491381E09C932F5F3F4F6E
:100E70002530310599F790915D01890F80935D01CF
:100E80000895CF93DF9380915901882309F43FC0DF
:100E90000E945F0680910101811103C0C5E0D0E08E
:100EA00002C0C0E0D0E0C15BDE4F45E050E0BE01D3
:100EB00080E691E00E94D12325E0FE01A0E6B1E0AA
:100EC00001900D922A95E1F70E94F806892BD9F03E
:100ED0005D9880915A018F5F80935A01863058F156
:100EE00080910101811103C0E0E0F0E002C0E5E083
:100EF000F0E0E15BFE4F80E090E0119201968530DA
:100F00009105D9F718C05D9A10925A0114C00E9439
:100F10001E0780910101811103C0A0E0B0E002C072
:100F2000A5E0B0E0A15BBE4F85E0E0E6F1E0019016
:100F30000D928A95E1F70E949E0981E0DF91CF91A1
:100F40000895E82FF0E0E15BFE4F80810895089559
:100F5000E8EDF0E08081806180838AE18A95F1F795
:100F600000C08091D900817008950E94A8078093E5
:100F700001010E94A807882319F00E94C60702C039
:100F80000E94CC07789408950C94B50763E070E054
:100F900082E091E00C949B0463E070E082E091E0D9
:100FA0000C94A4040F931F93CF93DF938C01909123
:100FB0001B0180911A01981761F082E090E00E9475
:100FC0007D05EC01892B39F480911A0180931B0176
:100FD00002C0C0E0D0E0012B49F480915B01909108
:100FE0005C01892B19F480E090E002C081E090E080
:100FF0000E947D05892B49F480915D0180931A013F
:1010000010925C0110925B0106C081E090E0909329
:101010005C0180935B01CE01DF91CF911F910F9115
:1010200008950C94ED080C94FF0DCF93DF93EC0121
:101030000E940E19BE0180E090E0DF91CF910C94E8
:101040007416CF92DF92EF92FF920F931F9301E0FD
:1010500010E020E030E06801790104C0CC0CDD1C18
:10106000EE1CFF1C6A95D2F704C0000F111F221F4F
:10107000331F8A95D2F70C291D292E293F298091EB
:10108000EE019091EF01A091F001B091F101802368
:101090009123A223B323081719072A073B0749F412
:1010A000842F1F910F91FF90EF90DF90CF900C94C1
:1010B000D416842F1F910F91FF90EF90DF90CF9067
:1010C0000C94F516CF93805F9C458830910508F00D
:1010D00080C0DB018A5A9F4FFC010C94B723129603
:1010E000CC91CC2309F476C081E090E007C0129641
:1010F000CC91CC2309F46EC082E090E00E941508E8
:1011000062C01296CC91CC2349F080916A01811182
:1011100003C081E080936A0182E012C010926A01EC
:1011200082E00E94F51619C01296CC91CC2381F072
:1011300080916A01811103C081E080936A0183E09C
:101140000E94D41644E063E082E00E9421083BC084
:1011500083E00E94F51610926A0144E063E082E0A9
:101160000E94210837C01296CC9184E0CC2319F05C
:101170000E94D41628C00E94F5162CC01296CC915D
:10118000CC2361F08091500282FBCC27C0F982FD14
:1011900002C081E911C080E691E013C081E916C068
:1011A0001296CC91CC2389F08091500282FBCC27FF
:1011B000C0F982FD04C080E90E94F10E0BC08AE5EF
:1011C00091E00E949309C0E005C080E90E94BB0F36
:1011D00001C0C1E08C2FCF910895089581E008955A
:1011E0000C9462081F93CF93DF9300D000D01F921E
:1011F000CDB7DEB749835A836B8320918301898100
:101200009A81211112C0662349F00E94C917182F34
:10121000682F89819A810E94721703C00E949D17CE
:10122000182F69817A81812F04C00E94C9176981B2
:101230007A810F900F900F900F900F90DF91CF91C8
:101240001F910C941B0BFC014081518162817381C1
:1012500084810C94F2081F93CF93DF9390E0FC01FC
:10126000EA5DFA4F1491FC01EA5DF94FD491FC015B
:10127000EA55FA4FC491DD2319F081EE0E94F10E78
:10128000CC2319F086EE0E94F10E812F0E94EF0F01
:10129000CC2319F086EE0E94BB0FDD2331F081EEE6
:1012A000DF91CF911F910C94BB0FDF91CF911F91D4
:1012B00008950F931F93CF93DF93EC01062FFE0148
:1012C0008491882359F19E012F5F3F4F813041F473
:1012D000E901F9011491812F0E94F10E812F0DC0B7
:1012E000823031F4E901F90184910E94F10E0AC0C3
:1012F000833031F4E901F90184910E94BB0F02C0EF
:101300000E942B092196802F8823C9F2EFE9FFE084
:101310003197F1F700C000008150F6CFDF91CF91F7
:101320001F910F91089560E00C9459090E94FB18D9
:10133000811102C00E947A190C9411080C942406A1
:1013400008950C94A0090C94A10908950E94871295
:101350000E94A5092FEF84E39CE02150804090403B
:10136000E1F700C0000087E797E7909301088093BA
:1013700000080C94EF1A0F931F93CF93DF938C0107
:101380000E942309EC01B8010E94F008882309F4A7
:1013900048C1C73D8CE5D80709F4ABC0B0F4C531EE
:1013A000FCE5DF0768F4C2308CE5D80708F04FC0D1
:1013B000C115ECE5DE0701F1C130DC4529F125C19D
:1013C000C631DC4509F4FAC020C1CC3DECE5DE07AE
:1013D00071F150F4C83D8CE5D80709F4ADC0C93DA2
:1013E000DC4509F4D0C011C1CD3DFCE5DF0731F18A
:1013F000CE3DDC45A1F009C1F8018281882309F4C2
:1014000010C10E94A6090DC1F8018281882309F448
:1014100008C180911B02816080931B0202C1F80108
:101420008281882309F4FDC00E947A19FAC0F8016C
:101430008281882309F4F5C080E006C0F80182812A
:10144000882309F4EEC082E00E941F1FEAC0F80161
:101450008281882309F4DEC00E94FB18811102C03A
:101460000E947A190E94131990E090935102809380
:101470005002FE01E350FC45E231F10530F4E25A3E
:10148000FF4F809150020C94B723809150028160ED
:1014900027C0826025C0846023C0806121C0806233
:1014A0001FC080641DC080681BC08460886018C035
:1014B0008E7F16C08D7F14C08B7F12C08F7E10C0B0
:1014C0008F7D0EC08F7B0CC08F770AC08B7F877F8C
:1014D00007C087FB222720F991E0922790FB87F92C
:1014E00080935002809150020E9417190E94871227
:1014F00098C0F8018281882351F0109270010E94F7
:10150000931A90936D0180936C0182E022C08091C8
:10151000700181110FC080916C0190916D010E944A
:101520009F1A8436910530F486E20E94F10E86E21D
:101530000E94BB0F82E024C0F8018281882361F001
:10154000109271010E94931A90936F0180936E0123
:1015500080E20E94F70F65C08091710181110FC078
:1015600080916E0190916F010E949F1A84369105BF
:1015700030F487E20E94F10E87E20E94BB0F80E206
:101580000E94FE0F4EC0F80182818111D9CF809157
:1015900071018111F4CF80916E0190916F010E94D1
:1015A0009F1A8436910558F780E20E94FE0F88E268
:1015B0000E94F10E88E20E94BB0F33C00E944A18BD
:1015C000982FF801828120911C0130911D01882300
:1015D00079F09A7A81E009F480E080936B019111AF
:1015E00002C069E201C065E3C9010E94E2190AC0B4
:1015F00080916B01811102C069E201C065E3C901FC
:101600000E94ED190E9498180CC081E0809370012F
:1016100080937101C801DF91CF911F910F910C94BC
:10162000EE0880E0DF91CF911F910F91089580E047
:1016300090E008950895E72FF0E09AE0899FE00D8B
:10164000F11D112483E0EE0FFF1F8A95E1F7E60FED
:10165000F11DEE0FFF1FEA59FE4F859194910895F9
:10166000880F991FFC01EA55F94F859194910895CF
:10167000CF93DF930E941B0B0E94F40CEC018115A9
:10168000904508F041C0C11580E4D80708F028C192
:10169000C83ED10510F5C03ED10508F0A1C1C83A39
:1016A000D10578F4C53AD10508F0A2C0C130D10502
:1016B00009F496C108F447C1C430D10508F090C1BF
:1016C00042C1CF3BD10508F49EC0C03CD10508F40F
:1016D0003AC1CE01805C9109F5C0C11590E2D907ED
:1016E00058F4C11521E0D20708F07AC1C03FD105F6
:1016F00008F429C1D06574C1C11580E3D80708F08A
:10170000E5C0CE019F70DEC0C11595E5D90708F090
:1017100043C0C11524E5D20708F0F9C0C11582E520
:10172000D80708F5C11591E5D90708F0DCC0CE014E
:1017300074E0969587957A95E1F783709C2F937066
:1017400021E030E002C0220F331F9A95E2F73C6897
:10175000382BCF70C695C69580E2C89FE001112452
:10176000C22BD32B3DC19E01237033278C2F86952E
:101770008695C115D34508F0BBC0C1E0D0E002C0DA
:10178000CC0FDD1F2A95E2F720E2829FC0011124D1
:10179000C82BD92BDC6824C1C11529E5D207A0F4D8
:1017A000C11588E5D80708F0B7C0C11596E5D90777
:1017B00008F0C9C08C2F0E94700D8F71C82FD0E027
:1017C000DC2FCC27D0620CC1C1152AE5D20708F462
:1017D000A8C0CE0190568115904208F0B4C08D2F5C
:1017E0008F710E94700DDD27D0628F71D82BF8C0E9
:1017F000C53AD10509F4AAC0C63AD10509F0A9C075
:10180000C2E8D0E4EDC0C83AD10509F4A5C0C93A90
:10181000D10509F4A4C0CA3AD10509F4A3C0CB3A52
:10182000D10509F4A2C0CC3AD10509F4A1C0CB3B43
:10183000D10509F4A0C0CC3BD10509F49FC0CD3A35
:10184000D10509F49EC0C03BD10509F49DC0CE3A34
:10185000D10509F49CC0CF3AD10509F49BC0C13B26
:10186000D10509F49AC0C23BD10509F499C0C33B24
:10187000D10509F498C0C43BD10509F497C0C53B14
:10188000D10509F496C0C63BD10509F495C0C73B04
:10189000D10509F494C0C83BD10509F493C0C93BF4
:1018A000D10509F492C0CD3BD10509F491C0CE3BDE
:1018B000D10509F490C0CA3BD10509F48FC0C0E03E
:1018C000D4E48EC00E94300BEC018AC0CE0199276F
:1018D000D3FF03C0EC01D86C83C0EC01D06C80C096
:1018E000DF70D06A7DC0DC2FCC27C16FD06A78C092
:1018F000C1E0D0E002C0CC0FDD1F2A95E2F720E264
:10190000829FC0011124C82BD92BDA6869C0DC2F53
:10191000CC27C46FD06A64C0DC2FCC27C06FD06ADC
:101920005FC08C2F8F700E94700D94E0D695C79584
:101930009A95E1F7CF70D0E0DC2FCC27D06A8F707A
:10194000806EC82B4DC0C0E0D0E04AC0C1E8D0E4F2
:1019500047C0C3E8D0E444C0C2EED4E441C0C9EEFD
:10196000D4E43EC0CAEED4E43BC0C5EBD4E438C0F6
:10197000C6EBD4E435C0C3EBD4E432C0C4EBD4E44A
:101980002FC0C7EBD4E42CC0CCECD4E429C0CDEC00
:10199000D4E426C0C3E8D5E423C0CAE8D5E420C017
:1019A000C2E9D5E41DC0C4E9D5E41AC0C1E2D6E459
:1019B00017C0C3E2D6E414C0C4E2D6E411C0C5E245
:1019C000D6E40EC0C6E2D6E40BC0C7E2D6E408C037
:1019D000CFE6D4E405C0C0E7D4E402C0CAE2D6E44E
:1019E000CE01DF91CF9108958238910549F1B0F48D
:1019F0008133910509F459C048F48932910509F4FD
:101A00004FC08A32910509F455C008958533910578
:101A100009F441C08933910599F00895833E9105F9
:101A200031F138F4803E910591F0823E9105A9F0A4
:101A30000895863E910501F1873E910539F108959B
:101A40002091500220FD3BC021FD39C008958091B6
:101A5000500280FF34C089E341C08091500282FF70
:101A600030C08091500284FD2EC083EE37C080913B
:101A7000500282FD26C0F5CF8091500283FF25C021
:101A80008091500284FD1FC087EE28C080915002D3
:101A900083FD1BC0F5CF8091500285FD18C019C091
:101AA0008091500285FD15C012C08091500286FDC4
:101AB00012C013C08091500286FD0FC00CC080EE92
:101AC0000DC082EE0BC080E009C086EE07C089E23F
:101AD00005C085E303C08AE201C081E390E0089578
:101AE0009091500292FF0DC0282F2871283019F4D0
:101AF000877F846006C0282F2471243011F48B7FE7
:101B0000886093FF0DC0282F2871283119F4877E33
:101B1000846106C0282F2471243111F48B7E8861E2
:101B200094FD877E089590937701809376010895C0
:101B3000E0917601F0917701309721F00190F081EA
:101B4000E02D099480E00895E0917601F09177010D
:101B5000309799F020912E01222359F020915002C4
:101B600027FF07C0DC012C9111962C93119725E0DB
:101B70002C930280F381E02D09940895E091760181
:101B8000F0917701309739F022E0DC012C9304804A
:101B9000F581E02D0994089520917401309175012B
:101BA0002817390771F09093750180937401E091C3
:101BB0007601F0917701309721F00680F781E02DD2
:101BC0000994089520917201309173012817390703
:101BD00071F09093730180937201E0917601F0911E
:101BE0007701309721F00084F185E02D0994089564
:101BF00085B7806885BF85B7806885BF08950895DB
:101C00000C94FF0D0C94000E0E94F80D0E94C40766
:101C10000C94020E81E008950E948A1A0E94260602
:101C20000E94001B0C941308BF92CF92DF92EF9298
:101C3000FF920F931F93CF93DF93CDB7DEB72A9711
:101C40000FB6F894DEBF0FBECDBF0E9441070E94C1
:101C50000A0E811111C08FEF89838A831B820E9433
:101C6000931A8160782F9D838C8349815A816B817F
:101C70008D810E94BD0E54C089E7C82E81E0D82E08
:101C800000E010E0B02E802F0E94A107E82EF601A0
:101C900021916F01F82EF22631F40F5F1F4F0A30A9
:101CA000110581F7D8CF80911B0281FD0E94A70703
:101CB00080E090E02F2D30E0482FB901082E02C0BF
:101CC000759567950A94E2F760FF25C08E83BF8201
:101CD00081E090E06C0102C0CC0CDD1C4A95E2F77B
:101CE0002E2D30E02C213D21232B09F480E0888724
:101CF0000E94931A8160782F9A8789874E815F812D
:101D000068858A850E94BD0EF801E758FE4F8081E4
:101D10008C25808305C001968830910569F6BDCF7A
:101D20000E94931C0E94980D909178018917A9F048
:101D30000E94980D809378012A960FB6F894DEBF22
:101D40000FBECDBFDF91CF911F910F91FF90EF900C
:101D5000DF90CF90BF900C94A3092A960FB6F89409
:101D6000DEBF0FBECDBFDF91CF911F910F91FF90CE
:101D7000EF90DF90CF90BF900895CF93DF93CDB7D2
:101D8000DEB72B970FB6F894DEBF0FBECDBF4F83E3
:101D9000588769877A878B87DE01119686E0FD0177
:101DA00011928A95E9F785E0FE01379601900D9230
:101DB0008A95E1F749815A816B817C818D819E8171
:101DC0000E9437152B960FB6F894DEBF0FBECDBF1D
:101DD000DF91CF910895FC01808191810E940B18C1
:101DE0000895882309F4C6C09CEF980F913A40F4F7
:101DF000682F80911C0190911D010E94E2190DC075
:101E000090E2980F983058F4877091E001C0990FD4
:101E10008A95EAF7892F0E944D180C9498189BE533
:101E2000980F933070F4853A29F0863A31F083E8C0
:101E300090E005C081E890E002C082E890E00C9458
:101E4000CC0D98E5980F973108F08EC0883A09F4C8
:101E500045C0893A09F445C08A3A09F445C08B3A2D
:101E600009F445C08C3A09F445C08B3B09F445C0E0
:101E70008C3B09F445C08D3A09F445C0803B09F418
:101E800045C08E3A09F445C08F3A09F445C0813BFC
:101E900009F445C0823B09F445C0833B09F445C0C1
:101EA000843B09F445C0853B09F445C0863B09F4F1
:101EB00045C0873B09F445C0883B09F445C0893BD0
:101EC00009F445C08D3B09F445C08E3B09F445C07B
:101ED0008A3B09F445C080E090E044C082EE90E087
:101EE00041C089EE90E03EC08AEE90E03BC085EBB9
:101EF00090E038C086EB90E035C083EB90E032C0D4
:101F000084EB90E02FC087EB90E02CC08CEC90E04D
:101F100029C08DEC90E026C083E891E023C08AE8D8
:101F200091E020C082E991E01DC084E991E01AC0EF
:101F300081E292E017C083E292E014C084E292E072
:101F400011C085E292E00EC086E292E00BC087E20B
:101F500092E008C08FE690E005C080E790E002C004
:101F60008AE292E00C94E20D803F20F00E949B1BDD
:101F70000C94881C0895882389F19CEF980F913A5E
:101F800040F4682F80911C0190911D010E94ED1971
:101F90000DC090E2980F983058F4877091E001C01E
:101FA000990F8A95EAF7892F0E9453180C94981874
:101FB0009BE5980F933020F480E090E00C94CC0DDA
:101FC00098E5980F973120F480E090E00C94E20DB2
:101FD000803F20F00E94031C0C94881C0895CF932E
:101FE000C82F0E94F10E8C2FCF910C94BB0F882329
:101FF00021F00E944D180C9498180895882321F020
:102000000E9453180C94981808958F929F92AF9243
:10201000BF92DF92EF92FF920F931F93CF93DF93C4
:102020007C01D62FC72FFC01058102950F7012810C
:1020300011110E946A180E944318882379F0112315
:1020400069F080E28D0F883048F082E00E94E2184B
:102050000E94431891E0D82ED92601C0D12CBC2E65
:10206000B2948FE0B8228B2D90E0FC01E059FF4F35
:102070000C94B7238C2F807FCF70882311F0C295EA
:10208000C07F112399F0CC2309F4A5C180E28D0F04
:10209000883010F0D11104C08C2F0E944D1803C05D
:1020A0008C2F0E945D180E94981895C18D2F0E9458
:1020B000BB0FCC2309F4B4C180E28D0F883010F03F
:1020C000D11104C08C2F0E94531803C08C2F0E9482
:1020D00063180E949818A4C18C2F807FCF70803223
:1020E00011F0C295C07FDD2319F0D130C9F022C0B4
:1020F000112371F0002341F0013031F40E947D186A
:102100008C2B0E9485188CC10E947D188C2B1CC1C1
:10211000002319F0013009F483C10E948E1818C001
:10212000112321F0063008F07BC10EC0053008F005
:1021300077C10EC0112351F0002331F0F7018581E2
:1021400080FF49C18F7085838C2FFEC0011154C15F
:102150008C2F00C11123F9F0D53F51F0D63F71F01B
:10216000D43FA9F480914A0290914B0281600BC048
:1021700080914A0290914B02826005C080914A0290
:1021800090914B02846090934B0280934A028D2F72
:102190000E949B1B1EC0D53F51F0D63F71F0D43F2B
:1021A000A9F480914A0290914B028E7F0BC08091DE
:1021B0004A0290914B028D7F05C080914A02909116
:1021C0004B028B7F90934B0280934A028D2F0E948B
:1021D000031C0E94881C31C18C2F837009F04CC0F5
:1021E000111127C12D2F229526952770220F220F1E
:1021F0006D2F6F70862F90E0A0E0B0E04C015D0184
:10220000022E04C0880C991CAA1CBB1C0A94D2F78D
:10221000D4FF12C08FE090E0A0E0B0E004C0880FCF
:10222000991FAA1FBB1F2A95D2F7BC01CD0160954B
:1022300070958095909503C060E070E0CB01C695E5
:10224000C695C370C23051F080F4682979298A2973
:102250009B29C13071F00E948816EBC0682979294A
:102260008A299B290E949A16E4C00E948816C501FB
:10227000B4010E947616DDC0112319F08C2F8170F5
:1022800001C08695882309F4D4C02D2F2295269568
:102290002770220F220F6D2F6F70862F90E0A0E025
:1022A000B0E04C015D01022E04C0880C991CAA1CF0
:1022B000BB1C0A94D2F7D4FF12C08FE090E0A0E0DC
:1022C000B0E004C0880F991FAA1FBB1F2A95D2F740
:1022D000BC01CD01609570958095909503C060E03C
:1022E00070E0CB01C695C695C370C23051F080F442
:1022F000682979298A299B29C13071F00E944D17DC
:1023000098C0682979298A299B290E945F1791C062
:102310000E944D17C501B4010E943B178AC08D2F42
:1023200090E0FC01E05EF109E531F10508F04FC0F5
:10233000E058FF4F0C94B723DF708C2F8F7111235F
:1023400031F00E94D4168D2F0E94F70F69C00E94B1
:10235000F5168D2F0E94FE0F63C0112341F005304A
:1023600008F05EC08C2F8F710E941A1759C006307A
:1023700008F056C0F7CF112339F08C2F8F710E94CF
:10238000D4164EC01123C9F38C2F8F710E94F516FD
:1023900047C0112329F08C2F8F710E94BF1640C0B7
:1023A0000E94BA163DC0112349F0CF718C2F0E94B4
:1023B000D41663E08C2F0E94CD1832C081E00E94B9
:1023C000E218023068F182E00E94E21829C011236D
:1023D00031F0002391F28D2F0E94F10E21C00023D5
:1023E00099F2D93349F4FFEF27EE83E0F150204012
:1023F0008040E1F700C000008D2F0E94BB0F10C08D
:102400004C2F4F706D2FC7010E94170B0E94E515CE
:1024100014C04C2F4F706D2FC7010E941A0B0DC0B6
:1024200098E0B91631F0B91640F086EF8B0D823086
:1024300020F40E94980D0E94A309DD20E1F00E9483
:102440003F1880FD18C0F70112820E9439180E94BF
:10245000D416C7010E9447120E943918DF91CF910C
:102460001F910F91FF90EF90DF90BF90AF909F90E2
:102470008F900C94F516DF91CF911F910F91FF90E3
:10248000EF90DF90BF90AF909F908F9008950F9343
:102490001F93CF93DF93EC01988189812B813C813D
:1024A000232B31F08F3F31F481E09F3F19F403C0BB
:1024B00081E001C080E080FD13C0CE010E94BB0915
:1024C000882371F0688179818A810E9416188C01B5
:1024D0000E9471170E946216B801CE010E94051079
:1024E000DF91CF911F910F9108950E946A180E9469
:1024F0007A180E9498180E94211D0C94881C8091C3
:102500001C0190911D010E94F8190C9475120E94F3
:102510005A180C947F12E92FE295EF704E2F50E07D
:10252000FA013297EE30F105B0F4EB56FF4F0C9400
:10253000B723803F91F018F4803E68F40EC0843FCA
:1025400051F40BC0803E48F0813F29F406C093FB54
:10255000882780F9089580E0089581E008950E9419
:102560000B180E948B120895CF93DF9300D000D0F8
:102570001F92CDB7DEB70F900F900F900F900F9076
:10258000DF91CF910895CF93DF9300D000D000D09A
:10259000CDB7DEB726960FB6F894DEBF0FBECDBF1F
:1025A000DF91CF9108951F93CF93DF93C091840162
:1025B00016E080918501C81799F0D0E01C9FF001CA
:1025C0001D9FF00D1124EA57FE4F40815181628119
:1025D0007381848195810E94C3122196C770E9CFCF
:1025E000DF91CF911F9108954091B6015091B701AD
:1025F0006091B8017091B9018091BA019091BB01CD
:102600000C94C312CF938091BB0182958F7009F017
:102610005FC08091B801882309F45AC08091840179
:10262000B09185017091B601A091B7014091B901B7
:102630005091BA0191E07F3F09F090E0692FC6E028
:102640008B1709F445C04115510521F0AF3F21F02A
:1026500020E003C021E001C0262F90E020FD35C01E
:10266000C89FF001C99FF00D1124EA57FE4F218148
:102670002A132BC02081271328C02281211125C0B5
:10268000238134812417350710F421503109241B8C
:10269000350B24363105C8F42091BB012F70206121
:1026A0002093BB0126E0289FF001299FF00D112403
:1026B000E557FE4F80818F708061808386EB91E0CB
:1026C0000E944712CF910C94D31201968770B8CF15
:1026D000CF910895AF92BF92CF92DF92EF92FF9287
:1026E0000F931F93CF93DF93CDB7DEB761970FB6EC
:1026F000F894DEBF0FBECDBF7C0185E0F701DE019F
:102700001D9601900D928A95E1F7D7014C91119693
:102710005C91119712960C913091B6016091B701BE
:102720008091B9019091BA01009731F06F3F31F477
:1027300021E03F3F19F403C021E001C020E0B22FA7
:10274000B170BB2E20FD40C1F701C380D480A090A2
:10275000B801AA2009F4F6C02091BB01C816D90619
:1027600028F0D601A81BB90BCD0104C08095909527
:102770008C0D9D1D11E08436910580F010E0207FC6
:1027800009F0A6C07C2DD98AC88A602F89890E9449
:10279000B41286EB91E00E9447120EC1822F807F17
:1027A00009F053C0561314C0431312C0102F011167
:1027B0000FC02F7020612093BB010E94F41286EBA2
:1027C00091E00E9447128091BB01F70185833DC1D2
:1027D000CD2831F05F3F31F481E04F3F19F403C061
:1027E00081E001C080E080FD03C081E0802702C05D
:1027F00080E090E0182F117080FF1CC08091840150
:102800002091850136E0821709F4FCC090E0389FE2
:10281000F001399FF00D1124EA57FE4F61815613E4
:1028200006C06081461303C06281061303C001968F
:102830008770E9CF102F002309F407C18091BB01F5
:1028400081608093BB0110E000C1561314C0431394
:1028500012C0011110C08091BB01F7018583C7012F
:102860000E94471286E0F701A6EBB1E001900D92BD
:102870008A95E1F7C4C04D875E878D859E850E944D
:10288000AF12882379F1002369F12091BB01822FD7
:1028900082958F7090E0029774F08091B6019091CC
:1028A000B70198878F831986DB86CA862C87CE016D
:1028B00007960E94471286E0F701A6EBB1E001906F
:1028C0000D928A95E1F70E9402130E94F4120DC046
:1028D000561769F04D875E878D859E850E94AF12E1
:1028E000811119C0C7010E94471211E0AEC0431305
:1028F000F1CF0111EFCF8091BB01F7018583C701B3
:102900000E94471286E0E6EBF1E0DF011D928A9516
:10291000E9F71A2D9AC0002329F32091BB01822FD9
:1029200082958F7090E0029734F28091B601909179
:10293000B7019A8389831B82DD82CC822E83CE01EC
:102940000196B7CFC816D90628F0F601E81BF90B97
:10295000CF0104C0809590958C0D9D1D8436910506
:1029600048F010E07C2DD98AC88A602F89890E949E
:10297000B41222C0102F002309F4B4CF56130BC099
:10298000431309C086E0F701A6EBB1E001900D9278
:102990008A95E1F75AC04D875E878D859E850E9496
:1029A000AF12811188CF8091BB0181608093BB0100
:1029B000C7010E94471249C0E6EBF1E086E0DF0163
:1029C0001D928A95E9F71BC0002309F48BCF4D8730
:1029D0005E878D859E850E94AF12182F882309F48B
:1029E00081CF86E0F701A6EBB1E001900D928A95C8
:1029F000E1F786EB91E00E94EB0E0E9402130E9429
:102A0000F41223C04D875E878D859E850E940B182A
:102A1000292F22952F70223028F49F7039F08111D0
:102A200005C00BC0243028F49F7049F4805E8830C4
:102A300020F0C7010E944712B12E1B2D06C0D701FE
:102A400015969C91907F91F7F8CF812F61960FB6E4
:102A5000F894DEBF0FBECDBFDF91CF911F910F91D4
:102A6000FF90EF90DF90CF90BF90AF9008951F93AD
:102A7000CF93DF93CDB7DEB72C970FB6F894DEBFB8
:102A80000FBECDBF4F83588769877A878B879C8716
:102A9000CE0107960E946A138823D1F09F81888512
:102AA0002A853B85232B31F08F3F31F481E09F3F16
:102AB00019F403C081E001C080E080FD47C04F8170
:102AC000588569857A858B859C850E94C3123EC096
:102AD00086E0FE013796DE01119601900D928A95EF
:102AE000E1F7FF81E8856A857B856115710531F025
:102AF000EF3F31F481E0FF3F19F403C081E001C0F2
:102B000080E080FD23C02091850130E0C90101965D
:102B1000877099274091840150E084179507F1F15F
:102B2000F983EA837D836C8396E0929FD001939F23
:102B3000B00D1124AA57BE4FFE01319601900D929F
:102B40009A95E1F7809385010E94D31216E0809157
:102B5000840190918501891771F1189FC00111249A
:102B60008A579E4F0E946A13882329F1E0918401BD
:102B70001E9FF0011124EA57FE4F4081518162816E
:102B80007381848195810E94C3128091840190E0B9
:102B900001968770992780938401D9CF0E9487126C
:102BA0001092850110928401E6EBF1E086E0DF01EE
:102BB0001D928A95E9F72C960FB6F894DEBF0FBEEA
:102BC000CDBFDF91CF911F910895EF92FF920F93A8
:102BD0001F93CF93DF938C01892B09F46CC0F12CE8
:102BE000EE24E394E8012196F8018491843740F4BF
:102BF000843008F051C0813081F0823019F15BC01F
:102C0000853709F444C0A8F19CE7980F903708F085
:102C100052C08F770E94BB0F41C00E5F1F4FFE0155
:102C2000849190E2980F983050F48770FE2D01C087
:102C3000FF0F8A95EAF78F2F0E946D1814C00E942B
:102C4000F10E2DC00E5F1F4FFE01849190E2980F90
:102C5000983060F48770FE2D01C0FF0F8A95EAF767
:102C60008F2F0E9473180E94981819C00E94BB0FE2
:102C700016C00E5F1F4FFE01C491CC2381F08FE977
:102C80009FE00197F1F700C00000C150F6CF0E5F42
:102C90001F4FFE01F49003C00E94F10E8E018F2D94
:102CA000882309F49FCFEFE9FFE03197F1F700C0E7
:102CB00000008150F5CFDF91CF911F910F91FF90D0
:102CC000EF900895089508950C9463160C9464167B
:102CD0000E9466166093F2017093F3018093F401F1
:102CE0009093F5010C9475120C9468160F931F9332
:102CF0000091F2011091F3012091F4013091F5015E
:102D0000602B712B822B932B1F910F910C946816C3
:102D10000F931F930091F2011091F3012091F401A0
:102D20003091F50160237123822393231F910F912A
:102D30000C9468160F931F930091F2011091F30108
:102D40002091F4013091F5016027712782279327A4
:102D50001F910F910C9468160C9463160E94AC1688
:102D60006093EE017093EF018093F0019093F10175
:102D70000C94751260E070E0CB010C94AE160F93CA
:102D80001F9341E050E060E070E08A019B0104C0C5
:102D9000000F111F221F331F8A95D2F7C901B801F6
:102DA0001F910F910C94AE160F931F9341E050E0CA
:102DB00060E070E004C0440F551F661F771F8A95BE
:102DC000D2F78091EE019091EF01A091F001B091C6
:102DD000F1018A019B01082B192B2A2B3B2BC901DE
:102DE000B8011F910F910C94AE160F931F9341E001
:102DF00050E060E070E004C0440F551F661F771F6D
:102E00008A95D2F740955095609570958091EE0126
:102E10009091EF01A091F001B091F1018A019B0125
:102E2000082319232A233B23C901B8011F910F91BD
:102E30000C94AE160F931F9341E050E060E070E0F9
:102E400004C0440F551F661F771F8A95D2F78091E3
:102E5000EE019091EF01A091F001B091F1018A0192
:102E60009B01082719272A273B27C901B8011F9171
:102E70000F910C94AE160F931F930091EE011091D9
:102E8000EF012091F0013091F101602B712B822B29
:102E9000932B1F910F910C94AE160F931F930091DB
:102EA000EE011091EF012091F0013091F1016023CA
:102EB0007123822393231F910F910C94AE160F93CD
:102EC0001F930091EE011091EF012091F0013091DC
:102ED000F10160277127822793271F910F910C948E
:102EE000AE16089528E0929F800D1124E82FE695F4
:102EF000E695E695877051E001C0550F8A95EAF78F
:102F000085E0E89FF0011124E454FE4F20E030E01A
:102F100070E04081CB01022E02C0969587950A94FD
:102F2000E2F78170819584278523842781932F5F21
:102F30003F4F2530310569F7089528E0929F800DB5
:102F40001124682F669566956695982F977085E091
:102F5000689FB001112440E050E080E0FB01E40FE5
:102F6000F51FE454FE4F208130E0092E02C0369553
:102F700027950A94E2F721703327042E01C0220F0F
:102F80000A94EAF7822B4F5F5F4F4530510531F7C6
:102F90000895BF92CF92DF92EF92FF920F931F930B
:102FA000CF93DF938C01C090EE01D090EF01E090C1
:102FB000F001F090F1018091F2019091F301A09164
:102FC000F401B091F501C82AD92AEA2AFB2ACFE1F7
:102FD000D0E0D701C6010C2E04C0B695A7959795F1
:102FE00087950A94D2F780FD04C0219790F7B12C01
:102FF00007C0BC2EB8018C2F0E94380B0197A9F393
:103000008B2DDF91CF911F910F91FF90EF90DF906B
:10301000CF90BF900895CF93DF93EC010E94C91722
:10302000BE010E94380BDF91CF9108951F93CF937B
:10303000DF93EB0190918301992321F0CB010E9452
:103040000B1813C0882349F0CB010E94C917182F11
:10305000682FCE010E94721704C0CB010E949D17F9
:10306000182FBE01812F0E94380BDF91CF911F9145
:1030700008958091F60185958595859508958091AF
:10308000F601877008959091F601977081E009F438
:1030900080E0089580911A02089590911A02892B78
:1030A00080931A020895809590911A028923809343
:1030B0001A02089510921A02089590911902892B0C
:1030C0008093190208958095909119028923809325
:1030D0001902089510921902089590911802892BEF
:1030E0008093180208958095909118028923809307
:1030F000180208951092180208958091F70108951A
:1031000008950C9480180C9481189091F7019817E9
:1031100021F08093F7010C94831808958091F701B2
:10312000882329F01092F70180E00C948318089509
:10313000E0911C01F0911D0180911A028083E091C1
:103140001C01F0911D01908180911902892B8083CF
:10315000E0911C01F0911D01908180911802892B52
:1031600080838091F701882381F0E0911C01F09128
:103170001D019081892B808380911C0190911D01FC
:103180000E947C1981110E948E1880911C019091DF
:103190001D010C94A40D0C94801898E0899F900157
:1031A0001124262B2093F6010E94D4168091F6015B
:1031B0008595859585950C94CB181092F60180E045
:1031C0000C94CB182091F601809582238093F60110
:1031D000982F977079F430E0482F082E000C550B8B
:1031E0002417350739F08595859585950E94F51644
:1031F0000C94DD18089580E090E00E94E62321E021
:103200008D3E9E4F09F020E0822F089582E090E0ED
:103210000C94DE2383E090E00C94DE23682F83E09F
:1032200090E00C94EC2384E090E00C94DE23682F73
:1032300084E090E00C94EC23AB01BC018FE090E0C3
:103240000C94FE23AB01BC0183E190E00C94FE23BF
:1032500060E070E0CB010C94221960E070E0CB01DB
:103260000E941C190C9428196DEE7EEF80E090E00E
:103270000E940A2460E082E090E00E94EC2360E07B
:1032800083E090E00E94EC231092F2011092F3018F
:103290001092F4011092F50160E084E090E00E9449
:1032A000EC2360E085E090E00E94EC2360E086E0A3
:1032B00090E00E94EC236FEF87E090E00E94EC2307
:1032C00040E050E0BA0188E090E00E94FE2360E018
:1032D0008DE090E00E94EC2340E050E0BA0188E1EC
:1032E00090E00E94FE2360E087E190E00E94EC23E2
:1032F0000C942D190C943419FC01329680912E01F6
:10330000882331F08091500287FF02C09EE101C006
:1033100096E080E0915028F021912223D9F38F5F2D
:10332000F9CF08959C01FC0132969FEF80E0419116
:10333000461789F09F3F19F4411101C0982F8F5F04
:103340008630A9F79F3F39F0F901E90FF11D97FD8C
:10335000FA956283089508959C012A5F3F4FFC010E
:103360004281461301C01282019682179307B9F772
:103370000895262F2695269526952E3168F4FC0172
:10338000E20FF11D677021E030E001C0220F6A9565
:10339000EAF78281282B22830895262F26952695E9
:1033A00026952E3170F4FC01E20FF11D677021E0CB
:1033B00030E001C0220F6A95EAF720958281282328
:1033C0002283089520912E01222329F0209150027A
:1033D00027FD0C94B9190C94921920912E012223E7
:1033E00029F02091500227FD0C94CD190C94AC19B2
:1033F00020912E01FC013296222331F0809150025F
:1034000087FF02C08EE101C086E0DF011D928A9530
:10341000E9F7089508950C940A1A0C940A1ACF93A8
:103420000E940D1A0E9441070E940B1AC0E08C2FC7
:103430000E94A107811104C0CF5FCA30C1F701C04B
:1034400081E0CF9108950C940A1A0C94231A0E94DB
:10345000251A80915602843049F110921C0220E412
:1034600088E190E00FB6F894A895809360000FBEB5
:103470002093600080E00E94A3090E94251A83B770
:10348000817F846083BF83B7816083BF7894889590
:1034900083B78E7F83BF0FB6F894A89580916000A4
:1034A000886180936000109260000FBE08950C94B4
:1034B0000A1A0E9487120E94980D0E94A3090C9478
:1034C000571A1F920F920FB60F9211248F939F934A
:1034D000AF93BF9380911C02811113C080914C0265
:1034E00090914D02A0914E02B0914F024196A11DC4
:1034F000B11D80934C0290934D02A0934E02B09365
:103500004F02BF91AF919F918F910F900FBE0F907F
:103510001F90189582E084BD93E095BD9AEF97BD0A
:1035200080936E0008952FB7F89480914C0290918B
:103530004D02A0914E02B0914F022FBF0895CF923D
:10354000DF92EF92FF920F931F932FB7F894409161
:103550004C0250914D0260914E0270914F022FBF6C
:103560006A017B01EE24FF248C0120E030E0C016CC
:10357000D106E206F30610F4415051099A01281BC6
:10358000390BC9011F910F91FF90EF90DF90CF9001
:10359000089578941F920F920FB60F9211248F9373
:1035A0009F93AF93BF9380914C0290914D02A09155
:1035B0004E02B0914F020196A11DB11D80934C02A5
:1035C00090934D02A0934E02B0934F02BF91AF91E2
:1035D0009F918F910F900FBE0F901F90189587E7C6
:1035E00097E790930108809300089AE088E10FB66E
:1035F000F894A895809360000FBE90936000FFCF71
:103600000E94FB18811102C00E947A190E940619BB
:1036100080931B020E94131990E0909351028093B3
:1036200050020E940A19682F70E080E090E00C942C
:1036300074168091200280FF0BC06091210185E00B
:10364000689FB001112475956795759567952BC096
:1036500081FF09C06091210185E0689FB0011124BC
:103660007595679520C082FF07C06091210185E0B4
:10367000689FB001112417C090911F029923D1F0C7
:1036800060912001961788F72091210185E0289FFD
:1036900090011124929FA001939F500D112470E07E
:1036A000CA010E94A3236038710540F461157105B9
:1036B00019F406C065E070E0862F08958FE708953D
:1036C00081E008958091200280FF08C060911F0171
:1036D00070E0759567957595679521C081FF06C067
:1036E00060911F0170E07595679519C082FF04C055
:1036F00060911F0170E010C090911F02992399F012
:1037000060911E019617A0F780911F01899FC0014B
:10371000112470E00E94A3236038710540F4611504
:10372000710519F406C061E070E0862F08958FE7F7
:10373000089581E00895803F21F40E94191B81952E
:1037400004C0813F29F40E94191B8093240208952C
:10375000823F21F40E94191B819504C0833F29F404
:103760000E94191B809323020895893F19F40E9437
:10377000621B05C08A3F31F40E94621B81958093D1
:10378000250208958B3F21F40E94621B819504C09D
:103790008C3F29F40E94621B809326020895843F87
:1037A00021F480912202816017C0853F21F480912D
:1037B0002202826011C0863F21F48091220284603F
:1037C0000BC0873F21F480912202886005C0883FAA
:1037D00031F48091220280618093220208958D3F0E
:1037E00021F48091200281600BC08E3F21F48091F2
:1037F0002002826005C08F3F29F4809120028460FE
:10380000809320020895803F39F48091240287FF3D
:103810006CC01092240269C0813F29F48091240277
:103820001816BCF362C090912302823F29F497FFDF
:103830005CC01092230259C0833F19F41916CCF3CF
:1038400054C0893F41F48091250218160CF04DC0F8
:10385000109225024AC08A3F29F48091250287FFF1
:1038600044C0F6CF8B3F39F48091260287FF3DC0DC
:10387000109226023AC08C3F29F480912602181635
:10388000BCF333C0843F21F4809122028E7F17C0A5
:10389000853F21F4809122028D7F11C0863F21F463
:1038A000809122028B7F0BC0873F21F480912202FE
:1038B000877F05C0883F31F4809122028F7E8093FC
:1038C000220213C08D3F21F4809120028E7F0BC015
:1038D0008E3F21F4809120028D7F05C08F3F29F417
:1038E000809120028B7F809320028091230281119E
:1038F0000EC08091240281110AC08091250281119D
:1039000006C080912602811102C010921F02089504
:1039100081E292E00E94BE0D0E94931A90931E02D3
:1039200080931D0208951F93CF93DF9380911D0212
:1039300090911E020E949F1AAC0190911F02992340
:1039400021F02091220130E006C0209123018AE07D
:10395000289F900111244217530708F46EC08091EC
:103960002302C0912402D0912502109126028111D8
:1039700007C0C1115EC0D1115CC011115AC05DC039
:103980009F3F19F09F5F90931F02181624F40E9426
:10399000191B809323028091230287FF05C00E9498
:1039A000191B8195809323021C1624F40E94191B75
:1039B000809324028091240287FF05C00E94191B76
:1039C00081958093240240912302442379F0309121
:1039D0002402332359F025EB4203A0011124509314
:1039E00023023203C0011124909324021D1624F4F3
:1039F0000E94621B809325028091250287FF05C0EB
:103A00000E94621B819580932502111624F40E9466
:103A1000621B809326028091260287FF05C00E94C8
:103A2000621B819580932602DF91CF911F910C94A8
:103A3000881C9F3F09F0A6CFB7CFDF91CF911F9190
:103A40000895E1E2F2E086E0DF011D928A95E9F750
:103A500010921F021092200208958091470208954B
:103A60000895CF93DF93EC010E942F1F823011F055
:103A70008430F9F482E08093E9008FEF9091E800C0
:103A8000815095FD06C095ED9A95F1F700008111E2
:103A9000F5CF8091E80085FF0CC040E050E066E083
:103AA00070E0CE010E944C1F8091E8008E778093D9
:103AB000E800DF91CF910895CF93DF93EC010E944E
:103AC0002F1F823011F08430D9F580912E01882388
:103AD00039F08091500287FF03C060E282E002C0AB
:103AE00068E081E08093E9008FEF9091E8008150D9
:103AF00095FD06C095ED9A95F1F700008111F5CF7F
:103B00008091E80085FF1CC080912E01811105C0C5
:103B100040E050E068E070E003C070E040E050E05A
:103B2000CE010E944C1F8091E8008E778093E800C0
:103B300080E2FE01A7E2B2E001900D928A95E1F7E2
:103B4000DF91CF910895089580915502811109C0A8
:103B50000E94DF200E943C218091E20084608093DB
:103B6000E2000895109255020895089508950C9466
:103B7000591A42E061EC81E00E94582042E261EC77
:103B800082E00C94582080915802833009F460C080
:103B900030F4813071F0823009F499C008958A3090
:103BA00009F485C08B3009F46BC0893009F0A7C0D7
:103BB00020C080915702813A09F0A1C08091E800AD
:103BC000877F8093E80080915B0290915C02892B53
:103BD00021F460E287E292E003C060E080E090E0E0
:103BE00070E00E94991F8091E8008B778093E80035
:103BF000089580915702813209F081C080915B0263
:103C000090915C02029708F07AC08091E800877F6B
:103C10008093E8008091E80082FD05C08091560203
:103C20008111F8CF6CC02091F3008091F20090E0F8
:103C3000922B029729F48091F1008B7F813021F43F
:103C40008091F100809347028091E8008B7753C008
:103C500080915702813A09F052C080915B029091A5
:103C60005C02892B09F04BC08091E800877F80932C
:103C7000E8008091E80080FFFCCF80912E0136C0E3
:103C8000809157028132D9F580915B0290915C025C
:103C9000892BA9F58091E800877F8093E8000E9436
:103CA0008D208091590280932E010C94871280916F
:103CB0005702813221F58091E800877F8093E800E8
:103CC0000E948D2080915A0280934802089580912D
:103CD0005702813AA1F48091E800877F8093E80041
:103CE0008091E80080FFFCCF809148028093F10032
:103CF0008091E8008E778093E8000C948D200895E1
:103D000084B7877F84BF0FB6F894A8958091600030
:103D1000886180936000109260000FBE80E88093FD
:103D20006100109261000E94040E0E94DF200E9438
:103D30003C218091E20084608093E20078940E94AC
:103D400088230E940C0E84E291E00E94930D8091E2
:103D50005602853069F40E94271A80915402882304
:103D6000B1F30E940F1A882391F30E94361FEFCF00
:103D70000E94140E0E948823EACF0C94BF1E292FA4
:103D8000332723303105C9F060F42130310581F04B
:103D90002230310509F04AC08BE390E02CEC36E08C
:103DA00049C02132310511F12232310579F13EC08D
:103DB00082E190E027E037E03DC09927813091050E
:103DC00061F040F08230910559F0039779F5E6EA09
:103DD000F6E008C0E8ECF6E005C0ECEBF6E002C067
:103DE000ECEAF6E0849190E09F0124C06115710532
:103DF00041F061307105D1F489E090E027EF36E0C1
:103E000019C089E090E02EED36E014C0611571050F
:103E100041F06130710551F48AE890E029E137E022
:103E200009C080E490E023EA37E004C080E090E03D
:103E300020E030E0FA013183208308950895CF9384
:103E4000C82F0E941E1FC0934902CF9108958091F0
:103E50005602843011F081E0089582E00895809147
:103E60004902811102C00C94271F089580E189BD89
:103E700082E189BD09B400FEFDCF8091D8008F7D1D
:103E80008093D8008091E00082608093E000809170
:103E9000E00081FDFCCF0895CF92DF92EF92FF9278
:103EA0000F931F93CF93DF93EC018B017A010E9454
:103EB000AC20811135C0E114F10439F0F7018081A3
:103EC0009181081B190BC80FD91FC12CD12C0115CA
:103ED000110529F18091E80085FD18C08091E80066
:103EE0008E778093E8000E948823E114F10449F062
:103EF000F70180819181C80ED91ED182C08285E0F0
:103F00000FC00E94AC20882311F30AC089918093CE
:103F1000F10001501109FFEFCF1ADF0AD8CF80E07E
:103F2000DF91CF911F910F91FF90EF90DF90CF9095
:103F3000089520915D0230915E022617370748F000
:103F40006115710539F42091E8002E772093E8007F
:103F500001C0B901FC0120E06115710579F1809182
:103F600056028823F1F18530F1F18091E80083FD5C
:103F70003CC08091E80082FD2EC08091E80080FF67
:103F8000EBCF2091F3008091F20090E0922B61152D
:103F9000710551F08830910538F421912093F1009A
:103FA000615071090196F3CF21E0089709F020E0F4
:103FB0008091E8008E778093E800CECF2111CFCF9B
:103FC0000AC080915602882361F0853061F08091AB
:103FD000E80083FD0AC08091E80082FFF2CF80E014
:103FE000089582E0089583E0089581E00895209186
:103FF0005D0230915E022617370748F061157105A2
:1040000039F42091E8002E772093E80001C0B9012F
:10401000FC0120E06115710591F180915602882321
:1040200009F440C0853009F43FC08091E80083FD69
:104030003DC08091E80082FD2FC08091E80080FFA4
:10404000E9CF2091F3008091F20090E0922B61156E
:10405000710559F08830910540F424912093F100C6
:104060003196615071090196F2CF21E0089709F06D
:1040700020E08091E8008E778093E800CBCF21117B
:10408000CCCF0AC080915602882361F0853061F060
:104090008091E80083FD0AC08091E80082FFF2CFA2
:1040A00080E0089582E0089583E0089581E0089516
:1040B000982F973068F59093E900981739F0709130
:1040C000EC002091ED005091F00003C0242F762FDA
:1040D00050E021FD02C09F5FECCF3091EB003E7FAE
:1040E0003093EB003091ED003D7F3093ED00309147
:1040F000EB0031603093EB007093EC002093ED0007
:104100005093F0002091EE0027FDE5CF80E0089568
:104110008F708093E90081E008958091570287FFB6
:1041200011C08091E80082FD05C080915602811186
:10413000F8CF11C08091E8008B770BC080915602B8
:10414000882349F08091E80080FFF8CF8091E80053
:104150008E778093E80008952091E4003091E50087
:1041600095E64091EC00842F817040FF23C0809140
:10417000E80080FD1DC080915602882399F08530AB
:1041800099F08091EB0085FD11C04091E4005091C1
:10419000E5002417350729F3915011F09A01E1CF7A
:1041A00084E0089582E0089583E0089581E0089511
:1041B00080E008954091E80042FFDDCF08950E941D
:1041C0004D210E945521E0EEF0E0808181608083E6
:1041D000E8EDF0E080818F77808319BCA7EDB0E037
:1041E0008C918E7F8C9380818F7E8083109255027C
:1041F00008950F931F93CF93DF930E944D210E9448
:104200005521C8EDD0E088818F77888388818068C8
:10421000888388818F7D888319BC10925602109202
:104220005202109254021092530200EE10E0F80174
:1042300080818B7F808388818160888342E060E019
:1042400080E00E945820E1EEF0E080818E7F808344
:10425000E2EEF0E0808181608083808188608083ED
:10426000F80180818E7F8083888180618883DF91DF
:10427000CF911F910F910895E8EDF0E080818F7E3E
:104280008083E7EDF0E080818160808384E082BFFD
:1042900081E0809355020C94F920E8EDF0E08081F4
:1042A0008E7F80831092E20008951092DA001092BF
:1042B000E10008951F920F920FB60F9211242F93D1
:1042C0003F934F935F936F937F938F939F93AF939E
:1042D000BF93EF93FF938091E10082FF0BC0809129
:1042E000E20082FF07C08091E1008B7F8093E100B4
:1042F0000E9487238091DA0080FF1FC08091D80040
:1043000080FF1BC08091DA008E7F8093DA0080915D
:10431000D90080FF0DC080E189BD82E189BD09B46B
:1043200000FEFDCF81E0809356020E94A41D05C0CF
:1043300019BC109256020E94B21D8091E10080FFCC
:1043400019C08091E20080FF15C08091E2008E7F4D
:104350008093E2008091E20080618093E20080918E
:10436000D80080628093D80019BC85E08093560203
:104370000E94B61D8091E10084FF30C08091E20070
:1043800084FF2CC080E189BD82E189BD09B400FEB3
:10439000FDCF8091D8008F7D8093D8008091E1007F
:1043A0008F7E8093E1008091E2008F7E8093E20017
:1043B0008091E20081608093E20080915202882324
:1043C00011F084E007C08091E30087FD02C081E026
:1043D00001C083E0809356020E94B71D8091E100E6
:1043E00083FF24C08091E20083FF20C08091E10020
:1043F000877F8093E10082E0809356021092520200
:104400008091E1008E7F8093E1008091E2008E7FB9
:104410008093E2008091E20080618093E20042E0BC
:1044200060E080E00E9458200E94B51DFF91EF914E
:10443000BF91AF919F918F917F916F915F914F91BC
:104440003F912F910F900FBE0F901F9018951F93C3
:10445000CF93DF93CDB7DEB7AA970FB6F894DEBF40
:104460000FBECDBFE7E5F2E08091F100819322E03D
:10447000EF35F207C9F70E94C31D8091E80083FF62
:104480002EC18091570290915802492F50E04A3036
:10449000510508F024C1FA01ED55FF4F0C94B723E4
:1044A000803821F0823809F01AC108C08091530287
:1044B00090915402992389F082600FC080915B0231
:1044C0008F70873008F00BC18093E9008091EB007A
:1044D00085FB882780F91092E9009091E800977F8A
:1044E0009093E8008093F1001092F100D1C0282F42
:1044F0002D7F09F0F4C0882319F0823061F0EFC0FD
:1045000080915902813009F0EAC0933009F080E0CF
:10451000809354022EC08091590281112AC080914B
:104520005B028F702FEF280F263008F0D8C08093E1
:10453000E9002091EB0020FF1CC0933021F4809112
:10454000EB00806214C09091EB0090619093EB00BF
:1045500021E030E0A90102C0440F551F8A95E2F71F
:104560004093EA001092EA008091EB00886080930B
:10457000EB001092E9008091E800877F8093E800CB
:104580000E948D20ACC08111AAC0109159021F77E2
:104590008091E3008078812B8093E3008091E80094
:1045A000877F8093E8000E948D208091E80080FF43
:1045B000FCCF8091E30080688093E300111102C07A
:1045C00082E001C083E08093560289C08058823027
:1045D00008F085C08091590290915A028C3D53E0B9
:1045E000950779F583E08A838AE289834FB7F89447
:1045F000DE01139620E03EE051E2E32FF0E050931D
:104600005700E49120FF03C0E295EF703F5FEF7029
:104610008E2F90E0EA3010F0C79601C0C0968D93BF
:104620009D932F5F243149F74FBF8091E800877F2A
:104630008093E8006AE270E0CE0101960E94991F23
:1046400016C060915B0270915C02AE014F5F5F4FDC
:104650000E94BD1EBC01892B09F441C09091E80065
:10466000977F9093E80089819A810E94F71F80913B
:10467000E8008B778093E80032C0803881F5809124
:10468000E800877F8093E800809152028093F100D8
:104690008091E8008E7772CF811121C080915902FC
:1046A00090915A0299270297D4F48091E800877F6D
:1046B0008093E80080915902809352020E948D20DD
:1046C00080915202811106C08091E30087FD02C0F3
:1046D00081E001C084E0809356020E94B91D809160
:1046E000E80083FF0AC08091E800877F8093E8009C
:1046F0008091EB0080628093EB00AA960FB6F8944D
:10470000DEBF0FBECDBFDF91CF911F9108950895F9
:10471000CF93809156028823A1F0C091E900CF7019
:104720009091EC00892F817090FD80E8C82B109249
:10473000E9008091E80083FD0E942722CF70C0939A
:10474000E900CF91089597FB072E16F4009407D047
:1047500077FD09D00E94BD2307FC05D03EF490955B
:1047600081959F4F0895709561957F4F0895EE0F45
:10477000FF1F0590F491E02D0994AA1BBB1B51E18A
:1047800007C0AA1FBB1FA617B70710F0A61BB70BC1
:10479000881F991F5A95A9F780959095BC01CD0166
:1047A0000895FB01DC0104C08D910190801921F472
:1047B00041505040C8F7881B990B0895F999FECFD6
:1047C00092BD81BDF89A992780B50895A8E1B0E01F
:1047D00042E050E00C941224262FF999FECF92BDAE
:1047E00081BDF89A019700B4021639F01FBA20BDB6
:1047F0000FB6F894FA9AF99A0FBE08950396272FE8
:104800000E94ED230E94EC23252F0E94ED23242FEC
:104810000C94ED230196272F0E94ED230C94EC239A
:10482000DC01CB01FC01F999FECF06C0F2BDE1BD70
:10483000F89A319600B40D9241505040B8F708955F
:04484000F894FFCF1A
:1048440005015F01000000015D015F0105600101D8
:104854005D015E01000000056501FFFFF801280805
:10486400140A321E2D1D5C1D311DA31D301D01F4C3
:10487400F5F6F731333236946697C63400000000FB
:02488400000032
:00000001FF
